{
  "contractName": "AuctionOfferingFactory",
  "abi": [
    {
      "inputs": [
        {
          "internalType": "contract ENSRegistry",
          "name": "ens",
          "type": "address"
        },
        {
          "internalType": "contract OfferingRegistry",
          "name": "offeringRegistry",
          "type": "address"
        }
      ],
      "stateMutability": "nonpayable",
      "type": "constructor"
    },
    {
      "inputs": [],
      "name": "ens",
      "outputs": [
        {
          "internalType": "contract ENSRegistry",
          "name": "",
          "type": "address"
        }
      ],
      "stateMutability": "view",
      "type": "function",
      "constant": true
    },
    {
      "inputs": [],
      "name": "offeringRegistry",
      "outputs": [
        {
          "internalType": "contract OfferingRegistry",
          "name": "",
          "type": "address"
        }
      ],
      "stateMutability": "view",
      "type": "function",
      "constant": true
    },
    {
      "inputs": [],
      "name": "rootNode",
      "outputs": [
        {
          "internalType": "bytes32",
          "name": "",
          "type": "bytes32"
        }
      ],
      "stateMutability": "view",
      "type": "function",
      "constant": true
    },
    {
      "inputs": [
        {
          "internalType": "string",
          "name": "name",
          "type": "string"
        },
        {
          "internalType": "uint256",
          "name": "startPrice",
          "type": "uint256"
        },
        {
          "internalType": "uint64",
          "name": "endTime",
          "type": "uint64"
        },
        {
          "internalType": "uint64",
          "name": "extensionDuration",
          "type": "uint64"
        },
        {
          "internalType": "uint256",
          "name": "minBidIncrease",
          "type": "uint256"
        }
      ],
      "name": "createSubnameOffering",
      "outputs": [],
      "stateMutability": "nonpayable",
      "type": "function"
    },
    {
      "inputs": [
        {
          "internalType": "address",
          "name": "operator",
          "type": "address"
        },
        {
          "internalType": "address",
          "name": "from",
          "type": "address"
        },
        {
          "internalType": "uint256",
          "name": "tokenId",
          "type": "uint256"
        },
        {
          "internalType": "bytes",
          "name": "data",
          "type": "bytes"
        }
      ],
      "name": "onERC721Received",
      "outputs": [
        {
          "internalType": "bytes4",
          "name": "",
          "type": "bytes4"
        }
      ],
      "stateMutability": "nonpayable",
      "type": "function"
    }
  ],
  "bytecode": "0x60806040523480156200001157600080fd5b5060405162002245380380620022458339818101604052810190620000379190620000f2565b8181816000806101000a81548173ffffffffffffffffffffffffffffffffffffffff021916908373ffffffffffffffffffffffffffffffffffffffff16021790555080600160006101000a81548173ffffffffffffffffffffffffffffffffffffffff021916908373ffffffffffffffffffffffffffffffffffffffff16021790555050505050620001c3565b600081519050620000d5816200018f565b92915050565b600081519050620000ec81620001a9565b92915050565b600080604083850312156200010657600080fd5b60006200011685828601620000c4565b92505060206200012985828601620000db565b9150509250929050565b600062000140826200016f565b9050919050565b6000620001548262000133565b9050919050565b6000620001688262000133565b9050919050565b600073ffffffffffffffffffffffffffffffffffffffff82169050919050565b6200019a8162000147565b8114620001a657600080fd5b50565b620001b4816200015b565b8114620001c057600080fd5b50565b61207280620001d36000396000f3fe608060405234801561001057600080fd5b50600436106100575760003560e01c8063150b7a021461005c5780633f15457f1461008c57806342a786e7146100aa578063cc0f73b1146100c6578063faff50a8146100e4575b600080fd5b6100766004803603810190610071919061142c565b610102565b6040516100839190611901565b60405180910390f35b610094610253565b6040516100a1919061191c565b60405180910390f35b6100c460048036038101906100bf91906114a7565b610277565b005b6100ce6103f5565b6040516100db9190611937565b60405180910390f35b6100ec61041b565b6040516100f991906117bc565b60405180910390f35b60008060009054906101000a900473ffffffffffffffffffffffffffffffffffffffff1673ffffffffffffffffffffffffffffffffffffffff166302571be37f93cdeb708b7545dc668eb9280176169d1c33cfd8ed6f04690a0bcc88a93fc4ae60001b6040518263ffffffff1660e01b815260040161018191906117bc565b60206040518083038186803b15801561019957600080fd5b505afa1580156101ad573d6000803e3d6000fd5b505050506040513d601f19601f820116820180604052508101906101d19190611403565b73ffffffffffffffffffffffffffffffffffffffff163373ffffffffffffffffffffffffffffffffffffffff161461020857600080fd5b6000806000806000868060200190518101906102249190611539565b9450945094509450945061023c85858585858e610442565b63150b7a0260e01b95505050505050949350505050565b60008054906101000a900473ffffffffffffffffffffffffffffffffffffffff1681565b600060405161028590611245565b604051809103906000f0801580156102a1573d6000803e3d6000fd5b50905060006102f388888080601f016020809104026020016040519081016040528093929190818152602001838380828437600081840152601f19601f82011690508083019250505050505050610537565b9050600061034489898080601f016020809104026020016040519081016040528093929190818152602001838380828437600081840152601f19601f8201169050808301925050505050505061061c565b90506000620186a190508373ffffffffffffffffffffffffffffffffffffffff16635753a6b2848c8c8633878f8f8f8f6040518b63ffffffff1660e01b81526004016103999a999897969594939291906117d7565b600060405180830381600087803b1580156103b357600080fd5b505af11580156103c7573d6000803e3d6000fd5b505050506103e9838386846fffffffffffffffffffffffffffffffff166106ab565b50505050505050505050565b600160009054906101000a900473ffffffffffffffffffffffffffffffffffffffff1681565b7f93cdeb708b7545dc668eb9280176169d1c33cfd8ed6f04690a0bcc88a93fc4ae60001b81565b600060405161045090611245565b604051809103906000f08015801561046c573d6000803e3d6000fd5b509050600061047a88610537565b905060006104878961061c565b90506000620186a190508373ffffffffffffffffffffffffffffffffffffffff16635753a6b2848c8589868f8f8f8f6040518a63ffffffff1660e01b81526004016104da9998979695949392919061186d565b600060405180830381600087803b1580156104f457600080fd5b505af1158015610508573d6000803e3d6000fd5b5050505061052b838386846fffffffffffffffffffffffffffffffff1689610824565b50505050505050505050565b60008061054383610bc9565b905060008060001b90505b600061055983610bf7565b11156106125760006105b96105b46105a56040518060400160405280600181526020017f2e00000000000000000000000000000000000000000000000000000000000000815250610bc9565b85610d0690919063ffffffff16565b610d20565b6040516020016105c99190611729565b60405160208183030381529060405290508181805190602001206040516020016105f49291906116fd565b6040516020818303038152906040528051906020012091505061054e565b8092505050919050565b600061067e6106796106626040518060400160405280600181526020017f2e00000000000000000000000000000000000000000000000000000000000000815250610bc9565b61066b85610bc9565b610dc290919063ffffffff16565b610d20565b60405160200161068e9190611729565b604051602081830303815290604052805190602001209050919050565b3373ffffffffffffffffffffffffffffffffffffffff1660008054906101000a900473ffffffffffffffffffffffffffffffffffffffff1673ffffffffffffffffffffffffffffffffffffffff166302571be3866040518263ffffffff1660e01b815260040161071b91906117bc565b60206040518083038186803b15801561073357600080fd5b505afa158015610747573d6000803e3d6000fd5b505050506040513d601f19601f8201168201806040525081019061076b9190611403565b73ffffffffffffffffffffffffffffffffffffffff161461078b57600080fd5b600160009054906101000a900473ffffffffffffffffffffffffffffffffffffffff1673ffffffffffffffffffffffffffffffffffffffff166312b97812838633856040518563ffffffff1660e01b81526004016107ec9493929190611777565b600060405180830381600087803b15801561080657600080fd5b505af115801561081a573d6000803e3d6000fd5b5050505050505050565b7f93cdeb708b7545dc668eb9280176169d1c33cfd8ed6f04690a0bcc88a93fc4ae60001b8460405160200161085a9291906116fd565b60405160208183030381529060405280519060200120851461087b57600080fd5b60008060009054906101000a900473ffffffffffffffffffffffffffffffffffffffff1673ffffffffffffffffffffffffffffffffffffffff166302571be37f93cdeb708b7545dc668eb9280176169d1c33cfd8ed6f04690a0bcc88a93fc4ae60001b6040518263ffffffff1660e01b81526004016108fa91906117bc565b60206040518083038186803b15801561091257600080fd5b505afa158015610926573d6000803e3d6000fd5b505050506040513d601f19601f8201168201806040525081019061094a9190611403565b905060008560001c905060008273ffffffffffffffffffffffffffffffffffffffff16636352211e836040518263ffffffff1660e01b815260040161098f9190611952565b60206040518083038186803b1580156109a757600080fd5b505afa1580156109bb573d6000803e3d6000fd5b505050506040513d601f19601f820116820180604052508101906109df9190611403565b90508273ffffffffffffffffffffffffffffffffffffffff163373ffffffffffffffffffffffffffffffffffffffff16148015610a4757503073ffffffffffffffffffffffffffffffffffffffff168173ffffffffffffffffffffffffffffffffffffffff16145b610a5057600080fd5b8273ffffffffffffffffffffffffffffffffffffffff166328ed4f6c83886040518363ffffffff1660e01b8152600401610a8b92919061196d565b600060405180830381600087803b158015610aa557600080fd5b505af1158015610ab9573d6000803e3d6000fd5b505050508273ffffffffffffffffffffffffffffffffffffffff166323b872dd8288856040518463ffffffff1660e01b8152600401610afa93929190611740565b600060405180830381600087803b158015610b1457600080fd5b505af1158015610b28573d6000803e3d6000fd5b50505050600160009054906101000a900473ffffffffffffffffffffffffffffffffffffffff1673ffffffffffffffffffffffffffffffffffffffff166312b97812878a87896040518563ffffffff1660e01b8152600401610b8d9493929190611777565b600060405180830381600087803b158015610ba757600080fd5b505af1158015610bbb573d6000803e3d6000fd5b505050505050505050505050565b610bd1611251565b600060208301905060405180604001604052808451815260200182815250915050919050565b600080601f8360200151610c0b9190611c65565b90506000836000015182610c1f9190611a44565b9050600092505b80821015610cff57600060ff835116905060808160ff161015610c5757600183610c509190611a44565b9250610ceb565b60e08160ff161015610c7757600283610c709190611a44565b9250610cea565b60f08160ff161015610c9757600383610c909190611a44565b9250610ce9565b60f88160ff161015610cb757600483610cb09190611a44565b9250610ce8565b60fc8160ff161015610cd757600583610cd09190611a44565b9250610ce7565b600683610ce49190611a44565b92505b5b5b5b5b508280610cf790611e32565b935050610c26565b5050919050565b610d0e611251565b610d19838383610ddc565b5092915050565b60606000826000015167ffffffffffffffff811115610d68577f4e487b7100000000000000000000000000000000000000000000000000000000600052604160045260246000fd5b6040519080825280601f01601f191660200182016040528015610d9a5781602001600182028036833780820191505090505b5090506000602082019050610db88185602001518660000151610e8a565b8192505050919050565b610dca611251565b610dd5838383610f09565b5092915050565b610de4611251565b6000610e028560000151866020015186600001518760200151610fd4565b905080836020018181525050846020015181610e1e9190611c65565b8560000151610e2d9190611c65565b8360000181815250508460200151811415610e52576000856000018181525050610e7f565b83600001518360000151610e669190611a44565b85600001818151610e779190611c65565b915081815250505b829150509392505050565b5b60208110610ec95781518352602083610ea49190611a44565b9250602082610eb39190611a44565b9150602081610ec29190611c65565b9050610e8b565b60006001826020610eda9190611c65565b610100610ee79190611aed565b610ef19190611c65565b90508019835116818551168181178652505050505050565b610f11611251565b6000610f2f8560000151866020015186600001518760200151611104565b90508460200151836020018181525050846020015181610f4f9190611c65565b83600001818152505084600001518560200151610f6c9190611a44565b811415610f83576000856000018181525050610fc9565b83600001518360000151610f979190611a44565b85600001818151610fa89190611c65565b91508181525050836000015181610fbf9190611a44565b8560200181815250505b829150509392505050565b6000808584116110f757602084116110935760006001856020610ff79190611c65565b60086110039190611c0b565b600261100f9190611aed565b6110199190611c65565b1960001b905060008185511690508588886110349190611a44565b61103e9190611c65565b925060008284511690505b81811461107c5787841161106357879450505050506110fc565b838061106e90611dd7565b945050828451169050611049565b86846110889190611a44565b9450505050506110fc565b6000848420905084876110a69190611c65565b866110b19190611a44565b91505b8582106110f55760008583209050808214156110e05785836110d69190611a44565b93505050506110fc565b6001836110ed9190611c65565b9250506110b4565b505b849150505b949350505050565b600080849050600086851161122c57602085116111ce576000600186602061112c9190611c65565b60086111389190611c0b565b60026111449190611aed565b61114e9190611c65565b1960001b905060008186511690506000878a8a61116b9190611a44565b6111759190611c65565b905060008386511690505b8281146111c0578186106111a7578a8a61119a9190611a44565b965050505050505061123d565b85806111b290611e32565b965050838651169050611180565b85965050505050505061123d565b60008585209050600091505b85886111e69190611c65565b821161122a576000868420905080821415611207578394505050505061123d565b6001846112149190611a44565b935050818061122290611e32565b9250506111da565b505b86866112389190611a44565b925050505b949350505050565b60f680611f4783390190565b604051806040016040528060008152602001600081525090565b600061127e611279846119bb565b611996565b90508281526020810184848401111561129657600080fd5b6112a1848285611d95565b509392505050565b60006112bc6112b7846119ec565b611996565b9050828152602081018484840111156112d457600080fd5b6112df848285611da4565b509392505050565b6000813590506112f681611f01565b92915050565b60008151905061130b81611f01565b92915050565b600082601f83011261132257600080fd5b813561133284826020860161126b565b91505092915050565b60008083601f84011261134d57600080fd5b8235905067ffffffffffffffff81111561136657600080fd5b60208301915083600182028301111561137e57600080fd5b9250929050565b600082601f83011261139657600080fd5b81516113a68482602086016112a9565b91505092915050565b6000813590506113be81611f18565b92915050565b6000815190506113d381611f18565b92915050565b6000813590506113e881611f2f565b92915050565b6000815190506113fd81611f2f565b92915050565b60006020828403121561141557600080fd5b6000611423848285016112fc565b91505092915050565b6000806000806080858703121561144257600080fd5b6000611450878288016112e7565b9450506020611461878288016112e7565b9350506040611472878288016113af565b925050606085013567ffffffffffffffff81111561148f57600080fd5b61149b87828801611311565b91505092959194509250565b60008060008060008060a087890312156114c057600080fd5b600087013567ffffffffffffffff8111156114da57600080fd5b6114e689828a0161133b565b965096505060206114f989828a016113af565b945050604061150a89828a016113d9565b935050606061151b89828a016113d9565b925050608061152c89828a016113af565b9150509295509295509295565b600080600080600060a0868803121561155157600080fd5b600086015167ffffffffffffffff81111561156b57600080fd5b61157788828901611385565b9550506020611588888289016113c4565b9450506040611599888289016113ee565b93505060606115aa888289016113ee565b92505060806115bb888289016113c4565b9150509295509295909350565b6115d181611cab565b82525050565b6115e081611c99565b82525050565b6115ef81611cbd565b82525050565b61160661160182611cbd565b611e7b565b82525050565b61161581611cc7565b82525050565b61162481611d4d565b82525050565b61163381611d71565b82525050565b60006116458385611a28565b9350611652838584611d95565b61165b83611ee3565b840190509392505050565b600061167182611a1d565b61167b8185611a28565b935061168b818560208601611da4565b61169481611ee3565b840191505092915050565b60006116aa82611a1d565b6116b48185611a39565b93506116c4818560208601611da4565b80840191505092915050565b6116d981611cf3565b82525050565b6116e881611d2f565b82525050565b6116f781611d39565b82525050565b600061170982856115f5565b60208201915061171982846115f5565b6020820191508190509392505050565b6000611735828461169f565b915081905092915050565b600060608201905061175560008301866115d7565b61176260208301856115d7565b61176f60408301846116df565b949350505050565b600060808201905061178c60008301876115d7565b61179960208301866115e6565b6117a660408301856115d7565b6117b360608301846116df565b95945050505050565b60006020820190506117d160008301846115e6565b92915050565b6000610120820190506117ed600083018d6115e6565b8181036020830152611800818b8d611639565b905061180f604083018a6115e6565b61181c60608301896115c8565b61182960808301886116d0565b61183660a08301876116df565b61184360c08301866116ee565b61185060e08301856116ee565b61185e6101008301846116df565b9b9a5050505050505050505050565b600061012082019050611883600083018c6115e6565b8181036020830152611895818b611666565b90506118a4604083018a6115e6565b6118b160608301896115c8565b6118be60808301886116d0565b6118cb60a08301876116df565b6118d860c08301866116ee565b6118e560e08301856116ee565b6118f36101008301846116df565b9a9950505050505050505050565b6000602082019050611916600083018461160c565b92915050565b6000602082019050611931600083018461161b565b92915050565b600060208201905061194c600083018461162a565b92915050565b600060208201905061196760008301846116df565b92915050565b600060408201905061198260008301856116df565b61198f60208301846115d7565b9392505050565b60006119a06119b1565b90506119ac8282611e01565b919050565b6000604051905090565b600067ffffffffffffffff8211156119d6576119d5611eb4565b5b6119df82611ee3565b9050602081019050919050565b600067ffffffffffffffff821115611a0757611a06611eb4565b5b611a1082611ee3565b9050602081019050919050565b600081519050919050565b600082825260208201905092915050565b600081905092915050565b6000611a4f82611d2f565b9150611a5a83611d2f565b9250827fffffffffffffffffffffffffffffffffffffffffffffffffffffffffffffffff03821115611a8f57611a8e611e85565b5b828201905092915050565b6000808291508390505b6001851115611ae457808604811115611ac057611abf611e85565b5b6001851615611acf5780820291505b8081029050611add85611ef4565b9450611aa4565b94509492505050565b6000611af882611d2f565b9150611b0383611d2f565b9250611b307fffffffffffffffffffffffffffffffffffffffffffffffffffffffffffffffff8484611b38565b905092915050565b600082611b485760019050611c04565b81611b565760009050611c04565b8160018114611b6c5760028114611b7657611ba5565b6001915050611c04565b60ff841115611b8857611b87611e85565b5b8360020a915084821115611b9f57611b9e611e85565b5b50611c04565b5060208310610133831016604e8410600b8410161715611bda5782820a905083811115611bd557611bd4611e85565b5b611c04565b611be78484846001611a9a565b92509050818404811115611bfe57611bfd611e85565b5b81810290505b9392505050565b6000611c1682611d2f565b9150611c2183611d2f565b9250817fffffffffffffffffffffffffffffffffffffffffffffffffffffffffffffffff0483118215151615611c5a57611c59611e85565b5b828202905092915050565b6000611c7082611d2f565b9150611c7b83611d2f565b925082821015611c8e57611c8d611e85565b5b828203905092915050565b6000611ca482611d0f565b9050919050565b6000611cb682611d0f565b9050919050565b6000819050919050565b60007fffffffff0000000000000000000000000000000000000000000000000000000082169050919050565b60006fffffffffffffffffffffffffffffffff82169050919050565b600073ffffffffffffffffffffffffffffffffffffffff82169050919050565b6000819050919050565b600067ffffffffffffffff82169050919050565b6000611d5882611d5f565b9050919050565b6000611d6a82611d0f565b9050919050565b6000611d7c82611d83565b9050919050565b6000611d8e82611d0f565b9050919050565b82818337600083830152505050565b60005b83811015611dc2578082015181840152602081019050611da7565b83811115611dd1576000848401525b50505050565b6000611de282611d2f565b91506000821415611df657611df5611e85565b5b600182039050919050565b611e0a82611ee3565b810181811067ffffffffffffffff82111715611e2957611e28611eb4565b5b80604052505050565b6000611e3d82611d2f565b91507fffffffffffffffffffffffffffffffffffffffffffffffffffffffffffffffff821415611e7057611e6f611e85565b5b600182019050919050565b6000819050919050565b7f4e487b7100000000000000000000000000000000000000000000000000000000600052601160045260246000fd5b7f4e487b7100000000000000000000000000000000000000000000000000000000600052604160045260246000fd5b6000601f19601f8301169050919050565b60008160011c9050919050565b611f0a81611c99565b8114611f1557600080fd5b50565b611f2181611d2f565b8114611f2c57600080fd5b50565b611f3881611d39565b8114611f4357600080fd5b5056fe608060405234801561001057600080fd5b5060d78061001f6000396000f3fe608060405260657354f94DCb18Bd0dA9A4cB5a2b45E4C2eA6A0a61d16000368080601f016020809104026020016040519081016040528093929190818152602001838380828437600081840152601f19601f820116905080830192505050505050506067565b005b813b600081146074576079565b600080fd5b50611000806000835160208501866127105a03f48060008114609957609b565bfe5b50816000f3fea26469706673582212208c3c907604e298dd34122446db6e79c626890b51722ccea1a6c0e1565b9d699364736f6c63430008040033a26469706673582212201791cf610beb23d091b9a3cd2710b2525af36446241a290d8f007d09008e3fdd64736f6c63430008040033",
  "deployedBytecode": "0x608060405234801561001057600080fd5b50600436106100575760003560e01c8063150b7a021461005c5780633f15457f1461008c57806342a786e7146100aa578063cc0f73b1146100c6578063faff50a8146100e4575b600080fd5b6100766004803603810190610071919061142c565b610102565b6040516100839190611901565b60405180910390f35b610094610253565b6040516100a1919061191c565b60405180910390f35b6100c460048036038101906100bf91906114a7565b610277565b005b6100ce6103f5565b6040516100db9190611937565b60405180910390f35b6100ec61041b565b6040516100f991906117bc565b60405180910390f35b60008060009054906101000a900473ffffffffffffffffffffffffffffffffffffffff1673ffffffffffffffffffffffffffffffffffffffff166302571be37f93cdeb708b7545dc668eb9280176169d1c33cfd8ed6f04690a0bcc88a93fc4ae60001b6040518263ffffffff1660e01b815260040161018191906117bc565b60206040518083038186803b15801561019957600080fd5b505afa1580156101ad573d6000803e3d6000fd5b505050506040513d601f19601f820116820180604052508101906101d19190611403565b73ffffffffffffffffffffffffffffffffffffffff163373ffffffffffffffffffffffffffffffffffffffff161461020857600080fd5b6000806000806000868060200190518101906102249190611539565b9450945094509450945061023c85858585858e610442565b63150b7a0260e01b95505050505050949350505050565b60008054906101000a900473ffffffffffffffffffffffffffffffffffffffff1681565b600060405161028590611245565b604051809103906000f0801580156102a1573d6000803e3d6000fd5b50905060006102f388888080601f016020809104026020016040519081016040528093929190818152602001838380828437600081840152601f19601f82011690508083019250505050505050610537565b9050600061034489898080601f016020809104026020016040519081016040528093929190818152602001838380828437600081840152601f19601f8201169050808301925050505050505061061c565b90506000620186a190508373ffffffffffffffffffffffffffffffffffffffff16635753a6b2848c8c8633878f8f8f8f6040518b63ffffffff1660e01b81526004016103999a999897969594939291906117d7565b600060405180830381600087803b1580156103b357600080fd5b505af11580156103c7573d6000803e3d6000fd5b505050506103e9838386846fffffffffffffffffffffffffffffffff166106ab565b50505050505050505050565b600160009054906101000a900473ffffffffffffffffffffffffffffffffffffffff1681565b7f93cdeb708b7545dc668eb9280176169d1c33cfd8ed6f04690a0bcc88a93fc4ae60001b81565b600060405161045090611245565b604051809103906000f08015801561046c573d6000803e3d6000fd5b509050600061047a88610537565b905060006104878961061c565b90506000620186a190508373ffffffffffffffffffffffffffffffffffffffff16635753a6b2848c8589868f8f8f8f6040518a63ffffffff1660e01b81526004016104da9998979695949392919061186d565b600060405180830381600087803b1580156104f457600080fd5b505af1158015610508573d6000803e3d6000fd5b5050505061052b838386846fffffffffffffffffffffffffffffffff1689610824565b50505050505050505050565b60008061054383610bc9565b905060008060001b90505b600061055983610bf7565b11156106125760006105b96105b46105a56040518060400160405280600181526020017f2e00000000000000000000000000000000000000000000000000000000000000815250610bc9565b85610d0690919063ffffffff16565b610d20565b6040516020016105c99190611729565b60405160208183030381529060405290508181805190602001206040516020016105f49291906116fd565b6040516020818303038152906040528051906020012091505061054e565b8092505050919050565b600061067e6106796106626040518060400160405280600181526020017f2e00000000000000000000000000000000000000000000000000000000000000815250610bc9565b61066b85610bc9565b610dc290919063ffffffff16565b610d20565b60405160200161068e9190611729565b604051602081830303815290604052805190602001209050919050565b3373ffffffffffffffffffffffffffffffffffffffff1660008054906101000a900473ffffffffffffffffffffffffffffffffffffffff1673ffffffffffffffffffffffffffffffffffffffff166302571be3866040518263ffffffff1660e01b815260040161071b91906117bc565b60206040518083038186803b15801561073357600080fd5b505afa158015610747573d6000803e3d6000fd5b505050506040513d601f19601f8201168201806040525081019061076b9190611403565b73ffffffffffffffffffffffffffffffffffffffff161461078b57600080fd5b600160009054906101000a900473ffffffffffffffffffffffffffffffffffffffff1673ffffffffffffffffffffffffffffffffffffffff166312b97812838633856040518563ffffffff1660e01b81526004016107ec9493929190611777565b600060405180830381600087803b15801561080657600080fd5b505af115801561081a573d6000803e3d6000fd5b5050505050505050565b7f93cdeb708b7545dc668eb9280176169d1c33cfd8ed6f04690a0bcc88a93fc4ae60001b8460405160200161085a9291906116fd565b60405160208183030381529060405280519060200120851461087b57600080fd5b60008060009054906101000a900473ffffffffffffffffffffffffffffffffffffffff1673ffffffffffffffffffffffffffffffffffffffff166302571be37f93cdeb708b7545dc668eb9280176169d1c33cfd8ed6f04690a0bcc88a93fc4ae60001b6040518263ffffffff1660e01b81526004016108fa91906117bc565b60206040518083038186803b15801561091257600080fd5b505afa158015610926573d6000803e3d6000fd5b505050506040513d601f19601f8201168201806040525081019061094a9190611403565b905060008560001c905060008273ffffffffffffffffffffffffffffffffffffffff16636352211e836040518263ffffffff1660e01b815260040161098f9190611952565b60206040518083038186803b1580156109a757600080fd5b505afa1580156109bb573d6000803e3d6000fd5b505050506040513d601f19601f820116820180604052508101906109df9190611403565b90508273ffffffffffffffffffffffffffffffffffffffff163373ffffffffffffffffffffffffffffffffffffffff16148015610a4757503073ffffffffffffffffffffffffffffffffffffffff168173ffffffffffffffffffffffffffffffffffffffff16145b610a5057600080fd5b8273ffffffffffffffffffffffffffffffffffffffff166328ed4f6c83886040518363ffffffff1660e01b8152600401610a8b92919061196d565b600060405180830381600087803b158015610aa557600080fd5b505af1158015610ab9573d6000803e3d6000fd5b505050508273ffffffffffffffffffffffffffffffffffffffff166323b872dd8288856040518463ffffffff1660e01b8152600401610afa93929190611740565b600060405180830381600087803b158015610b1457600080fd5b505af1158015610b28573d6000803e3d6000fd5b50505050600160009054906101000a900473ffffffffffffffffffffffffffffffffffffffff1673ffffffffffffffffffffffffffffffffffffffff166312b97812878a87896040518563ffffffff1660e01b8152600401610b8d9493929190611777565b600060405180830381600087803b158015610ba757600080fd5b505af1158015610bbb573d6000803e3d6000fd5b505050505050505050505050565b610bd1611251565b600060208301905060405180604001604052808451815260200182815250915050919050565b600080601f8360200151610c0b9190611c65565b90506000836000015182610c1f9190611a44565b9050600092505b80821015610cff57600060ff835116905060808160ff161015610c5757600183610c509190611a44565b9250610ceb565b60e08160ff161015610c7757600283610c709190611a44565b9250610cea565b60f08160ff161015610c9757600383610c909190611a44565b9250610ce9565b60f88160ff161015610cb757600483610cb09190611a44565b9250610ce8565b60fc8160ff161015610cd757600583610cd09190611a44565b9250610ce7565b600683610ce49190611a44565b92505b5b5b5b5b508280610cf790611e32565b935050610c26565b5050919050565b610d0e611251565b610d19838383610ddc565b5092915050565b60606000826000015167ffffffffffffffff811115610d68577f4e487b7100000000000000000000000000000000000000000000000000000000600052604160045260246000fd5b6040519080825280601f01601f191660200182016040528015610d9a5781602001600182028036833780820191505090505b5090506000602082019050610db88185602001518660000151610e8a565b8192505050919050565b610dca611251565b610dd5838383610f09565b5092915050565b610de4611251565b6000610e028560000151866020015186600001518760200151610fd4565b905080836020018181525050846020015181610e1e9190611c65565b8560000151610e2d9190611c65565b8360000181815250508460200151811415610e52576000856000018181525050610e7f565b83600001518360000151610e669190611a44565b85600001818151610e779190611c65565b915081815250505b829150509392505050565b5b60208110610ec95781518352602083610ea49190611a44565b9250602082610eb39190611a44565b9150602081610ec29190611c65565b9050610e8b565b60006001826020610eda9190611c65565b610100610ee79190611aed565b610ef19190611c65565b90508019835116818551168181178652505050505050565b610f11611251565b6000610f2f8560000151866020015186600001518760200151611104565b90508460200151836020018181525050846020015181610f4f9190611c65565b83600001818152505084600001518560200151610f6c9190611a44565b811415610f83576000856000018181525050610fc9565b83600001518360000151610f979190611a44565b85600001818151610fa89190611c65565b91508181525050836000015181610fbf9190611a44565b8560200181815250505b829150509392505050565b6000808584116110f757602084116110935760006001856020610ff79190611c65565b60086110039190611c0b565b600261100f9190611aed565b6110199190611c65565b1960001b905060008185511690508588886110349190611a44565b61103e9190611c65565b925060008284511690505b81811461107c5787841161106357879450505050506110fc565b838061106e90611dd7565b945050828451169050611049565b86846110889190611a44565b9450505050506110fc565b6000848420905084876110a69190611c65565b866110b19190611a44565b91505b8582106110f55760008583209050808214156110e05785836110d69190611a44565b93505050506110fc565b6001836110ed9190611c65565b9250506110b4565b505b849150505b949350505050565b600080849050600086851161122c57602085116111ce576000600186602061112c9190611c65565b60086111389190611c0b565b60026111449190611aed565b61114e9190611c65565b1960001b905060008186511690506000878a8a61116b9190611a44565b6111759190611c65565b905060008386511690505b8281146111c0578186106111a7578a8a61119a9190611a44565b965050505050505061123d565b85806111b290611e32565b965050838651169050611180565b85965050505050505061123d565b60008585209050600091505b85886111e69190611c65565b821161122a576000868420905080821415611207578394505050505061123d565b6001846112149190611a44565b935050818061122290611e32565b9250506111da565b505b86866112389190611a44565b925050505b949350505050565b60f680611f4783390190565b604051806040016040528060008152602001600081525090565b600061127e611279846119bb565b611996565b90508281526020810184848401111561129657600080fd5b6112a1848285611d95565b509392505050565b60006112bc6112b7846119ec565b611996565b9050828152602081018484840111156112d457600080fd5b6112df848285611da4565b509392505050565b6000813590506112f681611f01565b92915050565b60008151905061130b81611f01565b92915050565b600082601f83011261132257600080fd5b813561133284826020860161126b565b91505092915050565b60008083601f84011261134d57600080fd5b8235905067ffffffffffffffff81111561136657600080fd5b60208301915083600182028301111561137e57600080fd5b9250929050565b600082601f83011261139657600080fd5b81516113a68482602086016112a9565b91505092915050565b6000813590506113be81611f18565b92915050565b6000815190506113d381611f18565b92915050565b6000813590506113e881611f2f565b92915050565b6000815190506113fd81611f2f565b92915050565b60006020828403121561141557600080fd5b6000611423848285016112fc565b91505092915050565b6000806000806080858703121561144257600080fd5b6000611450878288016112e7565b9450506020611461878288016112e7565b9350506040611472878288016113af565b925050606085013567ffffffffffffffff81111561148f57600080fd5b61149b87828801611311565b91505092959194509250565b60008060008060008060a087890312156114c057600080fd5b600087013567ffffffffffffffff8111156114da57600080fd5b6114e689828a0161133b565b965096505060206114f989828a016113af565b945050604061150a89828a016113d9565b935050606061151b89828a016113d9565b925050608061152c89828a016113af565b9150509295509295509295565b600080600080600060a0868803121561155157600080fd5b600086015167ffffffffffffffff81111561156b57600080fd5b61157788828901611385565b9550506020611588888289016113c4565b9450506040611599888289016113ee565b93505060606115aa888289016113ee565b92505060806115bb888289016113c4565b9150509295509295909350565b6115d181611cab565b82525050565b6115e081611c99565b82525050565b6115ef81611cbd565b82525050565b61160661160182611cbd565b611e7b565b82525050565b61161581611cc7565b82525050565b61162481611d4d565b82525050565b61163381611d71565b82525050565b60006116458385611a28565b9350611652838584611d95565b61165b83611ee3565b840190509392505050565b600061167182611a1d565b61167b8185611a28565b935061168b818560208601611da4565b61169481611ee3565b840191505092915050565b60006116aa82611a1d565b6116b48185611a39565b93506116c4818560208601611da4565b80840191505092915050565b6116d981611cf3565b82525050565b6116e881611d2f565b82525050565b6116f781611d39565b82525050565b600061170982856115f5565b60208201915061171982846115f5565b6020820191508190509392505050565b6000611735828461169f565b915081905092915050565b600060608201905061175560008301866115d7565b61176260208301856115d7565b61176f60408301846116df565b949350505050565b600060808201905061178c60008301876115d7565b61179960208301866115e6565b6117a660408301856115d7565b6117b360608301846116df565b95945050505050565b60006020820190506117d160008301846115e6565b92915050565b6000610120820190506117ed600083018d6115e6565b8181036020830152611800818b8d611639565b905061180f604083018a6115e6565b61181c60608301896115c8565b61182960808301886116d0565b61183660a08301876116df565b61184360c08301866116ee565b61185060e08301856116ee565b61185e6101008301846116df565b9b9a5050505050505050505050565b600061012082019050611883600083018c6115e6565b8181036020830152611895818b611666565b90506118a4604083018a6115e6565b6118b160608301896115c8565b6118be60808301886116d0565b6118cb60a08301876116df565b6118d860c08301866116ee565b6118e560e08301856116ee565b6118f36101008301846116df565b9a9950505050505050505050565b6000602082019050611916600083018461160c565b92915050565b6000602082019050611931600083018461161b565b92915050565b600060208201905061194c600083018461162a565b92915050565b600060208201905061196760008301846116df565b92915050565b600060408201905061198260008301856116df565b61198f60208301846115d7565b9392505050565b60006119a06119b1565b90506119ac8282611e01565b919050565b6000604051905090565b600067ffffffffffffffff8211156119d6576119d5611eb4565b5b6119df82611ee3565b9050602081019050919050565b600067ffffffffffffffff821115611a0757611a06611eb4565b5b611a1082611ee3565b9050602081019050919050565b600081519050919050565b600082825260208201905092915050565b600081905092915050565b6000611a4f82611d2f565b9150611a5a83611d2f565b9250827fffffffffffffffffffffffffffffffffffffffffffffffffffffffffffffffff03821115611a8f57611a8e611e85565b5b828201905092915050565b6000808291508390505b6001851115611ae457808604811115611ac057611abf611e85565b5b6001851615611acf5780820291505b8081029050611add85611ef4565b9450611aa4565b94509492505050565b6000611af882611d2f565b9150611b0383611d2f565b9250611b307fffffffffffffffffffffffffffffffffffffffffffffffffffffffffffffffff8484611b38565b905092915050565b600082611b485760019050611c04565b81611b565760009050611c04565b8160018114611b6c5760028114611b7657611ba5565b6001915050611c04565b60ff841115611b8857611b87611e85565b5b8360020a915084821115611b9f57611b9e611e85565b5b50611c04565b5060208310610133831016604e8410600b8410161715611bda5782820a905083811115611bd557611bd4611e85565b5b611c04565b611be78484846001611a9a565b92509050818404811115611bfe57611bfd611e85565b5b81810290505b9392505050565b6000611c1682611d2f565b9150611c2183611d2f565b9250817fffffffffffffffffffffffffffffffffffffffffffffffffffffffffffffffff0483118215151615611c5a57611c59611e85565b5b828202905092915050565b6000611c7082611d2f565b9150611c7b83611d2f565b925082821015611c8e57611c8d611e85565b5b828203905092915050565b6000611ca482611d0f565b9050919050565b6000611cb682611d0f565b9050919050565b6000819050919050565b60007fffffffff0000000000000000000000000000000000000000000000000000000082169050919050565b60006fffffffffffffffffffffffffffffffff82169050919050565b600073ffffffffffffffffffffffffffffffffffffffff82169050919050565b6000819050919050565b600067ffffffffffffffff82169050919050565b6000611d5882611d5f565b9050919050565b6000611d6a82611d0f565b9050919050565b6000611d7c82611d83565b9050919050565b6000611d8e82611d0f565b9050919050565b82818337600083830152505050565b60005b83811015611dc2578082015181840152602081019050611da7565b83811115611dd1576000848401525b50505050565b6000611de282611d2f565b91506000821415611df657611df5611e85565b5b600182039050919050565b611e0a82611ee3565b810181811067ffffffffffffffff82111715611e2957611e28611eb4565b5b80604052505050565b6000611e3d82611d2f565b91507fffffffffffffffffffffffffffffffffffffffffffffffffffffffffffffffff821415611e7057611e6f611e85565b5b600182019050919050565b6000819050919050565b7f4e487b7100000000000000000000000000000000000000000000000000000000600052601160045260246000fd5b7f4e487b7100000000000000000000000000000000000000000000000000000000600052604160045260246000fd5b6000601f19601f8301169050919050565b60008160011c9050919050565b611f0a81611c99565b8114611f1557600080fd5b50565b611f2181611d2f565b8114611f2c57600080fd5b50565b611f3881611d39565b8114611f4357600080fd5b5056fe608060405234801561001057600080fd5b5060d78061001f6000396000f3fe6080604052606573beefbeefbeefbeefbeefbeefbeefbeefbeefbeef6000368080601f016020809104026020016040519081016040528093929190818152602001838380828437600081840152601f19601f820116905080830192505050505050506067565b005b813b600081146074576079565b600080fd5b50611000806000835160208501866127105a03f48060008114609957609b565bfe5b50816000f3fea26469706673582212208c3c907604e298dd34122446db6e79c626890b51722ccea1a6c0e1565b9d699364736f6c63430008040033a26469706673582212201791cf610beb23d091b9a3cd2710b2525af36446241a290d8f007d09008e3fdd64736f6c63430008040033",
  "immutableReferences": {},
  "source": "// SPDX-License-Identifier: MIT\npragma solidity ^0.8.4;\n\n/**\n * @title AuctionOfferingFactory\n * @dev Factory for creating new Auction offerings\n */\n\nimport \"./OfferingRegistry.sol\";\nimport \"./OfferingFactory.sol\";\nimport \"./AuctionOffering.sol\";\nimport \"./proxy/Forwarder.sol\";\n\ncontract AuctionOfferingFactory is OfferingFactory {\n\n    constructor(ENSRegistry ens, OfferingRegistry offeringRegistry) OfferingFactory(ens, offeringRegistry) {}\n\n    /**\n    * @dev Deploys new auction offering and registers it to OfferingRegistry\n    * @param name string Plaintext ENS name\n    * @param startPrice uint The start price of the auction\n    * @param endTime uint The end time of the auction\n    * @param extensionDuration uint The extension duration of the auction\n    * @param minBidIncrease uint The min bid increase of the auction\n    */\n    function createSubnameOffering(\n        // WARNING: The contract DOES NOT perform ENS name normalisation, which is up to responsibility of each offchain UI!\n        string calldata name,\n        uint startPrice,\n        uint64 endTime,\n        uint64 extensionDuration,\n        uint minBidIncrease\n    ) external {\n        address payable forwarder = payable(address(new Forwarder()));\n        bytes32 node = namehash(name);\n        bytes32 labelHash = getLabelHash(name);\n        uint128 version = 100001;                   // versioning for Auction offerings starts at number 100000\n\n        AuctionOffering(forwarder).construct(\n            node,\n            name,\n            labelHash,\n            payable(msg.sender),\n            version,\n            startPrice,\n            endTime,\n            extensionDuration,\n            minBidIncrease\n        );\n\n        registerSubnameOffering(node, labelHash, forwarder, version);\n    }\n\n    /**\n    * @dev Deploys new TLD auction offering and registers it to OfferingRegistry\n    * @param name string Plaintext ENS name\n    * @param startPrice uint The start price of the auction\n    * @param endTime uint The end time of the auction\n    * @param extensionDuration uint The extension duration of the auction\n    * @param minBidIncrease uint The min bid increase of the auction\n    * @param originalOwner address Original owner of the name\n    */\n    function createTLDOffering(\n        // WARNING: The contract DOES NOT perform ENS name normalisation, which is up to responsibility of each offchain UI!\n        string memory name,\n        uint startPrice,\n        uint64 endTime,\n        uint64 extensionDuration,\n        uint minBidIncrease,\n        address payable originalOwner\n    ) internal {\n        address payable forwarder = payable(address(new Forwarder()));\n        bytes32 node = namehash(name);\n        bytes32 labelHash = getLabelHash(name);\n        uint128 version = 100001;                   // versioning for Auction offerings starts at number 100000\n\n        AuctionOffering(forwarder).construct(\n            node,\n            name,\n            labelHash,\n            originalOwner,\n            version,\n            startPrice,\n            endTime,\n            extensionDuration,\n            minBidIncrease\n        );\n\n        registerTLDOffering(node, labelHash, forwarder, version, originalOwner);\n    }\n\n    /**\n    * @dev Recognizes being sent .eth subdomain ownership via EthRegistrar and initiates offering creation\n    * @param operator address Who initiated the transfer\n    * @param from address Original owner of the domain\n    * @param tokenId uint256 EthRegistrar identifier of the domain\n    * @param data bytes memory Additional data sent with transfer encoding the desired offering parameters\n    */\n    function onERC721Received(address operator, address from, uint256 tokenId, bytes memory data)\n        public\n        override\n        onlyRegistrar\n        returns (bytes4)\n    {\n        (string memory name,\n         uint startPrice,\n         uint64 endTime,\n         uint64 extensionDuration,\n         uint minBidIncrease) = abi.decode(data, (string, uint, uint64, uint64, uint));\n        createTLDOffering(name, startPrice, endTime, extensionDuration, minBidIncrease, payable(from));\n        return this.onERC721Received.selector;\n    }\n}\n\n",
  "sourcePath": "/Users/kwladyka/district0x/name-bazaar/resources/public/contracts/src/AuctionOfferingFactory.sol",
  "compiler": {
    "name": "solc",
    "version": "0.8.4+commit.c7e474f2.Emscripten.clang"
  },
  "schemaVersion": "3.4.7",
  "updatedAt": "2022-05-19T11:58:22.410Z",
  "networkType": "ethereum",
  "devdoc": {
    "kind": "dev",
    "methods": {
      "createSubnameOffering(string,uint256,uint64,uint64,uint256)": {
        "details": "Deploys new auction offering and registers it to OfferingRegistry",
        "params": {
          "endTime": "uint The end time of the auction",
          "extensionDuration": "uint The extension duration of the auction",
          "minBidIncrease": "uint The min bid increase of the auction",
          "name": "string Plaintext ENS name",
          "startPrice": "uint The start price of the auction"
        }
      },
      "onERC721Received(address,address,uint256,bytes)": {
        "details": "Recognizes being sent .eth subdomain ownership via EthRegistrar and initiates offering creation",
        "params": {
          "data": "bytes memory Additional data sent with transfer encoding the desired offering parameters",
          "from": "address Original owner of the domain",
          "operator": "address Who initiated the transfer",
          "tokenId": "uint256 EthRegistrar identifier of the domain"
        }
      }
    },
    "version": 1
  },
  "userdoc": {
    "kind": "user",
    "methods": {},
    "version": 1
  }
}