{
  "contractName": "AuctionOffering",
  "abi": [
    {
      "inputs": [],
      "name": "auctionOffering",
      "outputs": [
        {
          "internalType": "uint64",
          "name": "endTime",
          "type": "uint64"
        },
        {
          "internalType": "uint64",
          "name": "extensionDuration",
          "type": "uint64"
        },
        {
          "internalType": "uint128",
          "name": "bidCount",
          "type": "uint128"
        },
        {
          "internalType": "uint256",
          "name": "minBidIncrease",
          "type": "uint256"
        },
        {
          "internalType": "address payable",
          "name": "winningBidder",
          "type": "address"
        }
      ],
      "stateMutability": "view",
      "type": "function",
      "constant": true
    },
    {
      "inputs": [],
      "name": "emergencyMultisig",
      "outputs": [
        {
          "internalType": "address",
          "name": "",
          "type": "address"
        }
      ],
      "stateMutability": "view",
      "type": "function",
      "constant": true
    },
    {
      "inputs": [],
      "name": "ens",
      "outputs": [
        {
          "internalType": "contract ENSRegistry",
          "name": "",
          "type": "address"
        }
      ],
      "stateMutability": "view",
      "type": "function",
      "constant": true
    },
    {
      "inputs": [],
      "name": "isContractNodeOwner",
      "outputs": [
        {
          "internalType": "bool",
          "name": "",
          "type": "bool"
        }
      ],
      "stateMutability": "view",
      "type": "function",
      "constant": true
    },
    {
      "inputs": [],
      "name": "isNodeTLDOfRegistrar",
      "outputs": [
        {
          "internalType": "bool",
          "name": "",
          "type": "bool"
        }
      ],
      "stateMutability": "view",
      "type": "function",
      "constant": true
    },
    {
      "inputs": [],
      "name": "isSenderEmergencyMultisig",
      "outputs": [
        {
          "internalType": "bool",
          "name": "",
          "type": "bool"
        }
      ],
      "stateMutability": "view",
      "type": "function",
      "constant": true
    },
    {
      "inputs": [],
      "name": "isSenderOriginalOwner",
      "outputs": [
        {
          "internalType": "bool",
          "name": "",
          "type": "bool"
        }
      ],
      "stateMutability": "view",
      "type": "function",
      "constant": true
    },
    {
      "inputs": [],
      "name": "offering",
      "outputs": [
        {
          "internalType": "bytes32",
          "name": "node",
          "type": "bytes32"
        },
        {
          "internalType": "string",
          "name": "name",
          "type": "string"
        },
        {
          "internalType": "bytes32",
          "name": "labelHash",
          "type": "bytes32"
        },
        {
          "internalType": "address payable",
          "name": "originalOwner",
          "type": "address"
        },
        {
          "internalType": "address",
          "name": "newOwner",
          "type": "address"
        },
        {
          "internalType": "uint256",
          "name": "price",
          "type": "uint256"
        },
        {
          "internalType": "uint128",
          "name": "version",
          "type": "uint128"
        },
        {
          "internalType": "uint64",
          "name": "createdOn",
          "type": "uint64"
        },
        {
          "internalType": "uint64",
          "name": "finalizedOn",
          "type": "uint64"
        }
      ],
      "stateMutability": "view",
      "type": "function",
      "constant": true
    },
    {
      "inputs": [],
      "name": "offeringRegistry",
      "outputs": [
        {
          "internalType": "contract OfferingRegistry",
          "name": "",
          "type": "address"
        }
      ],
      "stateMutability": "view",
      "type": "function",
      "constant": true
    },
    {
      "inputs": [],
      "name": "rootNode",
      "outputs": [
        {
          "internalType": "bytes32",
          "name": "",
          "type": "bytes32"
        }
      ],
      "stateMutability": "view",
      "type": "function",
      "constant": true
    },
    {
      "inputs": [],
      "name": "unregister",
      "outputs": [],
      "stateMutability": "nonpayable",
      "type": "function"
    },
    {
      "inputs": [],
      "name": "wasEmergencyCancelled",
      "outputs": [
        {
          "internalType": "bool",
          "name": "",
          "type": "bool"
        }
      ],
      "stateMutability": "view",
      "type": "function",
      "constant": true
    },
    {
      "stateMutability": "payable",
      "type": "receive",
      "payable": true
    },
    {
      "inputs": [
        {
          "internalType": "bytes32",
          "name": "_node",
          "type": "bytes32"
        },
        {
          "internalType": "string",
          "name": "_name",
          "type": "string"
        },
        {
          "internalType": "bytes32",
          "name": "_labelHash",
          "type": "bytes32"
        },
        {
          "internalType": "address payable",
          "name": "_originalOwner",
          "type": "address"
        },
        {
          "internalType": "uint128",
          "name": "_version",
          "type": "uint128"
        },
        {
          "internalType": "uint256",
          "name": "_price",
          "type": "uint256"
        },
        {
          "internalType": "uint64",
          "name": "_endTime",
          "type": "uint64"
        },
        {
          "internalType": "uint64",
          "name": "_extensionDuration",
          "type": "uint64"
        },
        {
          "internalType": "uint256",
          "name": "_minBidIncrease",
          "type": "uint256"
        }
      ],
      "name": "construct",
      "outputs": [],
      "stateMutability": "nonpayable",
      "type": "function"
    },
    {
      "inputs": [
        {
          "internalType": "bytes32",
          "name": "_node",
          "type": "bytes32"
        },
        {
          "internalType": "string",
          "name": "_name",
          "type": "string"
        },
        {
          "internalType": "bytes32",
          "name": "_labelHash",
          "type": "bytes32"
        },
        {
          "internalType": "address payable",
          "name": "_originalOwner",
          "type": "address"
        },
        {
          "internalType": "uint128",
          "name": "_version",
          "type": "uint128"
        },
        {
          "internalType": "uint256",
          "name": "_price",
          "type": "uint256"
        }
      ],
      "name": "construct",
      "outputs": [],
      "stateMutability": "nonpayable",
      "type": "function"
    },
    {
      "inputs": [],
      "name": "bid",
      "outputs": [],
      "stateMutability": "payable",
      "type": "function",
      "payable": true
    },
    {
      "inputs": [
        {
          "internalType": "address payable",
          "name": "_address",
          "type": "address"
        }
      ],
      "name": "withdraw",
      "outputs": [],
      "stateMutability": "nonpayable",
      "type": "function"
    },
    {
      "inputs": [],
      "name": "finalize",
      "outputs": [],
      "stateMutability": "nonpayable",
      "type": "function"
    },
    {
      "inputs": [],
      "name": "reclaimOwnership",
      "outputs": [],
      "stateMutability": "nonpayable",
      "type": "function"
    },
    {
      "inputs": [
        {
          "internalType": "uint256",
          "name": "_startPrice",
          "type": "uint256"
        },
        {
          "internalType": "uint64",
          "name": "_endTime",
          "type": "uint64"
        },
        {
          "internalType": "uint64",
          "name": "_extensionDuration",
          "type": "uint64"
        },
        {
          "internalType": "uint256",
          "name": "_minBidIncrease",
          "type": "uint256"
        }
      ],
      "name": "setSettings",
      "outputs": [],
      "stateMutability": "nonpayable",
      "type": "function"
    },
    {
      "inputs": [],
      "name": "hasNoBids",
      "outputs": [
        {
          "internalType": "bool",
          "name": "",
          "type": "bool"
        }
      ],
      "stateMutability": "view",
      "type": "function",
      "constant": true
    },
    {
      "inputs": [
        {
          "internalType": "address",
          "name": "bidder",
          "type": "address"
        }
      ],
      "name": "pendingReturns",
      "outputs": [
        {
          "internalType": "uint256",
          "name": "",
          "type": "uint256"
        }
      ],
      "stateMutability": "view",
      "type": "function",
      "constant": true
    }
  ],
  "bytecode": "0x608060405234801561001057600080fd5b506130c4806100206000396000f3fe60806040526004361061012e5760003560e01c80636741629c116100ab578063c1c8277f1161006f578063c1c8277f146103a8578063cc0f73b1146103bf578063d1dbcd70146103ea578063dc6af75814610415578063e79a198f14610440578063faff50a8146104575761013d565b80636741629c146102c75780637b17abdb146102f257806382425d7c14610321578063a1e4f73d1461034c578063b266cb01146103755761013d565b80634419cd81116100f25780634419cd81146102085780634bb278f31461023357806351cff8d91461024a5780635753a6b21461027357806363862fd51461029c5761013d565b80631998aeef1461014257806326b387bb1461014c57806329ae4c70146101895780633c1b87f9146101b45780633f15457f146101dd5761013d565b3661013d5761013b610482565b005b600080fd5b61014a610482565b005b34801561015857600080fd5b50610173600480360381019061016e9190612419565b610a9b565b6040516101809190612a55565b60405180910390f35b34801561019557600080fd5b5061019e610ae7565b6040516101ab91906128ee565b60405180910390f35b3480156101c057600080fd5b506101db60048036038101906101d6919061266a565b610b31565b005b3480156101e957600080fd5b506101f2610b96565b6040516101ff91906129e1565b60405180910390f35b34801561021457600080fd5b5061021d610bae565b60405161022a91906128ee565b60405180910390f35b34801561023f57600080fd5b50610248610e22565b005b34801561025657600080fd5b50610271600480360381019061026c919061246b565b611181565b005b34801561027f57600080fd5b5061029a600480360381019061029591906124e6565b6112d5565b005b3480156102a857600080fd5b506102b161133e565b6040516102be91906128ee565b60405180910390f35b3480156102d357600080fd5b506102dc611398565b6040516102e991906128ee565b60405180910390f35b3480156102fe57600080fd5b506103076113f5565b604051610318959493929190612a99565b60405180910390f35b34801561032d57600080fd5b5061033661147d565b60405161034391906128ee565b60405180910390f35b34801561035857600080fd5b50610373600480360381019061036e91906125c9565b6114d8565b005b34801561038157600080fd5b5061038a61168e565b60405161039f9998979695949392919061294d565b60405180910390f35b3480156103b457600080fd5b506103bd6117d6565b005b3480156103cb57600080fd5b506103d4611895565b6040516103e191906129fc565b60405180910390f35b3480156103f657600080fd5b506103ff6118ad565b60405161040c91906128ee565b60405180910390f35b34801561042157600080fd5b5061042a61190b565b604051610437919061289c565b60405180910390f35b34801561044c57600080fd5b50610455611923565b005b34801561046357600080fd5b5061046c611a17565b6040516104799190612909565b60405180910390f35b73D10a7051f12b60fd7728bc8E867883E01e6Db3Cb73ffffffffffffffffffffffffffffffffffffffff1663290d10c46040518163ffffffff1660e01b815260040160206040518083038186803b1580156104dc57600080fd5b505afa1580156104f0573d6000803e3d6000fd5b505050506040513d601f19601f8201168201806040525081019061051491906124bd565b1561051e57600080fd5b610526610bae565b61052f57600080fd5b600760000160009054906101000a900467ffffffffffffffff1667ffffffffffffffff16421061055e57600080fd5b600073ffffffffffffffffffffffffffffffffffffffff16600760020160009054906101000a900473ffffffffffffffffffffffffffffffffffffffff1673ffffffffffffffffffffffffffffffffffffffff1614156105cf576000600501543410156105ca57600080fd5b6107ac565b6007600101546000600501546105e59190612bdd565b3410156105f157600080fd5b6000806005015460076003016000600760020160009054906101000a900473ffffffffffffffffffffffffffffffffffffffff1673ffffffffffffffffffffffffffffffffffffffff1673ffffffffffffffffffffffffffffffffffffffff1681526020019081526020016000205461066a9190612bdd565b9050600760020160009054906101000a900473ffffffffffffffffffffffffffffffffffffffff1673ffffffffffffffffffffffffffffffffffffffff166108fc829081150290604051600060405180830381858888f193505050501561073d57600060076003016000600760020160009054906101000a900473ffffffffffffffffffffffffffffffffffffffff1673ffffffffffffffffffffffffffffffffffffffff1673ffffffffffffffffffffffffffffffffffffffff168152602001908152602001600020819055506107aa565b8060076003016000600760020160009054906101000a900473ffffffffffffffffffffffffffffffffffffffff1673ffffffffffffffffffffffffffffffffffffffff1673ffffffffffffffffffffffffffffffffffffffff168152602001908152602001600020819055505b505b33600760020160006101000a81548173ffffffffffffffffffffffffffffffffffffffff021916908373ffffffffffffffffffffffffffffffffffffffff1602179055506001600760000160108282829054906101000a90046fffffffffffffffffffffffffffffffff166108219190612b97565b92506101000a8154816fffffffffffffffffffffffffffffffff02191690836fffffffffffffffffffffffffffffffff1602179055503460006005018190555042600760000160089054906101000a900467ffffffffffffffff16600760000160009054906101000a900467ffffffffffffffff166108a09190612cf2565b67ffffffffffffffff161161090a57600760000160089054906101000a900467ffffffffffffffff1667ffffffffffffffff16426108de9190612bdd565b600760000160006101000a81548167ffffffffffffffff021916908367ffffffffffffffff1602179055505b6000600367ffffffffffffffff81111561094d577f4e487b7100000000000000000000000000000000000000000000000000000000600052604160045260246000fd5b60405190808252806020026020018201604052801561097b5781602001602082028036833780820191505090505b5090503373ffffffffffffffffffffffffffffffffffffffff16816000815181106109cf577f4e487b7100000000000000000000000000000000000000000000000000000000600052603260045260246000fd5b60200260200101818152505060006005015481600181518110610a1b577f4e487b7100000000000000000000000000000000000000000000000000000000600052603260045260246000fd5b6020026020010181815250504281600281518110610a62577f4e487b7100000000000000000000000000000000000000000000000000000000600052603260045260246000fd5b602002602001018181525050610a987f626964000000000000000000000000000000000000000000000000000000000082611a3e565b50565b6000600760030160008373ffffffffffffffffffffffffffffffffffffffff1673ffffffffffffffffffffffffffffffffffffffff168152602001908152602001600020549050919050565b600073F38fbEe6dD934BeCabDA5a8a74089689648429d973ffffffffffffffffffffffffffffffffffffffff163373ffffffffffffffffffffffffffffffffffffffff1614905090565b610b3961133e565b610b4257600080fd5b610b4a61147d565b610b5357600080fd5b610b5c84611ae6565b610b67838383611af3565b610b907f73657453657474696e6773000000000000000000000000000000000000000000611bce565b50505050565b73d567d7C66a32b3475Df764D11e6556e0D2b547c581565b6000610bb86118ad565b15610d4d576000806002015460001c9050600073d567d7C66a32b3475Df764D11e6556e0D2b547c573ffffffffffffffffffffffffffffffffffffffff166302571be37f93cdeb708b7545dc668eb9280176169d1c33cfd8ed6f04690a0bcc88a93fc4ae60001b6040518263ffffffff1660e01b8152600401610c3b9190612909565b60206040518083038186803b158015610c5357600080fd5b505afa158015610c67573d6000803e3d6000fd5b505050506040513d601f19601f82011682018060405250810190610c8b9190612442565b73ffffffffffffffffffffffffffffffffffffffff16636352211e836040518263ffffffff1660e01b8152600401610cc39190612a55565b60206040518083038186803b158015610cdb57600080fd5b505afa158015610cef573d6000803e3d6000fd5b505050506040513d601f19601f82011682018060405250810190610d139190612442565b90503073ffffffffffffffffffffffffffffffffffffffff168173ffffffffffffffffffffffffffffffffffffffff161492505050610e1f565b3073ffffffffffffffffffffffffffffffffffffffff1673d567d7C66a32b3475Df764D11e6556e0D2b547c573ffffffffffffffffffffffffffffffffffffffff166302571be360008001546040518263ffffffff1660e01b8152600401610db59190612909565b60206040518083038186803b158015610dcd57600080fd5b505afa158015610de1573d6000803e3d6000fd5b505050506040513d601f19601f82011682018060405250810190610e059190612442565b73ffffffffffffffffffffffffffffffffffffffff161490505b90565b600760000160009054906101000a900467ffffffffffffffff1667ffffffffffffffff164211610e5157600080fd5b610e5961147d565b15610e6357600080fd5b610e91600760020160009054906101000a900473ffffffffffffffffffffffffffffffffffffffff16611c4a565b6000620f424073D10a7051f12b60fd7728bc8E867883E01e6Db3Cb73ffffffffffffffffffffffffffffffffffffffff16636aa4716e6040518163ffffffff1660e01b815260040160206040518083038186803b158015610ef157600080fd5b505afa158015610f05573d6000803e3d6000fd5b505050506040513d601f19601f82011682018060405250810190610f2991906126cd565b63ffffffff16600060050154610f3f9190612c64565b610f499190612c33565b905073D10a7051f12b60fd7728bc8E867883E01e6Db3Cb73ffffffffffffffffffffffffffffffffffffffff1663dc6af7586040518163ffffffff1660e01b815260040160206040518083038186803b158015610fa557600080fd5b505afa158015610fb9573d6000803e3d6000fd5b505050506040513d601f19601f82011682018060405250810190610fdd9190612494565b73ffffffffffffffffffffffffffffffffffffffff166108fc829081150290604051600060405180830381858888f19350505050158015611022573d6000803e3d6000fd5b50600060030160009054906101000a900473ffffffffffffffffffffffffffffffffffffffff1673ffffffffffffffffffffffffffffffffffffffff166108fc826000600501546110739190612cbe565b9081150290604051600060405180830381858888f1935050505061117e5780600060050154600760030160008060030160009054906101000a900473ffffffffffffffffffffffffffffffffffffffff1673ffffffffffffffffffffffffffffffffffffffff1673ffffffffffffffffffffffffffffffffffffffff168152602001908152602001600020546111099190612bdd565b6111139190612cbe565b600760030160008060030160009054906101000a900473ffffffffffffffffffffffffffffffffffffffff1673ffffffffffffffffffffffffffffffffffffffff1673ffffffffffffffffffffffffffffffffffffffff168152602001908152602001600020819055505b50565b8073ffffffffffffffffffffffffffffffffffffffff163373ffffffffffffffffffffffffffffffffffffffff1614806111bf57506111be610ae7565b5b6111c857600080fd5b6000600760030160008373ffffffffffffffffffffffffffffffffffffffff1673ffffffffffffffffffffffffffffffffffffffff16815260200190815260200160002054905060008111156112d1576000600760030160008473ffffffffffffffffffffffffffffffffffffffff1673ffffffffffffffffffffffffffffffffffffffff168152602001908152602001600020819055508173ffffffffffffffffffffffffffffffffffffffff166108fc829081150290604051600060405180830381858888f193505050501580156112a6573d6000803e3d6000fd5b506112d07f7769746864726177000000000000000000000000000000000000000000000000611bce565b5b5050565b6113278a8a8a8080601f016020809104026020016040519081016040528093929190818152602001838380828437600081840152601f19601f82011690508083019250505050505050898989896114d8565b611332838383611af3565b50505050505050505050565b60008060030160009054906101000a900473ffffffffffffffffffffffffffffffffffffffff1673ffffffffffffffffffffffffffffffffffffffff163373ffffffffffffffffffffffffffffffffffffffff1614905090565b600061dead73ffffffffffffffffffffffffffffffffffffffff16600060040160009054906101000a900473ffffffffffffffffffffffffffffffffffffffff1673ffffffffffffffffffffffffffffffffffffffff1614905090565b60078060000160009054906101000a900467ffffffffffffffff16908060000160089054906101000a900467ffffffffffffffff16908060000160109054906101000a90046fffffffffffffffffffffffffffffffff16908060010154908060020160009054906101000a900473ffffffffffffffffffffffffffffffffffffffff16905085565b60008073ffffffffffffffffffffffffffffffffffffffff16600760020160009054906101000a900473ffffffffffffffffffffffffffffffffffffffff1673ffffffffffffffffffffffffffffffffffffffff1614905090565b73D10a7051f12b60fd7728bc8E867883E01e6Db3Cb73ffffffffffffffffffffffffffffffffffffffff1663290d10c46040518163ffffffff1660e01b815260040160206040518083038186803b15801561153257600080fd5b505afa158015611546573d6000803e3d6000fd5b505050506040513d601f19601f8201168201806040525081019061156a91906124bd565b1561157457600080fd5b60008060060160109054906101000a900467ffffffffffffffff1667ffffffffffffffff16146115a357600080fd5b85600080018190555084600060010190805190602001906115c59291906121f2565b508360006002018190555082600060030160006101000a81548173ffffffffffffffffffffffffffffffffffffffff021916908373ffffffffffffffffffffffffffffffffffffffff16021790555081600060060160006101000a8154816fffffffffffffffffffffffffffffffff02191690836fffffffffffffffffffffffffffffffff16021790555042600060060160106101000a81548167ffffffffffffffff021916908367ffffffffffffffff16021790555080600060050181905550505050505050565b60008060000154908060010180546116a590612e9c565b80601f01602080910402602001604051908101604052809291908181526020018280546116d190612e9c565b801561171e5780601f106116f35761010080835404028352916020019161171e565b820191906000526020600020905b81548152906001019060200180831161170157829003601f168201915b5050505050908060020154908060030160009054906101000a900473ffffffffffffffffffffffffffffffffffffffff16908060040160009054906101000a900473ffffffffffffffffffffffffffffffffffffffff16908060050154908060060160009054906101000a90046fffffffffffffffffffffffffffffffff16908060060160109054906101000a900467ffffffffffffffff16908060060160189054906101000a900467ffffffffffffffff16905089565b6117de610ae7565b15611879576117eb61147d565b1580156117fd57506117fb611398565b155b156118745760006005015460076003016000600760020160009054906101000a900473ffffffffffffffffffffffffffffffffffffffff1673ffffffffffffffffffffffffffffffffffffffff1673ffffffffffffffffffffffffffffffffffffffff168152602001908152602001600020819055505b61188b565b61188161147d565b61188a57600080fd5b5b611893611de9565b565b73D10a7051f12b60fd7728bc8E867883E01e6Db3Cb81565b60007f93cdeb708b7545dc668eb9280176169d1c33cfd8ed6f04690a0bcc88a93fc4ae60001b6000600201546040516020016118ea929190612870565b60405160208183030381529060405280519060200120600080015414905090565b73F38fbEe6dD934BeCabDA5a8a74089689648429d981565b61192b61133e565b61193457600080fd5b600073ffffffffffffffffffffffffffffffffffffffff16600060040160009054906101000a900473ffffffffffffffffffffffffffffffffffffffff1673ffffffffffffffffffffffffffffffffffffffff161461199257600080fd5b61199a610bae565b156119a457600080fd5b63deaddead600060040160006101000a81548173ffffffffffffffffffffffffffffffffffffffff021916908373ffffffffffffffffffffffffffffffffffffffff160217905550611a157f756e726567697374657200000000000000000000000000000000000000000000611bce565b565b7f93cdeb708b7545dc668eb9280176169d1c33cfd8ed6f04690a0bcc88a93fc4ae60001b81565b73D10a7051f12b60fd7728bc8E867883E01e6Db3Cb73ffffffffffffffffffffffffffffffffffffffff1663bf8554ff600060060160009054906101000a90046fffffffffffffffffffffffffffffffff1684846040518463ffffffff1660e01b8152600401611ab093929190612a17565b600060405180830381600087803b158015611aca57600080fd5b505af1158015611ade573d6000803e3d6000fd5b505050505050565b8060006005018190555050565b629e340042611b029190612bdd565b8367ffffffffffffffff161115611b1857600080fd5b428367ffffffffffffffff16611b2e9190612cbe565b8267ffffffffffffffff161115611b4457600080fd5b428367ffffffffffffffff1611611b5a57600080fd5b82600760000160006101000a81548167ffffffffffffffff021916908367ffffffffffffffff16021790555081600760000160086101000a81548167ffffffffffffffff021916908367ffffffffffffffff16021790555060008111611bbf57600080fd5b80600760010181905550505050565b611c4781600067ffffffffffffffff811115611c13577f4e487b7100000000000000000000000000000000000000000000000000000000600052604160045260246000fd5b604051908082528060200260200182016040528015611c415781602001602082028036833780820191505090505b50611a3e565b50565b73D10a7051f12b60fd7728bc8E867883E01e6Db3Cb73ffffffffffffffffffffffffffffffffffffffff1663290d10c46040518163ffffffff1660e01b815260040160206040518083038186803b158015611ca457600080fd5b505afa158015611cb8573d6000803e3d6000fd5b505050506040513d601f19601f82011682018060405250810190611cdc91906124bd565b15611ce657600080fd5b600073ffffffffffffffffffffffffffffffffffffffff16600060040160009054906101000a900473ffffffffffffffffffffffffffffffffffffffff1673ffffffffffffffffffffffffffffffffffffffff1614611d4457600080fd5b80600060040160006101000a81548173ffffffffffffffffffffffffffffffffffffffff021916908373ffffffffffffffffffffffffffffffffffffffff16021790555042600060060160186101000a81548167ffffffffffffffff021916908367ffffffffffffffff160217905550611dbd81611f21565b611de67f66696e616c697a65000000000000000000000000000000000000000000000000611bce565b50565b600073ffffffffffffffffffffffffffffffffffffffff16600060040160009054906101000a900473ffffffffffffffffffffffffffffffffffffffff1673ffffffffffffffffffffffffffffffffffffffff1614611e4757600080fd5b6000611e51610ae7565b90508080611e635750611e6261133e565b5b611e6c57600080fd5b611e74610bae565b15611ea857611ea7600060030160009054906101000a900473ffffffffffffffffffffffffffffffffffffffff16611f21565b5b8015611ef55761dead600060040160006101000a81548173ffffffffffffffffffffffffffffffffffffffff021916908373ffffffffffffffffffffffffffffffffffffffff1602179055505b611f1e7f7265636c61696d4f776e65727368697000000000000000000000000000000000611bce565b50565b611f296118ad565b15612169576000806002015460001c9050600073d567d7C66a32b3475Df764D11e6556e0D2b547c573ffffffffffffffffffffffffffffffffffffffff166302571be37f93cdeb708b7545dc668eb9280176169d1c33cfd8ed6f04690a0bcc88a93fc4ae60001b6040518263ffffffff1660e01b8152600401611fac9190612909565b60206040518083038186803b158015611fc457600080fd5b505afa158015611fd8573d6000803e3d6000fd5b505050506040513d601f19601f82011682018060405250810190611ffc9190612442565b90508073ffffffffffffffffffffffffffffffffffffffff166328ed4f6c83856040518363ffffffff1660e01b8152600401612039929190612a70565b600060405180830381600087803b15801561205357600080fd5b505af1158015612067573d6000803e3d6000fd5b505050508073ffffffffffffffffffffffffffffffffffffffff166323b872dd8273ffffffffffffffffffffffffffffffffffffffff16636352211e856040518263ffffffff1660e01b81526004016120c09190612a55565b60206040518083038186803b1580156120d857600080fd5b505afa1580156120ec573d6000803e3d6000fd5b505050506040513d601f19601f820116820180604052508101906121109190612442565b85856040518463ffffffff1660e01b8152600401612130939291906128b7565b600060405180830381600087803b15801561214a57600080fd5b505af115801561215e573d6000803e3d6000fd5b5050505050506121ef565b73d567d7C66a32b3475Df764D11e6556e0D2b547c573ffffffffffffffffffffffffffffffffffffffff16635b0fc9c36000800154836040518363ffffffff1660e01b81526004016121bc929190612924565b600060405180830381600087803b1580156121d657600080fd5b505af11580156121ea573d6000803e3d6000fd5b505050505b50565b8280546121fe90612e9c565b90600052602060002090601f0160209004810192826122205760008555612267565b82601f1061223957805160ff1916838001178555612267565b82800160010185558215612267579182015b8281111561226657825182559160200191906001019061224b565b5b5090506122749190612278565b5090565b5b80821115612291576000816000905550600101612279565b5090565b60006122a86122a384612b11565b612aec565b9050828152602081018484840111156122c057600080fd5b6122cb848285612e5a565b509392505050565b6000813590506122e281612fd6565b92915050565b6000815190506122f781612fd6565b92915050565b60008135905061230c81612fed565b92915050565b60008151905061232181612fed565b92915050565b60008151905061233681613004565b92915050565b60008135905061234b8161301b565b92915050565b60008083601f84011261236357600080fd5b8235905067ffffffffffffffff81111561237c57600080fd5b60208301915083600182028301111561239457600080fd5b9250929050565b600082601f8301126123ac57600080fd5b81356123bc848260208601612295565b91505092915050565b6000813590506123d481613032565b92915050565b6000813590506123e981613049565b92915050565b6000815190506123fe81613060565b92915050565b60008135905061241381613077565b92915050565b60006020828403121561242b57600080fd5b6000612439848285016122d3565b91505092915050565b60006020828403121561245457600080fd5b6000612462848285016122e8565b91505092915050565b60006020828403121561247d57600080fd5b600061248b848285016122fd565b91505092915050565b6000602082840312156124a657600080fd5b60006124b484828501612312565b91505092915050565b6000602082840312156124cf57600080fd5b60006124dd84828501612327565b91505092915050565b6000806000806000806000806000806101208b8d03121561250657600080fd5b60006125148d828e0161233c565b9a505060208b013567ffffffffffffffff81111561253157600080fd5b61253d8d828e01612351565b995099505060406125508d828e0161233c565b97505060606125618d828e016122fd565b96505060806125728d828e016123c5565b95505060a06125838d828e016123da565b94505060c06125948d828e01612404565b93505060e06125a58d828e01612404565b9250506101006125b78d828e016123da565b9150509295989b9194979a5092959850565b60008060008060008060c087890312156125e257600080fd5b60006125f089828a0161233c565b965050602087013567ffffffffffffffff81111561260d57600080fd5b61261989828a0161239b565b955050604061262a89828a0161233c565b945050606061263b89828a016122fd565b935050608061264c89828a016123c5565b92505060a061265d89828a016123da565b9150509295509295509295565b6000806000806080858703121561268057600080fd5b600061268e878288016123da565b945050602061269f87828801612404565b93505060406126b087828801612404565b92505060606126c1878288016123da565b91505092959194509250565b6000602082840312156126df57600080fd5b60006126ed848285016123ef565b91505092915050565b60006127028383612843565b60208301905092915050565b61271781612dca565b82525050565b61272681612d38565b82525050565b61273581612d26565b82525050565b600061274682612b52565b6127508185612b75565b935061275b83612b42565b8060005b8381101561278c57815161277388826126f6565b975061277e83612b68565b92505060018101905061275f565b5085935050505092915050565b6127a281612d4a565b82525050565b6127b181612d56565b82525050565b6127c86127c382612d56565b612eff565b82525050565b6127d781612ddc565b82525050565b6127e681612e00565b82525050565b60006127f782612b5d565b6128018185612b86565b9350612811818560208601612e69565b61281a81612fc5565b840191505092915050565b61282e81612d60565b82525050565b61283d81612e24565b82525050565b61284c81612d9c565b82525050565b61285b81612d9c565b82525050565b61286a81612db6565b82525050565b600061287c82856127b7565b60208201915061288c82846127b7565b6020820191508190509392505050565b60006020820190506128b1600083018461272c565b92915050565b60006060820190506128cc600083018661272c565b6128d9602083018561270e565b6128e66040830184612852565b949350505050565b60006020820190506129036000830184612799565b92915050565b600060208201905061291e60008301846127a8565b92915050565b600060408201905061293960008301856127a8565b612946602083018461270e565b9392505050565b600061012082019050612963600083018c6127a8565b8181036020830152612975818b6127ec565b9050612984604083018a6127a8565b612991606083018961271d565b61299e608083018861272c565b6129ab60a0830187612852565b6129b860c0830186612825565b6129c560e0830185612861565b6129d3610100830184612861565b9a9950505050505050505050565b60006020820190506129f660008301846127ce565b92915050565b6000602082019050612a1160008301846127dd565b92915050565b6000606082019050612a2c6000830186612834565b612a3960208301856127a8565b8181036040830152612a4b818461273b565b9050949350505050565b6000602082019050612a6a6000830184612852565b92915050565b6000604082019050612a856000830185612852565b612a92602083018461270e565b9392505050565b600060a082019050612aae6000830188612861565b612abb6020830187612861565b612ac86040830186612825565b612ad56060830185612852565b612ae2608083018461271d565b9695505050505050565b6000612af6612b07565b9050612b028282612ece565b919050565b6000604051905090565b600067ffffffffffffffff821115612b2c57612b2b612f96565b5b612b3582612fc5565b9050602081019050919050565b6000819050602082019050919050565b600081519050919050565b600081519050919050565b6000602082019050919050565b600082825260208201905092915050565b600082825260208201905092915050565b6000612ba282612d60565b9150612bad83612d60565b9250826fffffffffffffffffffffffffffffffff03821115612bd257612bd1612f09565b5b828201905092915050565b6000612be882612d9c565b9150612bf383612d9c565b9250827fffffffffffffffffffffffffffffffffffffffffffffffffffffffffffffffff03821115612c2857612c27612f09565b5b828201905092915050565b6000612c3e82612d9c565b9150612c4983612d9c565b925082612c5957612c58612f38565b5b828204905092915050565b6000612c6f82612d9c565b9150612c7a83612d9c565b9250817fffffffffffffffffffffffffffffffffffffffffffffffffffffffffffffffff0483118215151615612cb357612cb2612f09565b5b828202905092915050565b6000612cc982612d9c565b9150612cd483612d9c565b925082821015612ce757612ce6612f09565b5b828203905092915050565b6000612cfd82612db6565b9150612d0883612db6565b925082821015612d1b57612d1a612f09565b5b828203905092915050565b6000612d3182612d7c565b9050919050565b6000612d4382612d7c565b9050919050565b60008115159050919050565b6000819050919050565b60006fffffffffffffffffffffffffffffffff82169050919050565b600073ffffffffffffffffffffffffffffffffffffffff82169050919050565b6000819050919050565b600063ffffffff82169050919050565b600067ffffffffffffffff82169050919050565b6000612dd582612e36565b9050919050565b6000612de782612dee565b9050919050565b6000612df982612d7c565b9050919050565b6000612e0b82612e12565b9050919050565b6000612e1d82612d7c565b9050919050565b6000612e2f82612d60565b9050919050565b6000612e4182612e48565b9050919050565b6000612e5382612d7c565b9050919050565b82818337600083830152505050565b60005b83811015612e87578082015181840152602081019050612e6c565b83811115612e96576000848401525b50505050565b60006002820490506001821680612eb457607f821691505b60208210811415612ec857612ec7612f67565b5b50919050565b612ed782612fc5565b810181811067ffffffffffffffff82111715612ef657612ef5612f96565b5b80604052505050565b6000819050919050565b7f4e487b7100000000000000000000000000000000000000000000000000000000600052601160045260246000fd5b7f4e487b7100000000000000000000000000000000000000000000000000000000600052601260045260246000fd5b7f4e487b7100000000000000000000000000000000000000000000000000000000600052602260045260246000fd5b7f4e487b7100000000000000000000000000000000000000000000000000000000600052604160045260246000fd5b6000601f19601f8301169050919050565b612fdf81612d26565b8114612fea57600080fd5b50565b612ff681612d38565b811461300157600080fd5b50565b61300d81612d4a565b811461301857600080fd5b50565b61302481612d56565b811461302f57600080fd5b50565b61303b81612d60565b811461304657600080fd5b50565b61305281612d9c565b811461305d57600080fd5b50565b61306981612da6565b811461307457600080fd5b50565b61308081612db6565b811461308b57600080fd5b5056fea26469706673582212207571b996b8911b89941f97438bcd32ac24d3b45ff9097d4645adc80c31cb012b64736f6c63430008040033",
  "deployedBytecode": "0x60806040526004361061012e5760003560e01c80636741629c116100ab578063c1c8277f1161006f578063c1c8277f146103a8578063cc0f73b1146103bf578063d1dbcd70146103ea578063dc6af75814610415578063e79a198f14610440578063faff50a8146104575761013d565b80636741629c146102c75780637b17abdb146102f257806382425d7c14610321578063a1e4f73d1461034c578063b266cb01146103755761013d565b80634419cd81116100f25780634419cd81146102085780634bb278f31461023357806351cff8d91461024a5780635753a6b21461027357806363862fd51461029c5761013d565b80631998aeef1461014257806326b387bb1461014c57806329ae4c70146101895780633c1b87f9146101b45780633f15457f146101dd5761013d565b3661013d5761013b610482565b005b600080fd5b61014a610482565b005b34801561015857600080fd5b50610173600480360381019061016e9190612419565b610a9b565b6040516101809190612a55565b60405180910390f35b34801561019557600080fd5b5061019e610ae7565b6040516101ab91906128ee565b60405180910390f35b3480156101c057600080fd5b506101db60048036038101906101d6919061266a565b610b31565b005b3480156101e957600080fd5b506101f2610b96565b6040516101ff91906129e1565b60405180910390f35b34801561021457600080fd5b5061021d610bae565b60405161022a91906128ee565b60405180910390f35b34801561023f57600080fd5b50610248610e22565b005b34801561025657600080fd5b50610271600480360381019061026c919061246b565b611181565b005b34801561027f57600080fd5b5061029a600480360381019061029591906124e6565b6112d5565b005b3480156102a857600080fd5b506102b161133e565b6040516102be91906128ee565b60405180910390f35b3480156102d357600080fd5b506102dc611398565b6040516102e991906128ee565b60405180910390f35b3480156102fe57600080fd5b506103076113f5565b604051610318959493929190612a99565b60405180910390f35b34801561032d57600080fd5b5061033661147d565b60405161034391906128ee565b60405180910390f35b34801561035857600080fd5b50610373600480360381019061036e91906125c9565b6114d8565b005b34801561038157600080fd5b5061038a61168e565b60405161039f9998979695949392919061294d565b60405180910390f35b3480156103b457600080fd5b506103bd6117d6565b005b3480156103cb57600080fd5b506103d4611895565b6040516103e191906129fc565b60405180910390f35b3480156103f657600080fd5b506103ff6118ad565b60405161040c91906128ee565b60405180910390f35b34801561042157600080fd5b5061042a61190b565b604051610437919061289c565b60405180910390f35b34801561044c57600080fd5b50610455611923565b005b34801561046357600080fd5b5061046c611a17565b6040516104799190612909565b60405180910390f35b73feedfeedfeedfeedfeedfeedfeedfeedfeedfeed73ffffffffffffffffffffffffffffffffffffffff1663290d10c46040518163ffffffff1660e01b815260040160206040518083038186803b1580156104dc57600080fd5b505afa1580156104f0573d6000803e3d6000fd5b505050506040513d601f19601f8201168201806040525081019061051491906124bd565b1561051e57600080fd5b610526610bae565b61052f57600080fd5b600760000160009054906101000a900467ffffffffffffffff1667ffffffffffffffff16421061055e57600080fd5b600073ffffffffffffffffffffffffffffffffffffffff16600760020160009054906101000a900473ffffffffffffffffffffffffffffffffffffffff1673ffffffffffffffffffffffffffffffffffffffff1614156105cf576000600501543410156105ca57600080fd5b6107ac565b6007600101546000600501546105e59190612bdd565b3410156105f157600080fd5b6000806005015460076003016000600760020160009054906101000a900473ffffffffffffffffffffffffffffffffffffffff1673ffffffffffffffffffffffffffffffffffffffff1673ffffffffffffffffffffffffffffffffffffffff1681526020019081526020016000205461066a9190612bdd565b9050600760020160009054906101000a900473ffffffffffffffffffffffffffffffffffffffff1673ffffffffffffffffffffffffffffffffffffffff166108fc829081150290604051600060405180830381858888f193505050501561073d57600060076003016000600760020160009054906101000a900473ffffffffffffffffffffffffffffffffffffffff1673ffffffffffffffffffffffffffffffffffffffff1673ffffffffffffffffffffffffffffffffffffffff168152602001908152602001600020819055506107aa565b8060076003016000600760020160009054906101000a900473ffffffffffffffffffffffffffffffffffffffff1673ffffffffffffffffffffffffffffffffffffffff1673ffffffffffffffffffffffffffffffffffffffff168152602001908152602001600020819055505b505b33600760020160006101000a81548173ffffffffffffffffffffffffffffffffffffffff021916908373ffffffffffffffffffffffffffffffffffffffff1602179055506001600760000160108282829054906101000a90046fffffffffffffffffffffffffffffffff166108219190612b97565b92506101000a8154816fffffffffffffffffffffffffffffffff02191690836fffffffffffffffffffffffffffffffff1602179055503460006005018190555042600760000160089054906101000a900467ffffffffffffffff16600760000160009054906101000a900467ffffffffffffffff166108a09190612cf2565b67ffffffffffffffff161161090a57600760000160089054906101000a900467ffffffffffffffff1667ffffffffffffffff16426108de9190612bdd565b600760000160006101000a81548167ffffffffffffffff021916908367ffffffffffffffff1602179055505b6000600367ffffffffffffffff81111561094d577f4e487b7100000000000000000000000000000000000000000000000000000000600052604160045260246000fd5b60405190808252806020026020018201604052801561097b5781602001602082028036833780820191505090505b5090503373ffffffffffffffffffffffffffffffffffffffff16816000815181106109cf577f4e487b7100000000000000000000000000000000000000000000000000000000600052603260045260246000fd5b60200260200101818152505060006005015481600181518110610a1b577f4e487b7100000000000000000000000000000000000000000000000000000000600052603260045260246000fd5b6020026020010181815250504281600281518110610a62577f4e487b7100000000000000000000000000000000000000000000000000000000600052603260045260246000fd5b602002602001018181525050610a987f626964000000000000000000000000000000000000000000000000000000000082611a3e565b50565b6000600760030160008373ffffffffffffffffffffffffffffffffffffffff1673ffffffffffffffffffffffffffffffffffffffff168152602001908152602001600020549050919050565b600073deeddeeddeeddeeddeeddeeddeeddeeddeeddeed73ffffffffffffffffffffffffffffffffffffffff163373ffffffffffffffffffffffffffffffffffffffff1614905090565b610b3961133e565b610b4257600080fd5b610b4a61147d565b610b5357600080fd5b610b5c84611ae6565b610b67838383611af3565b610b907f73657453657474696e6773000000000000000000000000000000000000000000611bce565b50505050565b73314159265dd8dbb310642f98f50c066173c1259b81565b6000610bb86118ad565b15610d4d576000806002015460001c9050600073314159265dd8dbb310642f98f50c066173c1259b73ffffffffffffffffffffffffffffffffffffffff166302571be37f93cdeb708b7545dc668eb9280176169d1c33cfd8ed6f04690a0bcc88a93fc4ae60001b6040518263ffffffff1660e01b8152600401610c3b9190612909565b60206040518083038186803b158015610c5357600080fd5b505afa158015610c67573d6000803e3d6000fd5b505050506040513d601f19601f82011682018060405250810190610c8b9190612442565b73ffffffffffffffffffffffffffffffffffffffff16636352211e836040518263ffffffff1660e01b8152600401610cc39190612a55565b60206040518083038186803b158015610cdb57600080fd5b505afa158015610cef573d6000803e3d6000fd5b505050506040513d601f19601f82011682018060405250810190610d139190612442565b90503073ffffffffffffffffffffffffffffffffffffffff168173ffffffffffffffffffffffffffffffffffffffff161492505050610e1f565b3073ffffffffffffffffffffffffffffffffffffffff1673314159265dd8dbb310642f98f50c066173c1259b73ffffffffffffffffffffffffffffffffffffffff166302571be360008001546040518263ffffffff1660e01b8152600401610db59190612909565b60206040518083038186803b158015610dcd57600080fd5b505afa158015610de1573d6000803e3d6000fd5b505050506040513d601f19601f82011682018060405250810190610e059190612442565b73ffffffffffffffffffffffffffffffffffffffff161490505b90565b600760000160009054906101000a900467ffffffffffffffff1667ffffffffffffffff164211610e5157600080fd5b610e5961147d565b15610e6357600080fd5b610e91600760020160009054906101000a900473ffffffffffffffffffffffffffffffffffffffff16611c4a565b6000620f424073feedfeedfeedfeedfeedfeedfeedfeedfeedfeed73ffffffffffffffffffffffffffffffffffffffff16636aa4716e6040518163ffffffff1660e01b815260040160206040518083038186803b158015610ef157600080fd5b505afa158015610f05573d6000803e3d6000fd5b505050506040513d601f19601f82011682018060405250810190610f2991906126cd565b63ffffffff16600060050154610f3f9190612c64565b610f499190612c33565b905073feedfeedfeedfeedfeedfeedfeedfeedfeedfeed73ffffffffffffffffffffffffffffffffffffffff1663dc6af7586040518163ffffffff1660e01b815260040160206040518083038186803b158015610fa557600080fd5b505afa158015610fb9573d6000803e3d6000fd5b505050506040513d601f19601f82011682018060405250810190610fdd9190612494565b73ffffffffffffffffffffffffffffffffffffffff166108fc829081150290604051600060405180830381858888f19350505050158015611022573d6000803e3d6000fd5b50600060030160009054906101000a900473ffffffffffffffffffffffffffffffffffffffff1673ffffffffffffffffffffffffffffffffffffffff166108fc826000600501546110739190612cbe565b9081150290604051600060405180830381858888f1935050505061117e5780600060050154600760030160008060030160009054906101000a900473ffffffffffffffffffffffffffffffffffffffff1673ffffffffffffffffffffffffffffffffffffffff1673ffffffffffffffffffffffffffffffffffffffff168152602001908152602001600020546111099190612bdd565b6111139190612cbe565b600760030160008060030160009054906101000a900473ffffffffffffffffffffffffffffffffffffffff1673ffffffffffffffffffffffffffffffffffffffff1673ffffffffffffffffffffffffffffffffffffffff168152602001908152602001600020819055505b50565b8073ffffffffffffffffffffffffffffffffffffffff163373ffffffffffffffffffffffffffffffffffffffff1614806111bf57506111be610ae7565b5b6111c857600080fd5b6000600760030160008373ffffffffffffffffffffffffffffffffffffffff1673ffffffffffffffffffffffffffffffffffffffff16815260200190815260200160002054905060008111156112d1576000600760030160008473ffffffffffffffffffffffffffffffffffffffff1673ffffffffffffffffffffffffffffffffffffffff168152602001908152602001600020819055508173ffffffffffffffffffffffffffffffffffffffff166108fc829081150290604051600060405180830381858888f193505050501580156112a6573d6000803e3d6000fd5b506112d07f7769746864726177000000000000000000000000000000000000000000000000611bce565b5b5050565b6113278a8a8a8080601f016020809104026020016040519081016040528093929190818152602001838380828437600081840152601f19601f82011690508083019250505050505050898989896114d8565b611332838383611af3565b50505050505050505050565b60008060030160009054906101000a900473ffffffffffffffffffffffffffffffffffffffff1673ffffffffffffffffffffffffffffffffffffffff163373ffffffffffffffffffffffffffffffffffffffff1614905090565b600061dead73ffffffffffffffffffffffffffffffffffffffff16600060040160009054906101000a900473ffffffffffffffffffffffffffffffffffffffff1673ffffffffffffffffffffffffffffffffffffffff1614905090565b60078060000160009054906101000a900467ffffffffffffffff16908060000160089054906101000a900467ffffffffffffffff16908060000160109054906101000a90046fffffffffffffffffffffffffffffffff16908060010154908060020160009054906101000a900473ffffffffffffffffffffffffffffffffffffffff16905085565b60008073ffffffffffffffffffffffffffffffffffffffff16600760020160009054906101000a900473ffffffffffffffffffffffffffffffffffffffff1673ffffffffffffffffffffffffffffffffffffffff1614905090565b73feedfeedfeedfeedfeedfeedfeedfeedfeedfeed73ffffffffffffffffffffffffffffffffffffffff1663290d10c46040518163ffffffff1660e01b815260040160206040518083038186803b15801561153257600080fd5b505afa158015611546573d6000803e3d6000fd5b505050506040513d601f19601f8201168201806040525081019061156a91906124bd565b1561157457600080fd5b60008060060160109054906101000a900467ffffffffffffffff1667ffffffffffffffff16146115a357600080fd5b85600080018190555084600060010190805190602001906115c59291906121f2565b508360006002018190555082600060030160006101000a81548173ffffffffffffffffffffffffffffffffffffffff021916908373ffffffffffffffffffffffffffffffffffffffff16021790555081600060060160006101000a8154816fffffffffffffffffffffffffffffffff02191690836fffffffffffffffffffffffffffffffff16021790555042600060060160106101000a81548167ffffffffffffffff021916908367ffffffffffffffff16021790555080600060050181905550505050505050565b60008060000154908060010180546116a590612e9c565b80601f01602080910402602001604051908101604052809291908181526020018280546116d190612e9c565b801561171e5780601f106116f35761010080835404028352916020019161171e565b820191906000526020600020905b81548152906001019060200180831161170157829003601f168201915b5050505050908060020154908060030160009054906101000a900473ffffffffffffffffffffffffffffffffffffffff16908060040160009054906101000a900473ffffffffffffffffffffffffffffffffffffffff16908060050154908060060160009054906101000a90046fffffffffffffffffffffffffffffffff16908060060160109054906101000a900467ffffffffffffffff16908060060160189054906101000a900467ffffffffffffffff16905089565b6117de610ae7565b15611879576117eb61147d565b1580156117fd57506117fb611398565b155b156118745760006005015460076003016000600760020160009054906101000a900473ffffffffffffffffffffffffffffffffffffffff1673ffffffffffffffffffffffffffffffffffffffff1673ffffffffffffffffffffffffffffffffffffffff168152602001908152602001600020819055505b61188b565b61188161147d565b61188a57600080fd5b5b611893611de9565b565b73feedfeedfeedfeedfeedfeedfeedfeedfeedfeed81565b60007f93cdeb708b7545dc668eb9280176169d1c33cfd8ed6f04690a0bcc88a93fc4ae60001b6000600201546040516020016118ea929190612870565b60405160208183030381529060405280519060200120600080015414905090565b73deeddeeddeeddeeddeeddeeddeeddeeddeeddeed81565b61192b61133e565b61193457600080fd5b600073ffffffffffffffffffffffffffffffffffffffff16600060040160009054906101000a900473ffffffffffffffffffffffffffffffffffffffff1673ffffffffffffffffffffffffffffffffffffffff161461199257600080fd5b61199a610bae565b156119a457600080fd5b63deaddead600060040160006101000a81548173ffffffffffffffffffffffffffffffffffffffff021916908373ffffffffffffffffffffffffffffffffffffffff160217905550611a157f756e726567697374657200000000000000000000000000000000000000000000611bce565b565b7f93cdeb708b7545dc668eb9280176169d1c33cfd8ed6f04690a0bcc88a93fc4ae60001b81565b73feedfeedfeedfeedfeedfeedfeedfeedfeedfeed73ffffffffffffffffffffffffffffffffffffffff1663bf8554ff600060060160009054906101000a90046fffffffffffffffffffffffffffffffff1684846040518463ffffffff1660e01b8152600401611ab093929190612a17565b600060405180830381600087803b158015611aca57600080fd5b505af1158015611ade573d6000803e3d6000fd5b505050505050565b8060006005018190555050565b629e340042611b029190612bdd565b8367ffffffffffffffff161115611b1857600080fd5b428367ffffffffffffffff16611b2e9190612cbe565b8267ffffffffffffffff161115611b4457600080fd5b428367ffffffffffffffff1611611b5a57600080fd5b82600760000160006101000a81548167ffffffffffffffff021916908367ffffffffffffffff16021790555081600760000160086101000a81548167ffffffffffffffff021916908367ffffffffffffffff16021790555060008111611bbf57600080fd5b80600760010181905550505050565b611c4781600067ffffffffffffffff811115611c13577f4e487b7100000000000000000000000000000000000000000000000000000000600052604160045260246000fd5b604051908082528060200260200182016040528015611c415781602001602082028036833780820191505090505b50611a3e565b50565b73feedfeedfeedfeedfeedfeedfeedfeedfeedfeed73ffffffffffffffffffffffffffffffffffffffff1663290d10c46040518163ffffffff1660e01b815260040160206040518083038186803b158015611ca457600080fd5b505afa158015611cb8573d6000803e3d6000fd5b505050506040513d601f19601f82011682018060405250810190611cdc91906124bd565b15611ce657600080fd5b600073ffffffffffffffffffffffffffffffffffffffff16600060040160009054906101000a900473ffffffffffffffffffffffffffffffffffffffff1673ffffffffffffffffffffffffffffffffffffffff1614611d4457600080fd5b80600060040160006101000a81548173ffffffffffffffffffffffffffffffffffffffff021916908373ffffffffffffffffffffffffffffffffffffffff16021790555042600060060160186101000a81548167ffffffffffffffff021916908367ffffffffffffffff160217905550611dbd81611f21565b611de67f66696e616c697a65000000000000000000000000000000000000000000000000611bce565b50565b600073ffffffffffffffffffffffffffffffffffffffff16600060040160009054906101000a900473ffffffffffffffffffffffffffffffffffffffff1673ffffffffffffffffffffffffffffffffffffffff1614611e4757600080fd5b6000611e51610ae7565b90508080611e635750611e6261133e565b5b611e6c57600080fd5b611e74610bae565b15611ea857611ea7600060030160009054906101000a900473ffffffffffffffffffffffffffffffffffffffff16611f21565b5b8015611ef55761dead600060040160006101000a81548173ffffffffffffffffffffffffffffffffffffffff021916908373ffffffffffffffffffffffffffffffffffffffff1602179055505b611f1e7f7265636c61696d4f776e65727368697000000000000000000000000000000000611bce565b50565b611f296118ad565b15612169576000806002015460001c9050600073314159265dd8dbb310642f98f50c066173c1259b73ffffffffffffffffffffffffffffffffffffffff166302571be37f93cdeb708b7545dc668eb9280176169d1c33cfd8ed6f04690a0bcc88a93fc4ae60001b6040518263ffffffff1660e01b8152600401611fac9190612909565b60206040518083038186803b158015611fc457600080fd5b505afa158015611fd8573d6000803e3d6000fd5b505050506040513d601f19601f82011682018060405250810190611ffc9190612442565b90508073ffffffffffffffffffffffffffffffffffffffff166328ed4f6c83856040518363ffffffff1660e01b8152600401612039929190612a70565b600060405180830381600087803b15801561205357600080fd5b505af1158015612067573d6000803e3d6000fd5b505050508073ffffffffffffffffffffffffffffffffffffffff166323b872dd8273ffffffffffffffffffffffffffffffffffffffff16636352211e856040518263ffffffff1660e01b81526004016120c09190612a55565b60206040518083038186803b1580156120d857600080fd5b505afa1580156120ec573d6000803e3d6000fd5b505050506040513d601f19601f820116820180604052508101906121109190612442565b85856040518463ffffffff1660e01b8152600401612130939291906128b7565b600060405180830381600087803b15801561214a57600080fd5b505af115801561215e573d6000803e3d6000fd5b5050505050506121ef565b73314159265dd8dbb310642f98f50c066173c1259b73ffffffffffffffffffffffffffffffffffffffff16635b0fc9c36000800154836040518363ffffffff1660e01b81526004016121bc929190612924565b600060405180830381600087803b1580156121d657600080fd5b505af11580156121ea573d6000803e3d6000fd5b505050505b50565b8280546121fe90612e9c565b90600052602060002090601f0160209004810192826122205760008555612267565b82601f1061223957805160ff1916838001178555612267565b82800160010185558215612267579182015b8281111561226657825182559160200191906001019061224b565b5b5090506122749190612278565b5090565b5b80821115612291576000816000905550600101612279565b5090565b60006122a86122a384612b11565b612aec565b9050828152602081018484840111156122c057600080fd5b6122cb848285612e5a565b509392505050565b6000813590506122e281612fd6565b92915050565b6000815190506122f781612fd6565b92915050565b60008135905061230c81612fed565b92915050565b60008151905061232181612fed565b92915050565b60008151905061233681613004565b92915050565b60008135905061234b8161301b565b92915050565b60008083601f84011261236357600080fd5b8235905067ffffffffffffffff81111561237c57600080fd5b60208301915083600182028301111561239457600080fd5b9250929050565b600082601f8301126123ac57600080fd5b81356123bc848260208601612295565b91505092915050565b6000813590506123d481613032565b92915050565b6000813590506123e981613049565b92915050565b6000815190506123fe81613060565b92915050565b60008135905061241381613077565b92915050565b60006020828403121561242b57600080fd5b6000612439848285016122d3565b91505092915050565b60006020828403121561245457600080fd5b6000612462848285016122e8565b91505092915050565b60006020828403121561247d57600080fd5b600061248b848285016122fd565b91505092915050565b6000602082840312156124a657600080fd5b60006124b484828501612312565b91505092915050565b6000602082840312156124cf57600080fd5b60006124dd84828501612327565b91505092915050565b6000806000806000806000806000806101208b8d03121561250657600080fd5b60006125148d828e0161233c565b9a505060208b013567ffffffffffffffff81111561253157600080fd5b61253d8d828e01612351565b995099505060406125508d828e0161233c565b97505060606125618d828e016122fd565b96505060806125728d828e016123c5565b95505060a06125838d828e016123da565b94505060c06125948d828e01612404565b93505060e06125a58d828e01612404565b9250506101006125b78d828e016123da565b9150509295989b9194979a5092959850565b60008060008060008060c087890312156125e257600080fd5b60006125f089828a0161233c565b965050602087013567ffffffffffffffff81111561260d57600080fd5b61261989828a0161239b565b955050604061262a89828a0161233c565b945050606061263b89828a016122fd565b935050608061264c89828a016123c5565b92505060a061265d89828a016123da565b9150509295509295509295565b6000806000806080858703121561268057600080fd5b600061268e878288016123da565b945050602061269f87828801612404565b93505060406126b087828801612404565b92505060606126c1878288016123da565b91505092959194509250565b6000602082840312156126df57600080fd5b60006126ed848285016123ef565b91505092915050565b60006127028383612843565b60208301905092915050565b61271781612dca565b82525050565b61272681612d38565b82525050565b61273581612d26565b82525050565b600061274682612b52565b6127508185612b75565b935061275b83612b42565b8060005b8381101561278c57815161277388826126f6565b975061277e83612b68565b92505060018101905061275f565b5085935050505092915050565b6127a281612d4a565b82525050565b6127b181612d56565b82525050565b6127c86127c382612d56565b612eff565b82525050565b6127d781612ddc565b82525050565b6127e681612e00565b82525050565b60006127f782612b5d565b6128018185612b86565b9350612811818560208601612e69565b61281a81612fc5565b840191505092915050565b61282e81612d60565b82525050565b61283d81612e24565b82525050565b61284c81612d9c565b82525050565b61285b81612d9c565b82525050565b61286a81612db6565b82525050565b600061287c82856127b7565b60208201915061288c82846127b7565b6020820191508190509392505050565b60006020820190506128b1600083018461272c565b92915050565b60006060820190506128cc600083018661272c565b6128d9602083018561270e565b6128e66040830184612852565b949350505050565b60006020820190506129036000830184612799565b92915050565b600060208201905061291e60008301846127a8565b92915050565b600060408201905061293960008301856127a8565b612946602083018461270e565b9392505050565b600061012082019050612963600083018c6127a8565b8181036020830152612975818b6127ec565b9050612984604083018a6127a8565b612991606083018961271d565b61299e608083018861272c565b6129ab60a0830187612852565b6129b860c0830186612825565b6129c560e0830185612861565b6129d3610100830184612861565b9a9950505050505050505050565b60006020820190506129f660008301846127ce565b92915050565b6000602082019050612a1160008301846127dd565b92915050565b6000606082019050612a2c6000830186612834565b612a3960208301856127a8565b8181036040830152612a4b818461273b565b9050949350505050565b6000602082019050612a6a6000830184612852565b92915050565b6000604082019050612a856000830185612852565b612a92602083018461270e565b9392505050565b600060a082019050612aae6000830188612861565b612abb6020830187612861565b612ac86040830186612825565b612ad56060830185612852565b612ae2608083018461271d565b9695505050505050565b6000612af6612b07565b9050612b028282612ece565b919050565b6000604051905090565b600067ffffffffffffffff821115612b2c57612b2b612f96565b5b612b3582612fc5565b9050602081019050919050565b6000819050602082019050919050565b600081519050919050565b600081519050919050565b6000602082019050919050565b600082825260208201905092915050565b600082825260208201905092915050565b6000612ba282612d60565b9150612bad83612d60565b9250826fffffffffffffffffffffffffffffffff03821115612bd257612bd1612f09565b5b828201905092915050565b6000612be882612d9c565b9150612bf383612d9c565b9250827fffffffffffffffffffffffffffffffffffffffffffffffffffffffffffffffff03821115612c2857612c27612f09565b5b828201905092915050565b6000612c3e82612d9c565b9150612c4983612d9c565b925082612c5957612c58612f38565b5b828204905092915050565b6000612c6f82612d9c565b9150612c7a83612d9c565b9250817fffffffffffffffffffffffffffffffffffffffffffffffffffffffffffffffff0483118215151615612cb357612cb2612f09565b5b828202905092915050565b6000612cc982612d9c565b9150612cd483612d9c565b925082821015612ce757612ce6612f09565b5b828203905092915050565b6000612cfd82612db6565b9150612d0883612db6565b925082821015612d1b57612d1a612f09565b5b828203905092915050565b6000612d3182612d7c565b9050919050565b6000612d4382612d7c565b9050919050565b60008115159050919050565b6000819050919050565b60006fffffffffffffffffffffffffffffffff82169050919050565b600073ffffffffffffffffffffffffffffffffffffffff82169050919050565b6000819050919050565b600063ffffffff82169050919050565b600067ffffffffffffffff82169050919050565b6000612dd582612e36565b9050919050565b6000612de782612dee565b9050919050565b6000612df982612d7c565b9050919050565b6000612e0b82612e12565b9050919050565b6000612e1d82612d7c565b9050919050565b6000612e2f82612d60565b9050919050565b6000612e4182612e48565b9050919050565b6000612e5382612d7c565b9050919050565b82818337600083830152505050565b60005b83811015612e87578082015181840152602081019050612e6c565b83811115612e96576000848401525b50505050565b60006002820490506001821680612eb457607f821691505b60208210811415612ec857612ec7612f67565b5b50919050565b612ed782612fc5565b810181811067ffffffffffffffff82111715612ef657612ef5612f96565b5b80604052505050565b6000819050919050565b7f4e487b7100000000000000000000000000000000000000000000000000000000600052601160045260246000fd5b7f4e487b7100000000000000000000000000000000000000000000000000000000600052601260045260246000fd5b7f4e487b7100000000000000000000000000000000000000000000000000000000600052602260045260246000fd5b7f4e487b7100000000000000000000000000000000000000000000000000000000600052604160045260246000fd5b6000601f19601f8301169050919050565b612fdf81612d26565b8114612fea57600080fd5b50565b612ff681612d38565b811461300157600080fd5b50565b61300d81612d4a565b811461301857600080fd5b50565b61302481612d56565b811461302f57600080fd5b50565b61303b81612d60565b811461304657600080fd5b50565b61305281612d9c565b811461305d57600080fd5b50565b61306981612da6565b811461307457600080fd5b50565b61308081612db6565b811461308b57600080fd5b5056fea26469706673582212207571b996b8911b89941f97438bcd32ac24d3b45ff9097d4645adc80c31cb012b64736f6c63430008040033",
  "immutableReferences": {},
  "source": "// SPDX-License-Identifier: MIT\npragma solidity ^0.8.4;\n\n/**\n * @title AuctionOffering\n * @dev Contains logic for AuctionOffering. This contract will be deployed only once, while users will create\n * many instances of Forwarder via AuctionOfferingFactory, which will serve as a proxy pointing this contract.\n * This way code logic for this offering won't be duplicated on blockchain.\n */\n\nimport \"./Offering.sol\";\n\ncontract AuctionOffering is Offering {\n\n    struct AuctionOffering {\n        // Order here is important for gas optimisations. Must be fitting into uint265 slots.\n        uint64 endTime;                               // end time of the auction\n        uint64 extensionDuration;                     // If new highest bid arrives less than extensionDuration before\n                                                      // auction end time, the auction will be extended by another extensionDuration\n        uint128 bidCount;                             // Number of bids for this auction\n        uint minBidIncrease;                          // Min. amount new bid must be higher than previous one\n        address payable winningBidder;                // Address of currently winning bidder\n        mapping(address => uint) pendingReturns;      // Map of pending returns for overbid bidders\n    }\n\n    AuctionOffering public auctionOffering;\n\n    /**\n     * @dev Modifier to make a function callable only when auction has no bids\n     */\n    modifier onlyWithoutBids() {\n        require(hasNoBids());\n        _;\n    }\n\n    /**\n     * @dev Modifier to make a function callable only when auction has at least 1 bid\n     */\n    modifier onlyWithBids() {\n        require(!hasNoBids());\n        _;\n    }\n\n    /**\n     * @dev Modifier to make a function callable only when auction end time is over\n     */\n    modifier onlyAfterEndTime() {\n        require(block.timestamp > auctionOffering.endTime);\n        _;\n    }\n\n    /**\n     * @dev Modifier to make a function callable only when auction end time is not over yet\n     */\n    modifier onlyBeforeEndTime() {\n        require(block.timestamp < auctionOffering.endTime);\n        _;\n    }\n\n    /**\n     * @dev Constructor of auction\n     * Should be callable just once, by factory\n     */\n    function construct(\n        bytes32 _node,\n        string calldata _name,\n        bytes32 _labelHash,\n        address payable _originalOwner,\n        uint128 _version,\n        uint _price,\n        uint64 _endTime,\n        uint64 _extensionDuration,\n        uint _minBidIncrease\n    ) external {\n        super.construct(\n            _node,\n            _name,\n            _labelHash,\n            _originalOwner,\n            _version,\n            _price\n        );\n        doSetSettings(_endTime, _extensionDuration, _minBidIncrease);\n    }\n\n    /**\n    * @dev Makes a new bid in an auction\n    * Sends funds of previous winning bidder back or makes them available for withdrawal\n    * Extends auction if bid happens within extensionDuration\n    * Bid must be higher than minBidIncrease if other than first bid\n    * Cannot be after end time of auction\n    * Offering contract must own ENS name\n    * Not executable when there's emergency pause\n    */\n    function bid()\n        public\n        payable\n        onlyWhenNotEmergencyPaused\n        onlyWhenContractIsNodeOwner\n        onlyBeforeEndTime\n    {\n        if (auctionOffering.winningBidder == address(0x0)) {\n            require(msg.value >= offering.price);\n        } else {\n            require(msg.value >= offering.price + auctionOffering.minBidIncrease);\n            uint previousWinnerRefund = auctionOffering.pendingReturns[auctionOffering.winningBidder] + offering.price;\n            if (auctionOffering.winningBidder.send(previousWinnerRefund)) {\n                auctionOffering.pendingReturns[auctionOffering.winningBidder] = 0;\n            } else {\n                auctionOffering.pendingReturns[auctionOffering.winningBidder] = previousWinnerRefund;\n            }\n        }\n\n        auctionOffering.winningBidder = payable(msg.sender);\n        auctionOffering.bidCount += 1;\n        offering.price = msg.value;\n\n        if (uint(auctionOffering.endTime - auctionOffering.extensionDuration) <= block.timestamp) {\n            auctionOffering.endTime = uint64(block.timestamp + uint(auctionOffering.extensionDuration));\n        }\n\n        uint[] memory extraEventData = new uint[](3);\n        extraEventData[0] = uint(uint160(msg.sender));\n        extraEventData[1] = offering.price;\n        extraEventData[2] = block.timestamp;\n        fireOnChanged(\"bid\", extraEventData);\n    }\n\n    /**\n    * @dev Withdraws pending returns of a bidder\n    * Only original bidder or emergency multisig can withdraw funds,\n    * In each case funds are sent to original bidder only\n    * @param _address address The address of withdrawer\n    */\n    function withdraw(address payable _address) external {\n        require(msg.sender == _address || isSenderEmergencyMultisig());\n        uint pendingReturns = auctionOffering.pendingReturns[_address];\n        if (pendingReturns > 0) {\n            auctionOffering.pendingReturns[_address] = 0;\n            _address.transfer(pendingReturns);\n            fireOnChanged(\"withdraw\");\n        }\n    }\n\n    /**\n    * @dev Finalizes auction: transfers funds to original ENS owner, transfers ENS name to winning bidder\n    * Must be after auction end time\n    * According to Withdrawal Pattern we cannot assume transferring funds to original owner will be possible,\n    * therefore we try to transfer his funds, and we make them available for withdrawal later, if this transfer fails.\n    */\n    function finalize()\n        external\n        onlyAfterEndTime\n        onlyWithBids\n    {\n        transferOwnership(auctionOffering.winningBidder);\n\n        uint256 fee = offering.price * offeringRegistry.offeringFee() / 1000000;\n        offeringRegistry.emergencyMultisig().transfer(fee);\n        if (!offering.originalOwner.send(offering.price - fee)){\n            auctionOffering.pendingReturns[offering.originalOwner] =\n                auctionOffering.pendingReturns[offering.originalOwner] + offering.price - fee;\n        }\n    }\n\n    /**\n    * @dev Reclaims ownership of ENS name back to original owner\n    * Can be done only if auction has no bids\n    * Emergency multisig can do this even for auction with bids and it puts winner bidder funds for withdrawal\n    */\n    function reclaimOwnership() public override {\n        if (isSenderEmergencyMultisig()) {\n            if (!hasNoBids() && !wasEmergencyCancelled()) {\n                auctionOffering.pendingReturns[auctionOffering.winningBidder] = offering.price;\n            }\n        } else {\n            require(hasNoBids());\n        }\n        super.reclaimOwnership();\n    }\n\n\n    /**\n    * @dev Changes settings for AuctionOffering\n    * Can be executed only by original owner\n    * Can't be executed when auction already has some bids\n    * @param _startPrice uint New start price of the auction\n    * @param _endTime uint New end time of the auction\n    * @param _extensionDuration uint New extension duration of the auction\n    * @param _minBidIncrease uint New min bid increase of the auction\n    */\n    function setSettings(\n        uint _startPrice,\n        uint64 _endTime,\n        uint64 _extensionDuration,\n        uint _minBidIncrease\n    )\n        external\n        onlyOriginalOwner\n        onlyWithoutBids\n    {\n        super.doSetSettings(_startPrice);\n        doSetSettings(_endTime, _extensionDuration, _minBidIncrease);\n        fireOnChanged(\"setSettings\");\n    }\n\n    /**\n    * @dev Performs actual settings change with input validation\n    * Must be callable only internally\n    */\n    function doSetSettings(\n        uint64 _endTime,\n        uint64 _extensionDuration,\n        uint _minBidIncrease\n    )\n        internal\n    {\n        require(_endTime <= block.timestamp + 4 * 30 days);\n        require(_extensionDuration <= _endTime - block.timestamp);\n        require(_endTime > block.timestamp);\n        auctionOffering.endTime = _endTime;\n        auctionOffering.extensionDuration = _extensionDuration;\n        require(_minBidIncrease > 0);\n        auctionOffering.minBidIncrease = _minBidIncrease;\n    }\n\n    /**\n    * @dev Returns whether auction already has no bids\n    * @return bool true if auction has no bids\n    */\n    function hasNoBids() public view returns(bool) {\n        return auctionOffering.winningBidder == address(0x0);\n    }\n\n    /**\n    * @dev Returns amount of pending returns ready for withdrawal for a given address\n    * @param bidder address The address with pending returns\n    * @return uint The amount of pending returns\n    */\n    function pendingReturns(address bidder) external view returns (uint) {\n        return auctionOffering.pendingReturns[bidder];\n    }\n\n    receive() external payable {\n        bid();\n    }\n}\n",
  "sourcePath": "/Users/kwladyka/district0x/name-bazaar/resources/public/contracts/src/AuctionOffering.sol",
  "compiler": {
    "name": "solc",
    "version": "0.8.4+commit.c7e474f2.Emscripten.clang"
  },
  "schemaVersion": "3.4.7",
  "updatedAt": "2022-05-19T11:58:22.403Z",
  "networkType": "ethereum",
  "devdoc": {
    "kind": "dev",
    "methods": {
      "bid()": {
        "details": "Makes a new bid in an auction Sends funds of previous winning bidder back or makes them available for withdrawal Extends auction if bid happens within extensionDuration Bid must be higher than minBidIncrease if other than first bid Cannot be after end time of auction Offering contract must own ENS name Not executable when there's emergency pause"
      },
      "construct(bytes32,string,bytes32,address,uint128,uint256)": {
        "details": "Constructor of offering Should be callable just once, by factory"
      },
      "construct(bytes32,string,bytes32,address,uint128,uint256,uint64,uint64,uint256)": {
        "details": "Constructor of auction Should be callable just once, by factory"
      },
      "finalize()": {
        "details": "Finalizes auction: transfers funds to original ENS owner, transfers ENS name to winning bidder Must be after auction end time According to Withdrawal Pattern we cannot assume transferring funds to original owner will be possible, therefore we try to transfer his funds, and we make them available for withdrawal later, if this transfer fails."
      },
      "hasNoBids()": {
        "details": "Returns whether auction already has no bids",
        "returns": {
          "_0": "bool true if auction has no bids"
        }
      },
      "isContractNodeOwner()": {
        "details": "Returns whether offering contract is owner of ENS name For top level names, offering contract must be also owner of registration",
        "returns": {
          "_0": "bool true if contract is ENS node owner"
        }
      },
      "isNodeTLDOfRegistrar()": {
        "details": "Returns whether offering node is top level name of registrar or subname",
        "returns": {
          "_0": "bool true if offering node is top level name of registrar"
        }
      },
      "isSenderEmergencyMultisig()": {
        "details": "Returns whether msg.sender is emergency multisig address",
        "returns": {
          "_0": "bool true if msg.sender is emergency multisig"
        }
      },
      "isSenderOriginalOwner()": {
        "details": "Returns whether msg.sender is original owner of ENS name, offering creator",
        "returns": {
          "_0": "bool true if msg.sender is original owner"
        }
      },
      "pendingReturns(address)": {
        "details": "Returns amount of pending returns ready for withdrawal for a given address",
        "params": {
          "bidder": "address The address with pending returns"
        },
        "returns": {
          "_0": "uint The amount of pending returns"
        }
      },
      "reclaimOwnership()": {
        "details": "Reclaims ownership of ENS name back to original owner Can be done only if auction has no bids Emergency multisig can do this even for auction with bids and it puts winner bidder funds for withdrawal"
      },
      "setSettings(uint256,uint64,uint64,uint256)": {
        "details": "Changes settings for AuctionOffering Can be executed only by original owner Can't be executed when auction already has some bids",
        "params": {
          "_endTime": "uint New end time of the auction",
          "_extensionDuration": "uint New extension duration of the auction",
          "_minBidIncrease": "uint New min bid increase of the auction",
          "_startPrice": "uint New start price of the auction"
        }
      },
      "unregister()": {
        "details": "Unregisters offering for not displaying it in UI Cannot be run if contract has ownership or it was already transferred to new owner"
      },
      "wasEmergencyCancelled()": {
        "details": "Returns whether offering was cancelled in emergency, by emergency multisig",
        "returns": {
          "_0": "bool true if offering was cancelled in emergency"
        }
      },
      "withdraw(address)": {
        "details": "Withdraws pending returns of a bidder Only original bidder or emergency multisig can withdraw funds, In each case funds are sent to original bidder only",
        "params": {
          "_address": "address The address of withdrawer"
        }
      }
    },
    "version": 1
  },
  "userdoc": {
    "kind": "user",
    "methods": {},
    "version": 1
  }
}