{
  "contractName": "BuyNowOfferingFactory",
  "abi": [
    {
      "inputs": [
        {
          "internalType": "contract ENSRegistry",
          "name": "ens",
          "type": "address"
        },
        {
          "internalType": "contract OfferingRegistry",
          "name": "offeringRegistry",
          "type": "address"
        }
      ],
      "stateMutability": "nonpayable",
      "type": "constructor"
    },
    {
      "inputs": [],
      "name": "ens",
      "outputs": [
        {
          "internalType": "contract ENSRegistry",
          "name": "",
          "type": "address"
        }
      ],
      "stateMutability": "view",
      "type": "function",
      "constant": true
    },
    {
      "inputs": [],
      "name": "offeringRegistry",
      "outputs": [
        {
          "internalType": "contract OfferingRegistry",
          "name": "",
          "type": "address"
        }
      ],
      "stateMutability": "view",
      "type": "function",
      "constant": true
    },
    {
      "inputs": [],
      "name": "rootNode",
      "outputs": [
        {
          "internalType": "bytes32",
          "name": "",
          "type": "bytes32"
        }
      ],
      "stateMutability": "view",
      "type": "function",
      "constant": true
    },
    {
      "inputs": [
        {
          "internalType": "string",
          "name": "name",
          "type": "string"
        },
        {
          "internalType": "uint256",
          "name": "price",
          "type": "uint256"
        }
      ],
      "name": "createSubnameOffering",
      "outputs": [],
      "stateMutability": "nonpayable",
      "type": "function"
    },
    {
      "inputs": [
        {
          "internalType": "address",
          "name": "operator",
          "type": "address"
        },
        {
          "internalType": "address",
          "name": "from",
          "type": "address"
        },
        {
          "internalType": "uint256",
          "name": "tokenId",
          "type": "uint256"
        },
        {
          "internalType": "bytes",
          "name": "data",
          "type": "bytes"
        }
      ],
      "name": "onERC721Received",
      "outputs": [
        {
          "internalType": "bytes4",
          "name": "",
          "type": "bytes4"
        }
      ],
      "stateMutability": "nonpayable",
      "type": "function"
    }
  ],
  "bytecode": "0x60806040523480156200001157600080fd5b50604051620020ed380380620020ed8339818101604052810190620000379190620000f2565b8181816000806101000a81548173ffffffffffffffffffffffffffffffffffffffff021916908373ffffffffffffffffffffffffffffffffffffffff16021790555080600160006101000a81548173ffffffffffffffffffffffffffffffffffffffff021916908373ffffffffffffffffffffffffffffffffffffffff16021790555050505050620001c3565b600081519050620000d5816200018f565b92915050565b600081519050620000ec81620001a9565b92915050565b600080604083850312156200010657600080fd5b60006200011685828601620000c4565b92505060206200012985828601620000db565b9150509250929050565b600062000140826200016f565b9050919050565b6000620001548262000133565b9050919050565b6000620001688262000133565b9050919050565b600073ffffffffffffffffffffffffffffffffffffffff82169050919050565b6200019a8162000147565b8114620001a657600080fd5b50565b620001b4816200015b565b8114620001c057600080fd5b50565b611f1a80620001d36000396000f3fe608060405234801561001057600080fd5b50600436106100575760003560e01c8063150b7a021461005c5780633f15457f1461008c5780638720a566146100aa578063cc0f73b1146100c6578063faff50a8146100e4575b600080fd5b610076600480360381019061007191906113db565b610102565b60405161008391906117d4565b60405180910390f35b610094610242565b6040516100a191906117ef565b60405180910390f35b6100c460048036038101906100bf9190611456565b610266565b005b6100ce6103d9565b6040516100db919061180a565b60405180910390f35b6100ec6103ff565b6040516100f991906116e7565b60405180910390f35b60008060009054906101000a900473ffffffffffffffffffffffffffffffffffffffff1673ffffffffffffffffffffffffffffffffffffffff166302571be37f93cdeb708b7545dc668eb9280176169d1c33cfd8ed6f04690a0bcc88a93fc4ae60001b6040518263ffffffff1660e01b815260040161018191906116e7565b60206040518083038186803b15801561019957600080fd5b505afa1580156101ad573d6000803e3d6000fd5b505050506040513d601f19601f820116820180604052508101906101d191906113b2565b73ffffffffffffffffffffffffffffffffffffffff163373ffffffffffffffffffffffffffffffffffffffff161461020857600080fd5b6000808380602001905181019061021f91906114ae565b9150915061022e828288610426565b63150b7a0260e01b92505050949350505050565b60008054906101000a900473ffffffffffffffffffffffffffffffffffffffff1681565b60006102b584848080601f016020809104026020016040519081016040528093929190818152602001838380828437600081840152601f19601f82011690508083019250505050505050610510565b9050600061030685858080601f016020809104026020016040519081016040528093929190818152602001838380828437600081840152601f19601f820116905080830192505050505050506105f5565b905060006040516103169061121e565b604051809103906000f080158015610332573d6000803e3d6000fd5b5090506000600290508173ffffffffffffffffffffffffffffffffffffffff1663a1e4f73d8589898733878c6040518863ffffffff1660e01b81526004016103809796959493929190611702565b600060405180830381600087803b15801561039a57600080fd5b505af11580156103ae573d6000803e3d6000fd5b505050506103d0848484846fffffffffffffffffffffffffffffffff16610684565b50505050505050565b600160009054906101000a900473ffffffffffffffffffffffffffffffffffffffff1681565b7f93cdeb708b7545dc668eb9280176169d1c33cfd8ed6f04690a0bcc88a93fc4ae60001b81565b600061043184610510565b9050600061043e856105f5565b9050600060405161044e9061121e565b604051809103906000f08015801561046a573d6000803e3d6000fd5b5090506000600290508173ffffffffffffffffffffffffffffffffffffffff1663a1e4f73d85898689868c6040518763ffffffff1660e01b81526004016104b69695949392919061176c565b600060405180830381600087803b1580156104d057600080fd5b505af11580156104e4573d6000803e3d6000fd5b50505050610507848484846fffffffffffffffffffffffffffffffff16896107fd565b50505050505050565b60008061051c83610ba2565b905060008060001b90505b600061053283610bd0565b11156105eb57600061059261058d61057e6040518060400160405280600181526020017f2e00000000000000000000000000000000000000000000000000000000000000815250610ba2565b85610cdf90919063ffffffff16565b610cf9565b6040516020016105a29190611654565b60405160208183030381529060405290508181805190602001206040516020016105cd929190611628565b60405160208183030381529060405280519060200120915050610527565b8092505050919050565b600061065761065261063b6040518060400160405280600181526020017f2e00000000000000000000000000000000000000000000000000000000000000815250610ba2565b61064485610ba2565b610d9b90919063ffffffff16565b610cf9565b6040516020016106679190611654565b604051602081830303815290604052805190602001209050919050565b3373ffffffffffffffffffffffffffffffffffffffff1660008054906101000a900473ffffffffffffffffffffffffffffffffffffffff1673ffffffffffffffffffffffffffffffffffffffff166302571be3866040518263ffffffff1660e01b81526004016106f491906116e7565b60206040518083038186803b15801561070c57600080fd5b505afa158015610720573d6000803e3d6000fd5b505050506040513d601f19601f8201168201806040525081019061074491906113b2565b73ffffffffffffffffffffffffffffffffffffffff161461076457600080fd5b600160009054906101000a900473ffffffffffffffffffffffffffffffffffffffff1673ffffffffffffffffffffffffffffffffffffffff166312b97812838633856040518563ffffffff1660e01b81526004016107c594939291906116a2565b600060405180830381600087803b1580156107df57600080fd5b505af11580156107f3573d6000803e3d6000fd5b5050505050505050565b7f93cdeb708b7545dc668eb9280176169d1c33cfd8ed6f04690a0bcc88a93fc4ae60001b84604051602001610833929190611628565b60405160208183030381529060405280519060200120851461085457600080fd5b60008060009054906101000a900473ffffffffffffffffffffffffffffffffffffffff1673ffffffffffffffffffffffffffffffffffffffff166302571be37f93cdeb708b7545dc668eb9280176169d1c33cfd8ed6f04690a0bcc88a93fc4ae60001b6040518263ffffffff1660e01b81526004016108d391906116e7565b60206040518083038186803b1580156108eb57600080fd5b505afa1580156108ff573d6000803e3d6000fd5b505050506040513d601f19601f8201168201806040525081019061092391906113b2565b905060008560001c905060008273ffffffffffffffffffffffffffffffffffffffff16636352211e836040518263ffffffff1660e01b81526004016109689190611825565b60206040518083038186803b15801561098057600080fd5b505afa158015610994573d6000803e3d6000fd5b505050506040513d601f19601f820116820180604052508101906109b891906113b2565b90508273ffffffffffffffffffffffffffffffffffffffff163373ffffffffffffffffffffffffffffffffffffffff16148015610a2057503073ffffffffffffffffffffffffffffffffffffffff168173ffffffffffffffffffffffffffffffffffffffff16145b610a2957600080fd5b8273ffffffffffffffffffffffffffffffffffffffff166328ed4f6c83886040518363ffffffff1660e01b8152600401610a64929190611840565b600060405180830381600087803b158015610a7e57600080fd5b505af1158015610a92573d6000803e3d6000fd5b505050508273ffffffffffffffffffffffffffffffffffffffff166323b872dd8288856040518463ffffffff1660e01b8152600401610ad39392919061166b565b600060405180830381600087803b158015610aed57600080fd5b505af1158015610b01573d6000803e3d6000fd5b50505050600160009054906101000a900473ffffffffffffffffffffffffffffffffffffffff1673ffffffffffffffffffffffffffffffffffffffff166312b97812878a87896040518563ffffffff1660e01b8152600401610b6694939291906116a2565b600060405180830381600087803b158015610b8057600080fd5b505af1158015610b94573d6000803e3d6000fd5b505050505050505050505050565b610baa61122a565b600060208301905060405180604001604052808451815260200182815250915050919050565b600080601f8360200151610be49190611b38565b90506000836000015182610bf89190611917565b9050600092505b80821015610cd857600060ff835116905060808160ff161015610c3057600183610c299190611917565b9250610cc4565b60e08160ff161015610c5057600283610c499190611917565b9250610cc3565b60f08160ff161015610c7057600383610c699190611917565b9250610cc2565b60f88160ff161015610c9057600483610c899190611917565b9250610cc1565b60fc8160ff161015610cb057600583610ca99190611917565b9250610cc0565b600683610cbd9190611917565b92505b5b5b5b5b508280610cd090611cf1565b935050610bff565b5050919050565b610ce761122a565b610cf2838383610db5565b5092915050565b60606000826000015167ffffffffffffffff811115610d41577f4e487b7100000000000000000000000000000000000000000000000000000000600052604160045260246000fd5b6040519080825280601f01601f191660200182016040528015610d735781602001600182028036833780820191505090505b5090506000602082019050610d918185602001518660000151610e63565b8192505050919050565b610da361122a565b610dae838383610ee2565b5092915050565b610dbd61122a565b6000610ddb8560000151866020015186600001518760200151610fad565b905080836020018181525050846020015181610df79190611b38565b8560000151610e069190611b38565b8360000181815250508460200151811415610e2b576000856000018181525050610e58565b83600001518360000151610e3f9190611917565b85600001818151610e509190611b38565b915081815250505b829150509392505050565b5b60208110610ea25781518352602083610e7d9190611917565b9250602082610e8c9190611917565b9150602081610e9b9190611b38565b9050610e64565b60006001826020610eb39190611b38565b610100610ec091906119c0565b610eca9190611b38565b90508019835116818551168181178652505050505050565b610eea61122a565b6000610f0885600001518660200151866000015187602001516110dd565b90508460200151836020018181525050846020015181610f289190611b38565b83600001818152505084600001518560200151610f459190611917565b811415610f5c576000856000018181525050610fa2565b83600001518360000151610f709190611917565b85600001818151610f819190611b38565b91508181525050836000015181610f989190611917565b8560200181815250505b829150509392505050565b6000808584116110d0576020841161106c5760006001856020610fd09190611b38565b6008610fdc9190611ade565b6002610fe891906119c0565b610ff29190611b38565b1960001b9050600081855116905085888861100d9190611917565b6110179190611b38565b925060008284511690505b8181146110555787841161103c57879450505050506110d5565b838061104790611c96565b945050828451169050611022565b86846110619190611917565b9450505050506110d5565b60008484209050848761107f9190611b38565b8661108a9190611917565b91505b8582106110ce5760008583209050808214156110b95785836110af9190611917565b93505050506110d5565b6001836110c69190611b38565b92505061108d565b505b849150505b949350505050565b600080849050600086851161120557602085116111a757600060018660206111059190611b38565b60086111119190611ade565b600261111d91906119c0565b6111279190611b38565b1960001b905060008186511690506000878a8a6111449190611917565b61114e9190611b38565b905060008386511690505b82811461119957818610611180578a8a6111739190611917565b9650505050505050611216565b858061118b90611cf1565b965050838651169050611159565b859650505050505050611216565b60008585209050600091505b85886111bf9190611b38565b82116112035760008684209050808214156111e05783945050505050611216565b6001846111ed9190611917565b93505081806111fb90611cf1565b9250506111b3565b505b86866112119190611917565b925050505b949350505050565b60f680611def83390190565b604051806040016040528060008152602001600081525090565b60006112576112528461188e565b611869565b90508281526020810184848401111561126f57600080fd5b61127a848285611c54565b509392505050565b6000611295611290846118bf565b611869565b9050828152602081018484840111156112ad57600080fd5b6112b8848285611c63565b509392505050565b6000813590506112cf81611dc0565b92915050565b6000815190506112e481611dc0565b92915050565b600082601f8301126112fb57600080fd5b813561130b848260208601611244565b91505092915050565b60008083601f84011261132657600080fd5b8235905067ffffffffffffffff81111561133f57600080fd5b60208301915083600182028301111561135757600080fd5b9250929050565b600082601f83011261136f57600080fd5b815161137f848260208601611282565b91505092915050565b60008135905061139781611dd7565b92915050565b6000815190506113ac81611dd7565b92915050565b6000602082840312156113c457600080fd5b60006113d2848285016112d5565b91505092915050565b600080600080608085870312156113f157600080fd5b60006113ff878288016112c0565b9450506020611410878288016112c0565b935050604061142187828801611388565b925050606085013567ffffffffffffffff81111561143e57600080fd5b61144a878288016112ea565b91505092959194509250565b60008060006040848603121561146b57600080fd5b600084013567ffffffffffffffff81111561148557600080fd5b61149186828701611314565b935093505060206114a486828701611388565b9150509250925092565b600080604083850312156114c157600080fd5b600083015167ffffffffffffffff8111156114db57600080fd5b6114e78582860161135e565b92505060206114f88582860161139d565b9150509250929050565b61150b81611b7e565b82525050565b61151a81611b6c565b82525050565b61152981611b90565b82525050565b61154061153b82611b90565b611d3a565b82525050565b61154f81611b9a565b82525050565b61155e81611c0c565b82525050565b61156d81611c30565b82525050565b600061157f83856118fb565b935061158c838584611c54565b61159583611da2565b840190509392505050565b60006115ab826118f0565b6115b581856118fb565b93506115c5818560208601611c63565b6115ce81611da2565b840191505092915050565b60006115e4826118f0565b6115ee818561190c565b93506115fe818560208601611c63565b80840191505092915050565b61161381611bc6565b82525050565b61162281611c02565b82525050565b6000611634828561152f565b602082019150611644828461152f565b6020820191508190509392505050565b600061166082846115d9565b915081905092915050565b60006060820190506116806000830186611511565b61168d6020830185611511565b61169a6040830184611619565b949350505050565b60006080820190506116b76000830187611511565b6116c46020830186611520565b6116d16040830185611511565b6116de6060830184611619565b95945050505050565b60006020820190506116fc6000830184611520565b92915050565b600060c082019050611717600083018a611520565b818103602083015261172a81888a611573565b90506117396040830187611520565b6117466060830186611502565b611753608083018561160a565b61176060a0830184611619565b98975050505050505050565b600060c0820190506117816000830189611520565b818103602083015261179381886115a0565b90506117a26040830187611520565b6117af6060830186611502565b6117bc608083018561160a565b6117c960a0830184611619565b979650505050505050565b60006020820190506117e96000830184611546565b92915050565b60006020820190506118046000830184611555565b92915050565b600060208201905061181f6000830184611564565b92915050565b600060208201905061183a6000830184611619565b92915050565b60006040820190506118556000830185611619565b6118626020830184611511565b9392505050565b6000611873611884565b905061187f8282611cc0565b919050565b6000604051905090565b600067ffffffffffffffff8211156118a9576118a8611d73565b5b6118b282611da2565b9050602081019050919050565b600067ffffffffffffffff8211156118da576118d9611d73565b5b6118e382611da2565b9050602081019050919050565b600081519050919050565b600082825260208201905092915050565b600081905092915050565b600061192282611c02565b915061192d83611c02565b9250827fffffffffffffffffffffffffffffffffffffffffffffffffffffffffffffffff0382111561196257611961611d44565b5b828201905092915050565b6000808291508390505b60018511156119b75780860481111561199357611992611d44565b5b60018516156119a25780820291505b80810290506119b085611db3565b9450611977565b94509492505050565b60006119cb82611c02565b91506119d683611c02565b9250611a037fffffffffffffffffffffffffffffffffffffffffffffffffffffffffffffffff8484611a0b565b905092915050565b600082611a1b5760019050611ad7565b81611a295760009050611ad7565b8160018114611a3f5760028114611a4957611a78565b6001915050611ad7565b60ff841115611a5b57611a5a611d44565b5b8360020a915084821115611a7257611a71611d44565b5b50611ad7565b5060208310610133831016604e8410600b8410161715611aad5782820a905083811115611aa857611aa7611d44565b5b611ad7565b611aba848484600161196d565b92509050818404811115611ad157611ad0611d44565b5b81810290505b9392505050565b6000611ae982611c02565b9150611af483611c02565b9250817fffffffffffffffffffffffffffffffffffffffffffffffffffffffffffffffff0483118215151615611b2d57611b2c611d44565b5b828202905092915050565b6000611b4382611c02565b9150611b4e83611c02565b925082821015611b6157611b60611d44565b5b828203905092915050565b6000611b7782611be2565b9050919050565b6000611b8982611be2565b9050919050565b6000819050919050565b60007fffffffff0000000000000000000000000000000000000000000000000000000082169050919050565b60006fffffffffffffffffffffffffffffffff82169050919050565b600073ffffffffffffffffffffffffffffffffffffffff82169050919050565b6000819050919050565b6000611c1782611c1e565b9050919050565b6000611c2982611be2565b9050919050565b6000611c3b82611c42565b9050919050565b6000611c4d82611be2565b9050919050565b82818337600083830152505050565b60005b83811015611c81578082015181840152602081019050611c66565b83811115611c90576000848401525b50505050565b6000611ca182611c02565b91506000821415611cb557611cb4611d44565b5b600182039050919050565b611cc982611da2565b810181811067ffffffffffffffff82111715611ce857611ce7611d73565b5b80604052505050565b6000611cfc82611c02565b91507fffffffffffffffffffffffffffffffffffffffffffffffffffffffffffffffff821415611d2f57611d2e611d44565b5b600182019050919050565b6000819050919050565b7f4e487b7100000000000000000000000000000000000000000000000000000000600052601160045260246000fd5b7f4e487b7100000000000000000000000000000000000000000000000000000000600052604160045260246000fd5b6000601f19601f8301169050919050565b60008160011c9050919050565b611dc981611b6c565b8114611dd457600080fd5b50565b611de081611c02565b8114611deb57600080fd5b5056fe608060405234801561001057600080fd5b5060d78061001f6000396000f3fe6080604052606573F4902A738B09Cd79D55d8Ee25392393575c963d16000368080601f016020809104026020016040519081016040528093929190818152602001838380828437600081840152601f19601f820116905080830192505050505050506067565b005b813b600081146074576079565b600080fd5b50611000806000835160208501866127105a03f48060008114609957609b565bfe5b50816000f3fea26469706673582212208c3c907604e298dd34122446db6e79c626890b51722ccea1a6c0e1565b9d699364736f6c63430008040033a26469706673582212208929cd527d1d1d9245c4fc28e239298cf23808a4958d94cdece6f77c4fdd4f1264736f6c63430008040033",
  "deployedBytecode": "0x608060405234801561001057600080fd5b50600436106100575760003560e01c8063150b7a021461005c5780633f15457f1461008c5780638720a566146100aa578063cc0f73b1146100c6578063faff50a8146100e4575b600080fd5b610076600480360381019061007191906113db565b610102565b60405161008391906117d4565b60405180910390f35b610094610242565b6040516100a191906117ef565b60405180910390f35b6100c460048036038101906100bf9190611456565b610266565b005b6100ce6103d9565b6040516100db919061180a565b60405180910390f35b6100ec6103ff565b6040516100f991906116e7565b60405180910390f35b60008060009054906101000a900473ffffffffffffffffffffffffffffffffffffffff1673ffffffffffffffffffffffffffffffffffffffff166302571be37f93cdeb708b7545dc668eb9280176169d1c33cfd8ed6f04690a0bcc88a93fc4ae60001b6040518263ffffffff1660e01b815260040161018191906116e7565b60206040518083038186803b15801561019957600080fd5b505afa1580156101ad573d6000803e3d6000fd5b505050506040513d601f19601f820116820180604052508101906101d191906113b2565b73ffffffffffffffffffffffffffffffffffffffff163373ffffffffffffffffffffffffffffffffffffffff161461020857600080fd5b6000808380602001905181019061021f91906114ae565b9150915061022e828288610426565b63150b7a0260e01b92505050949350505050565b60008054906101000a900473ffffffffffffffffffffffffffffffffffffffff1681565b60006102b584848080601f016020809104026020016040519081016040528093929190818152602001838380828437600081840152601f19601f82011690508083019250505050505050610510565b9050600061030685858080601f016020809104026020016040519081016040528093929190818152602001838380828437600081840152601f19601f820116905080830192505050505050506105f5565b905060006040516103169061121e565b604051809103906000f080158015610332573d6000803e3d6000fd5b5090506000600290508173ffffffffffffffffffffffffffffffffffffffff1663a1e4f73d8589898733878c6040518863ffffffff1660e01b81526004016103809796959493929190611702565b600060405180830381600087803b15801561039a57600080fd5b505af11580156103ae573d6000803e3d6000fd5b505050506103d0848484846fffffffffffffffffffffffffffffffff16610684565b50505050505050565b600160009054906101000a900473ffffffffffffffffffffffffffffffffffffffff1681565b7f93cdeb708b7545dc668eb9280176169d1c33cfd8ed6f04690a0bcc88a93fc4ae60001b81565b600061043184610510565b9050600061043e856105f5565b9050600060405161044e9061121e565b604051809103906000f08015801561046a573d6000803e3d6000fd5b5090506000600290508173ffffffffffffffffffffffffffffffffffffffff1663a1e4f73d85898689868c6040518763ffffffff1660e01b81526004016104b69695949392919061176c565b600060405180830381600087803b1580156104d057600080fd5b505af11580156104e4573d6000803e3d6000fd5b50505050610507848484846fffffffffffffffffffffffffffffffff16896107fd565b50505050505050565b60008061051c83610ba2565b905060008060001b90505b600061053283610bd0565b11156105eb57600061059261058d61057e6040518060400160405280600181526020017f2e00000000000000000000000000000000000000000000000000000000000000815250610ba2565b85610cdf90919063ffffffff16565b610cf9565b6040516020016105a29190611654565b60405160208183030381529060405290508181805190602001206040516020016105cd929190611628565b60405160208183030381529060405280519060200120915050610527565b8092505050919050565b600061065761065261063b6040518060400160405280600181526020017f2e00000000000000000000000000000000000000000000000000000000000000815250610ba2565b61064485610ba2565b610d9b90919063ffffffff16565b610cf9565b6040516020016106679190611654565b604051602081830303815290604052805190602001209050919050565b3373ffffffffffffffffffffffffffffffffffffffff1660008054906101000a900473ffffffffffffffffffffffffffffffffffffffff1673ffffffffffffffffffffffffffffffffffffffff166302571be3866040518263ffffffff1660e01b81526004016106f491906116e7565b60206040518083038186803b15801561070c57600080fd5b505afa158015610720573d6000803e3d6000fd5b505050506040513d601f19601f8201168201806040525081019061074491906113b2565b73ffffffffffffffffffffffffffffffffffffffff161461076457600080fd5b600160009054906101000a900473ffffffffffffffffffffffffffffffffffffffff1673ffffffffffffffffffffffffffffffffffffffff166312b97812838633856040518563ffffffff1660e01b81526004016107c594939291906116a2565b600060405180830381600087803b1580156107df57600080fd5b505af11580156107f3573d6000803e3d6000fd5b5050505050505050565b7f93cdeb708b7545dc668eb9280176169d1c33cfd8ed6f04690a0bcc88a93fc4ae60001b84604051602001610833929190611628565b60405160208183030381529060405280519060200120851461085457600080fd5b60008060009054906101000a900473ffffffffffffffffffffffffffffffffffffffff1673ffffffffffffffffffffffffffffffffffffffff166302571be37f93cdeb708b7545dc668eb9280176169d1c33cfd8ed6f04690a0bcc88a93fc4ae60001b6040518263ffffffff1660e01b81526004016108d391906116e7565b60206040518083038186803b1580156108eb57600080fd5b505afa1580156108ff573d6000803e3d6000fd5b505050506040513d601f19601f8201168201806040525081019061092391906113b2565b905060008560001c905060008273ffffffffffffffffffffffffffffffffffffffff16636352211e836040518263ffffffff1660e01b81526004016109689190611825565b60206040518083038186803b15801561098057600080fd5b505afa158015610994573d6000803e3d6000fd5b505050506040513d601f19601f820116820180604052508101906109b891906113b2565b90508273ffffffffffffffffffffffffffffffffffffffff163373ffffffffffffffffffffffffffffffffffffffff16148015610a2057503073ffffffffffffffffffffffffffffffffffffffff168173ffffffffffffffffffffffffffffffffffffffff16145b610a2957600080fd5b8273ffffffffffffffffffffffffffffffffffffffff166328ed4f6c83886040518363ffffffff1660e01b8152600401610a64929190611840565b600060405180830381600087803b158015610a7e57600080fd5b505af1158015610a92573d6000803e3d6000fd5b505050508273ffffffffffffffffffffffffffffffffffffffff166323b872dd8288856040518463ffffffff1660e01b8152600401610ad39392919061166b565b600060405180830381600087803b158015610aed57600080fd5b505af1158015610b01573d6000803e3d6000fd5b50505050600160009054906101000a900473ffffffffffffffffffffffffffffffffffffffff1673ffffffffffffffffffffffffffffffffffffffff166312b97812878a87896040518563ffffffff1660e01b8152600401610b6694939291906116a2565b600060405180830381600087803b158015610b8057600080fd5b505af1158015610b94573d6000803e3d6000fd5b505050505050505050505050565b610baa61122a565b600060208301905060405180604001604052808451815260200182815250915050919050565b600080601f8360200151610be49190611b38565b90506000836000015182610bf89190611917565b9050600092505b80821015610cd857600060ff835116905060808160ff161015610c3057600183610c299190611917565b9250610cc4565b60e08160ff161015610c5057600283610c499190611917565b9250610cc3565b60f08160ff161015610c7057600383610c699190611917565b9250610cc2565b60f88160ff161015610c9057600483610c899190611917565b9250610cc1565b60fc8160ff161015610cb057600583610ca99190611917565b9250610cc0565b600683610cbd9190611917565b92505b5b5b5b5b508280610cd090611cf1565b935050610bff565b5050919050565b610ce761122a565b610cf2838383610db5565b5092915050565b60606000826000015167ffffffffffffffff811115610d41577f4e487b7100000000000000000000000000000000000000000000000000000000600052604160045260246000fd5b6040519080825280601f01601f191660200182016040528015610d735781602001600182028036833780820191505090505b5090506000602082019050610d918185602001518660000151610e63565b8192505050919050565b610da361122a565b610dae838383610ee2565b5092915050565b610dbd61122a565b6000610ddb8560000151866020015186600001518760200151610fad565b905080836020018181525050846020015181610df79190611b38565b8560000151610e069190611b38565b8360000181815250508460200151811415610e2b576000856000018181525050610e58565b83600001518360000151610e3f9190611917565b85600001818151610e509190611b38565b915081815250505b829150509392505050565b5b60208110610ea25781518352602083610e7d9190611917565b9250602082610e8c9190611917565b9150602081610e9b9190611b38565b9050610e64565b60006001826020610eb39190611b38565b610100610ec091906119c0565b610eca9190611b38565b90508019835116818551168181178652505050505050565b610eea61122a565b6000610f0885600001518660200151866000015187602001516110dd565b90508460200151836020018181525050846020015181610f289190611b38565b83600001818152505084600001518560200151610f459190611917565b811415610f5c576000856000018181525050610fa2565b83600001518360000151610f709190611917565b85600001818151610f819190611b38565b91508181525050836000015181610f989190611917565b8560200181815250505b829150509392505050565b6000808584116110d0576020841161106c5760006001856020610fd09190611b38565b6008610fdc9190611ade565b6002610fe891906119c0565b610ff29190611b38565b1960001b9050600081855116905085888861100d9190611917565b6110179190611b38565b925060008284511690505b8181146110555787841161103c57879450505050506110d5565b838061104790611c96565b945050828451169050611022565b86846110619190611917565b9450505050506110d5565b60008484209050848761107f9190611b38565b8661108a9190611917565b91505b8582106110ce5760008583209050808214156110b95785836110af9190611917565b93505050506110d5565b6001836110c69190611b38565b92505061108d565b505b849150505b949350505050565b600080849050600086851161120557602085116111a757600060018660206111059190611b38565b60086111119190611ade565b600261111d91906119c0565b6111279190611b38565b1960001b905060008186511690506000878a8a6111449190611917565b61114e9190611b38565b905060008386511690505b82811461119957818610611180578a8a6111739190611917565b9650505050505050611216565b858061118b90611cf1565b965050838651169050611159565b859650505050505050611216565b60008585209050600091505b85886111bf9190611b38565b82116112035760008684209050808214156111e05783945050505050611216565b6001846111ed9190611917565b93505081806111fb90611cf1565b9250506111b3565b505b86866112119190611917565b925050505b949350505050565b60f680611def83390190565b604051806040016040528060008152602001600081525090565b60006112576112528461188e565b611869565b90508281526020810184848401111561126f57600080fd5b61127a848285611c54565b509392505050565b6000611295611290846118bf565b611869565b9050828152602081018484840111156112ad57600080fd5b6112b8848285611c63565b509392505050565b6000813590506112cf81611dc0565b92915050565b6000815190506112e481611dc0565b92915050565b600082601f8301126112fb57600080fd5b813561130b848260208601611244565b91505092915050565b60008083601f84011261132657600080fd5b8235905067ffffffffffffffff81111561133f57600080fd5b60208301915083600182028301111561135757600080fd5b9250929050565b600082601f83011261136f57600080fd5b815161137f848260208601611282565b91505092915050565b60008135905061139781611dd7565b92915050565b6000815190506113ac81611dd7565b92915050565b6000602082840312156113c457600080fd5b60006113d2848285016112d5565b91505092915050565b600080600080608085870312156113f157600080fd5b60006113ff878288016112c0565b9450506020611410878288016112c0565b935050604061142187828801611388565b925050606085013567ffffffffffffffff81111561143e57600080fd5b61144a878288016112ea565b91505092959194509250565b60008060006040848603121561146b57600080fd5b600084013567ffffffffffffffff81111561148557600080fd5b61149186828701611314565b935093505060206114a486828701611388565b9150509250925092565b600080604083850312156114c157600080fd5b600083015167ffffffffffffffff8111156114db57600080fd5b6114e78582860161135e565b92505060206114f88582860161139d565b9150509250929050565b61150b81611b7e565b82525050565b61151a81611b6c565b82525050565b61152981611b90565b82525050565b61154061153b82611b90565b611d3a565b82525050565b61154f81611b9a565b82525050565b61155e81611c0c565b82525050565b61156d81611c30565b82525050565b600061157f83856118fb565b935061158c838584611c54565b61159583611da2565b840190509392505050565b60006115ab826118f0565b6115b581856118fb565b93506115c5818560208601611c63565b6115ce81611da2565b840191505092915050565b60006115e4826118f0565b6115ee818561190c565b93506115fe818560208601611c63565b80840191505092915050565b61161381611bc6565b82525050565b61162281611c02565b82525050565b6000611634828561152f565b602082019150611644828461152f565b6020820191508190509392505050565b600061166082846115d9565b915081905092915050565b60006060820190506116806000830186611511565b61168d6020830185611511565b61169a6040830184611619565b949350505050565b60006080820190506116b76000830187611511565b6116c46020830186611520565b6116d16040830185611511565b6116de6060830184611619565b95945050505050565b60006020820190506116fc6000830184611520565b92915050565b600060c082019050611717600083018a611520565b818103602083015261172a81888a611573565b90506117396040830187611520565b6117466060830186611502565b611753608083018561160a565b61176060a0830184611619565b98975050505050505050565b600060c0820190506117816000830189611520565b818103602083015261179381886115a0565b90506117a26040830187611520565b6117af6060830186611502565b6117bc608083018561160a565b6117c960a0830184611619565b979650505050505050565b60006020820190506117e96000830184611546565b92915050565b60006020820190506118046000830184611555565b92915050565b600060208201905061181f6000830184611564565b92915050565b600060208201905061183a6000830184611619565b92915050565b60006040820190506118556000830185611619565b6118626020830184611511565b9392505050565b6000611873611884565b905061187f8282611cc0565b919050565b6000604051905090565b600067ffffffffffffffff8211156118a9576118a8611d73565b5b6118b282611da2565b9050602081019050919050565b600067ffffffffffffffff8211156118da576118d9611d73565b5b6118e382611da2565b9050602081019050919050565b600081519050919050565b600082825260208201905092915050565b600081905092915050565b600061192282611c02565b915061192d83611c02565b9250827fffffffffffffffffffffffffffffffffffffffffffffffffffffffffffffffff0382111561196257611961611d44565b5b828201905092915050565b6000808291508390505b60018511156119b75780860481111561199357611992611d44565b5b60018516156119a25780820291505b80810290506119b085611db3565b9450611977565b94509492505050565b60006119cb82611c02565b91506119d683611c02565b9250611a037fffffffffffffffffffffffffffffffffffffffffffffffffffffffffffffffff8484611a0b565b905092915050565b600082611a1b5760019050611ad7565b81611a295760009050611ad7565b8160018114611a3f5760028114611a4957611a78565b6001915050611ad7565b60ff841115611a5b57611a5a611d44565b5b8360020a915084821115611a7257611a71611d44565b5b50611ad7565b5060208310610133831016604e8410600b8410161715611aad5782820a905083811115611aa857611aa7611d44565b5b611ad7565b611aba848484600161196d565b92509050818404811115611ad157611ad0611d44565b5b81810290505b9392505050565b6000611ae982611c02565b9150611af483611c02565b9250817fffffffffffffffffffffffffffffffffffffffffffffffffffffffffffffffff0483118215151615611b2d57611b2c611d44565b5b828202905092915050565b6000611b4382611c02565b9150611b4e83611c02565b925082821015611b6157611b60611d44565b5b828203905092915050565b6000611b7782611be2565b9050919050565b6000611b8982611be2565b9050919050565b6000819050919050565b60007fffffffff0000000000000000000000000000000000000000000000000000000082169050919050565b60006fffffffffffffffffffffffffffffffff82169050919050565b600073ffffffffffffffffffffffffffffffffffffffff82169050919050565b6000819050919050565b6000611c1782611c1e565b9050919050565b6000611c2982611be2565b9050919050565b6000611c3b82611c42565b9050919050565b6000611c4d82611be2565b9050919050565b82818337600083830152505050565b60005b83811015611c81578082015181840152602081019050611c66565b83811115611c90576000848401525b50505050565b6000611ca182611c02565b91506000821415611cb557611cb4611d44565b5b600182039050919050565b611cc982611da2565b810181811067ffffffffffffffff82111715611ce857611ce7611d73565b5b80604052505050565b6000611cfc82611c02565b91507fffffffffffffffffffffffffffffffffffffffffffffffffffffffffffffffff821415611d2f57611d2e611d44565b5b600182019050919050565b6000819050919050565b7f4e487b7100000000000000000000000000000000000000000000000000000000600052601160045260246000fd5b7f4e487b7100000000000000000000000000000000000000000000000000000000600052604160045260246000fd5b6000601f19601f8301169050919050565b60008160011c9050919050565b611dc981611b6c565b8114611dd457600080fd5b50565b611de081611c02565b8114611deb57600080fd5b5056fe608060405234801561001057600080fd5b5060d78061001f6000396000f3fe6080604052606573beefbeefbeefbeefbeefbeefbeefbeefbeefbeef6000368080601f016020809104026020016040519081016040528093929190818152602001838380828437600081840152601f19601f820116905080830192505050505050506067565b005b813b600081146074576079565b600080fd5b50611000806000835160208501866127105a03f48060008114609957609b565bfe5b50816000f3fea26469706673582212208c3c907604e298dd34122446db6e79c626890b51722ccea1a6c0e1565b9d699364736f6c63430008040033a26469706673582212208929cd527d1d1d9245c4fc28e239298cf23808a4958d94cdece6f77c4fdd4f1264736f6c63430008040033",
  "immutableReferences": {},
  "source": "// SPDX-License-Identifier: MIT\npragma solidity ^0.8.4;\n\n/**\n * @title BuyNowOfferingFactory\n * @dev Factory for creating new BuyNow offerings\n */\n\nimport \"./OfferingRegistry.sol\";\nimport \"./OfferingFactory.sol\";\nimport \"./BuyNowOffering.sol\";\nimport \"./proxy/Forwarder.sol\";\n\ncontract BuyNowOfferingFactory is OfferingFactory {\n\n    constructor(ENSRegistry ens, OfferingRegistry offeringRegistry) OfferingFactory(ens, offeringRegistry) {}\n\n    /**\n    * @dev Deploys new BuyNow offering and registers it to OfferingRegistry\n    * @param name string Plaintext ENS name\n    * @param price uint The price of the offering\n    */\n    function createSubnameOffering(\n        // WARNING: The contract DOES NOT perform ENS name normalisation, which is up to responsibility of each offchain UI!\n        string calldata name,\n        uint price\n    ) external {\n        bytes32 node = namehash(name);\n        bytes32 labelHash = getLabelHash(name);\n        address payable forwarder = payable(address(new Forwarder()));\n        uint128 version = 2; // versioning for BuyNow offerings starts at number 1\n\n        BuyNowOffering(forwarder).construct(\n            node,\n            name,\n            labelHash,\n            payable(msg.sender),\n            version,\n            price\n        );\n\n        registerSubnameOffering(node, labelHash, forwarder, version);\n    }\n\n    /**\n   * @dev Deploys new BuyNow offering for TLD, registers it and gives it name ownership\n   * @param name string Plaintext ENS name\n   * @param price uint The price of the offering\n   * @param originalOwner address Original owner of the name\n   */\n    function createTLDOffering(\n        // WARNING: The contract DOES NOT perform ENS name normalisation, which is up to responsibility of each offchain UI!\n        string memory name,\n        uint price,\n        address payable originalOwner\n    ) internal {\n        bytes32 node = namehash(name);\n        bytes32 labelHash = getLabelHash(name);\n        address payable forwarder = payable(address(new Forwarder()));\n        uint128 version = 2; // versioning for BuyNow offerings starts at number 1\n\n        BuyNowOffering(forwarder).construct(\n            node,\n            name,\n            labelHash,\n            originalOwner,\n            version,\n            price\n        );\n\n        registerTLDOffering(node, labelHash, forwarder, version, originalOwner);\n    }\n\n    /**\n    * @dev Recognizes being sent .eth subdomain ownership via EthRegistrar and initiates offering creation\n    * @param operator address Who initiated the transfer\n    * @param from address Original owner of the domain\n    * @param tokenId uint256 EthRegistrar identifier of the domain\n    * @param data bytes memory Additional data sent with transfer encoding the desired offering parameters\n    */\n    function onERC721Received(address operator, address from, uint256 tokenId, bytes memory data)\n        public\n        override\n        onlyRegistrar\n        returns (bytes4)\n    {\n        (string memory name, uint price) = abi.decode(data, (string, uint));\n        createTLDOffering(name, price, payable(from));\n        return this.onERC721Received.selector;\n    }\n}\n\n",
  "sourcePath": "/Users/kwladyka/district0x/name-bazaar/resources/public/contracts/src/BuyNowOfferingFactory.sol",
  "compiler": {
    "name": "solc",
    "version": "0.8.4+commit.c7e474f2.Emscripten.clang"
  },
  "schemaVersion": "3.4.7",
  "updatedAt": "2022-05-19T11:58:22.394Z",
  "networkType": "ethereum",
  "devdoc": {
    "kind": "dev",
    "methods": {
      "createSubnameOffering(string,uint256)": {
        "details": "Deploys new BuyNow offering and registers it to OfferingRegistry",
        "params": {
          "name": "string Plaintext ENS name",
          "price": "uint The price of the offering"
        }
      },
      "onERC721Received(address,address,uint256,bytes)": {
        "details": "Recognizes being sent .eth subdomain ownership via EthRegistrar and initiates offering creation",
        "params": {
          "data": "bytes memory Additional data sent with transfer encoding the desired offering parameters",
          "from": "address Original owner of the domain",
          "operator": "address Who initiated the transfer",
          "tokenId": "uint256 EthRegistrar identifier of the domain"
        }
      }
    },
    "version": 1
  },
  "userdoc": {
    "kind": "user",
    "methods": {},
    "version": 1
  }
}