{
  "contractName": "BuyNowOffering",
  "abi": [
    {
      "inputs": [
        {
          "internalType": "bytes32",
          "name": "_node",
          "type": "bytes32"
        },
        {
          "internalType": "string",
          "name": "_name",
          "type": "string"
        },
        {
          "internalType": "bytes32",
          "name": "_labelHash",
          "type": "bytes32"
        },
        {
          "internalType": "address payable",
          "name": "_originalOwner",
          "type": "address"
        },
        {
          "internalType": "uint128",
          "name": "_version",
          "type": "uint128"
        },
        {
          "internalType": "uint256",
          "name": "_price",
          "type": "uint256"
        }
      ],
      "name": "construct",
      "outputs": [],
      "stateMutability": "nonpayable",
      "type": "function"
    },
    {
      "inputs": [],
      "name": "emergencyMultisig",
      "outputs": [
        {
          "internalType": "address",
          "name": "",
          "type": "address"
        }
      ],
      "stateMutability": "view",
      "type": "function",
      "constant": true
    },
    {
      "inputs": [],
      "name": "ens",
      "outputs": [
        {
          "internalType": "contract ENSRegistry",
          "name": "",
          "type": "address"
        }
      ],
      "stateMutability": "view",
      "type": "function",
      "constant": true
    },
    {
      "inputs": [],
      "name": "isContractNodeOwner",
      "outputs": [
        {
          "internalType": "bool",
          "name": "",
          "type": "bool"
        }
      ],
      "stateMutability": "view",
      "type": "function",
      "constant": true
    },
    {
      "inputs": [],
      "name": "isNodeTLDOfRegistrar",
      "outputs": [
        {
          "internalType": "bool",
          "name": "",
          "type": "bool"
        }
      ],
      "stateMutability": "view",
      "type": "function",
      "constant": true
    },
    {
      "inputs": [],
      "name": "isSenderEmergencyMultisig",
      "outputs": [
        {
          "internalType": "bool",
          "name": "",
          "type": "bool"
        }
      ],
      "stateMutability": "view",
      "type": "function",
      "constant": true
    },
    {
      "inputs": [],
      "name": "isSenderOriginalOwner",
      "outputs": [
        {
          "internalType": "bool",
          "name": "",
          "type": "bool"
        }
      ],
      "stateMutability": "view",
      "type": "function",
      "constant": true
    },
    {
      "inputs": [],
      "name": "offering",
      "outputs": [
        {
          "internalType": "bytes32",
          "name": "node",
          "type": "bytes32"
        },
        {
          "internalType": "string",
          "name": "name",
          "type": "string"
        },
        {
          "internalType": "bytes32",
          "name": "labelHash",
          "type": "bytes32"
        },
        {
          "internalType": "address payable",
          "name": "originalOwner",
          "type": "address"
        },
        {
          "internalType": "address",
          "name": "newOwner",
          "type": "address"
        },
        {
          "internalType": "uint256",
          "name": "price",
          "type": "uint256"
        },
        {
          "internalType": "uint128",
          "name": "version",
          "type": "uint128"
        },
        {
          "internalType": "uint64",
          "name": "createdOn",
          "type": "uint64"
        },
        {
          "internalType": "uint64",
          "name": "finalizedOn",
          "type": "uint64"
        }
      ],
      "stateMutability": "view",
      "type": "function",
      "constant": true
    },
    {
      "inputs": [],
      "name": "offeringRegistry",
      "outputs": [
        {
          "internalType": "contract OfferingRegistry",
          "name": "",
          "type": "address"
        }
      ],
      "stateMutability": "view",
      "type": "function",
      "constant": true
    },
    {
      "inputs": [],
      "name": "reclaimOwnership",
      "outputs": [],
      "stateMutability": "nonpayable",
      "type": "function"
    },
    {
      "inputs": [],
      "name": "rootNode",
      "outputs": [
        {
          "internalType": "bytes32",
          "name": "",
          "type": "bytes32"
        }
      ],
      "stateMutability": "view",
      "type": "function",
      "constant": true
    },
    {
      "inputs": [],
      "name": "unregister",
      "outputs": [],
      "stateMutability": "nonpayable",
      "type": "function"
    },
    {
      "inputs": [],
      "name": "wasEmergencyCancelled",
      "outputs": [
        {
          "internalType": "bool",
          "name": "",
          "type": "bool"
        }
      ],
      "stateMutability": "view",
      "type": "function",
      "constant": true
    },
    {
      "stateMutability": "payable",
      "type": "receive",
      "payable": true
    },
    {
      "inputs": [],
      "name": "buy",
      "outputs": [],
      "stateMutability": "payable",
      "type": "function",
      "payable": true
    },
    {
      "inputs": [
        {
          "internalType": "uint256",
          "name": "_price",
          "type": "uint256"
        }
      ],
      "name": "setSettings",
      "outputs": [],
      "stateMutability": "nonpayable",
      "type": "function"
    }
  ],
  "bytecode": "0x608060405234801561001057600080fd5b506120d1806100206000396000f3fe6080604052600436106100ec5760003560e01c8063a6f2ae3a1161008a578063d1dbcd7011610059578063d1dbcd70146102a8578063dc6af758146102d3578063e79a198f146102fe578063faff50a814610315576100fb565b8063a6f2ae3a14610229578063b266cb0114610233578063c1c8277f14610266578063cc0f73b11461027d576100fb565b806363862fd5116100c657806363862fd5146101815780636741629c146101ac5780637cd6a7fd146101d7578063a1e4f73d14610200576100fb565b806329ae4c70146101005780633f15457f1461012b5780634419cd8114610156576100fb565b366100fb576100f9610340565b005b600080fd5b34801561010c57600080fd5b5061011561056b565b6040516101229190611a35565b60405180910390f35b34801561013757600080fd5b506101406105b5565b60405161014d9190611b28565b60405180910390f35b34801561016257600080fd5b5061016b6105cd565b6040516101789190611a35565b60405180910390f35b34801561018d57600080fd5b50610196610841565b6040516101a39190611a35565b60405180910390f35b3480156101b857600080fd5b506101c161089b565b6040516101ce9190611a35565b60405180910390f35b3480156101e357600080fd5b506101fe60048036038101906101f991906117eb565b6108f8565b005b34801561020c57600080fd5b506102276004803603810190610222919061174a565b61099c565b005b610231610340565b005b34801561023f57600080fd5b50610248610b52565b60405161025d99989796959493929190611a94565b60405180910390f35b34801561027257600080fd5b5061027b610c9a565b005b34801561028957600080fd5b50610292610dd2565b60405161029f9190611b43565b60405180910390f35b3480156102b457600080fd5b506102bd610dea565b6040516102ca9190611a35565b60405180910390f35b3480156102df57600080fd5b506102e8610e48565b6040516102f591906119e3565b60405180910390f35b34801561030a57600080fd5b50610313610e60565b005b34801561032157600080fd5b5061032a610f54565b6040516103379190611a50565b60405180910390f35b600060050154341461035157600080fd5b6000620f424073D10a7051f12b60fd7728bc8E867883E01e6Db3Cb73ffffffffffffffffffffffffffffffffffffffff16636aa4716e6040518163ffffffff1660e01b815260040160206040518083038186803b1580156103b157600080fd5b505afa1580156103c5573d6000803e3d6000fd5b505050506040513d601f19601f820116820180604052508101906103e99190611814565b63ffffffff166000600501546103ff9190611cbc565b6104099190611c8b565b905073D10a7051f12b60fd7728bc8E867883E01e6Db3Cb73ffffffffffffffffffffffffffffffffffffffff1663dc6af7586040518163ffffffff1660e01b815260040160206040518083038186803b15801561046557600080fd5b505afa158015610479573d6000803e3d6000fd5b505050506040513d601f19601f8201168201806040525081019061049d91906116f8565b73ffffffffffffffffffffffffffffffffffffffff166108fc829081150290604051600060405180830381858888f193505050501580156104e2573d6000803e3d6000fd5b50600060030160009054906101000a900473ffffffffffffffffffffffffffffffffffffffff1673ffffffffffffffffffffffffffffffffffffffff166108fc826000600501546105339190611d16565b9081150290604051600060405180830381858888f1935050505015801561055e573d6000803e3d6000fd5b5061056833610f7b565b50565b600073F38fbEe6dD934BeCabDA5a8a74089689648429d973ffffffffffffffffffffffffffffffffffffffff163373ffffffffffffffffffffffffffffffffffffffff1614905090565b73d567d7C66a32b3475Df764D11e6556e0D2b547c581565b60006105d7610dea565b1561076c576000806002015460001c9050600073d567d7C66a32b3475Df764D11e6556e0D2b547c573ffffffffffffffffffffffffffffffffffffffff166302571be37f93cdeb708b7545dc668eb9280176169d1c33cfd8ed6f04690a0bcc88a93fc4ae60001b6040518263ffffffff1660e01b815260040161065a9190611a50565b60206040518083038186803b15801561067257600080fd5b505afa158015610686573d6000803e3d6000fd5b505050506040513d601f19601f820116820180604052508101906106aa91906116cf565b73ffffffffffffffffffffffffffffffffffffffff16636352211e836040518263ffffffff1660e01b81526004016106e29190611b9c565b60206040518083038186803b1580156106fa57600080fd5b505afa15801561070e573d6000803e3d6000fd5b505050506040513d601f19601f8201168201806040525081019061073291906116cf565b90503073ffffffffffffffffffffffffffffffffffffffff168173ffffffffffffffffffffffffffffffffffffffff16149250505061083e565b3073ffffffffffffffffffffffffffffffffffffffff1673d567d7C66a32b3475Df764D11e6556e0D2b547c573ffffffffffffffffffffffffffffffffffffffff166302571be360008001546040518263ffffffff1660e01b81526004016107d49190611a50565b60206040518083038186803b1580156107ec57600080fd5b505afa158015610800573d6000803e3d6000fd5b505050506040513d601f19601f8201168201806040525081019061082491906116cf565b73ffffffffffffffffffffffffffffffffffffffff161490505b90565b60008060030160009054906101000a900473ffffffffffffffffffffffffffffffffffffffff1673ffffffffffffffffffffffffffffffffffffffff163373ffffffffffffffffffffffffffffffffffffffff1614905090565b600061dead73ffffffffffffffffffffffffffffffffffffffff16600060040160009054906101000a900473ffffffffffffffffffffffffffffffffffffffff1673ffffffffffffffffffffffffffffffffffffffff1614905090565b610900610841565b61090957600080fd5b600073ffffffffffffffffffffffffffffffffffffffff16600060040160009054906101000a900473ffffffffffffffffffffffffffffffffffffffff1673ffffffffffffffffffffffffffffffffffffffff161461096757600080fd5b6109708161111a565b6109997f73657453657474696e6773000000000000000000000000000000000000000000611127565b50565b73D10a7051f12b60fd7728bc8E867883E01e6Db3Cb73ffffffffffffffffffffffffffffffffffffffff1663290d10c46040518163ffffffff1660e01b815260040160206040518083038186803b1580156109f657600080fd5b505afa158015610a0a573d6000803e3d6000fd5b505050506040513d601f19601f82011682018060405250810190610a2e9190611721565b15610a3857600080fd5b60008060060160109054906101000a900467ffffffffffffffff1667ffffffffffffffff1614610a6757600080fd5b8560008001819055508460006001019080519060200190610a8992919061151c565b508360006002018190555082600060030160006101000a81548173ffffffffffffffffffffffffffffffffffffffff021916908373ffffffffffffffffffffffffffffffffffffffff16021790555081600060060160006101000a8154816fffffffffffffffffffffffffffffffff02191690836fffffffffffffffffffffffffffffffff16021790555042600060060160106101000a81548167ffffffffffffffff021916908367ffffffffffffffff16021790555080600060050181905550505050505050565b6000806000015490806001018054610b6990611ec0565b80601f0160208091040260200160405190810160405280929190818152602001828054610b9590611ec0565b8015610be25780601f10610bb757610100808354040283529160200191610be2565b820191906000526020600020905b815481529060010190602001808311610bc557829003601f168201915b5050505050908060020154908060030160009054906101000a900473ffffffffffffffffffffffffffffffffffffffff16908060040160009054906101000a900473ffffffffffffffffffffffffffffffffffffffff16908060050154908060060160009054906101000a90046fffffffffffffffffffffffffffffffff16908060060160109054906101000a900467ffffffffffffffff16908060060160189054906101000a900467ffffffffffffffff16905089565b600073ffffffffffffffffffffffffffffffffffffffff16600060040160009054906101000a900473ffffffffffffffffffffffffffffffffffffffff1673ffffffffffffffffffffffffffffffffffffffff1614610cf857600080fd5b6000610d0261056b565b90508080610d145750610d13610841565b5b610d1d57600080fd5b610d256105cd565b15610d5957610d58600060030160009054906101000a900473ffffffffffffffffffffffffffffffffffffffff166111a3565b5b8015610da65761dead600060040160006101000a81548173ffffffffffffffffffffffffffffffffffffffff021916908373ffffffffffffffffffffffffffffffffffffffff1602179055505b610dcf7f7265636c61696d4f776e65727368697000000000000000000000000000000000611127565b50565b73D10a7051f12b60fd7728bc8E867883E01e6Db3Cb81565b60007f93cdeb708b7545dc668eb9280176169d1c33cfd8ed6f04690a0bcc88a93fc4ae60001b600060020154604051602001610e279291906119b7565b60405160208183030381529060405280519060200120600080015414905090565b73F38fbEe6dD934BeCabDA5a8a74089689648429d981565b610e68610841565b610e7157600080fd5b600073ffffffffffffffffffffffffffffffffffffffff16600060040160009054906101000a900473ffffffffffffffffffffffffffffffffffffffff1673ffffffffffffffffffffffffffffffffffffffff1614610ecf57600080fd5b610ed76105cd565b15610ee157600080fd5b63deaddead600060040160006101000a81548173ffffffffffffffffffffffffffffffffffffffff021916908373ffffffffffffffffffffffffffffffffffffffff160217905550610f527f756e726567697374657200000000000000000000000000000000000000000000611127565b565b7f93cdeb708b7545dc668eb9280176169d1c33cfd8ed6f04690a0bcc88a93fc4ae60001b81565b73D10a7051f12b60fd7728bc8E867883E01e6Db3Cb73ffffffffffffffffffffffffffffffffffffffff1663290d10c46040518163ffffffff1660e01b815260040160206040518083038186803b158015610fd557600080fd5b505afa158015610fe9573d6000803e3d6000fd5b505050506040513d601f19601f8201168201806040525081019061100d9190611721565b1561101757600080fd5b600073ffffffffffffffffffffffffffffffffffffffff16600060040160009054906101000a900473ffffffffffffffffffffffffffffffffffffffff1673ffffffffffffffffffffffffffffffffffffffff161461107557600080fd5b80600060040160006101000a81548173ffffffffffffffffffffffffffffffffffffffff021916908373ffffffffffffffffffffffffffffffffffffffff16021790555042600060060160186101000a81548167ffffffffffffffff021916908367ffffffffffffffff1602179055506110ee816111a3565b6111177f66696e616c697a65000000000000000000000000000000000000000000000000611127565b50565b8060006005018190555050565b6111a081600067ffffffffffffffff81111561116c577f4e487b7100000000000000000000000000000000000000000000000000000000600052604160045260246000fd5b60405190808252806020026020018201604052801561119a5781602001602082028036833780820191505090505b50611474565b50565b6111ab610dea565b156113eb576000806002015460001c9050600073d567d7C66a32b3475Df764D11e6556e0D2b547c573ffffffffffffffffffffffffffffffffffffffff166302571be37f93cdeb708b7545dc668eb9280176169d1c33cfd8ed6f04690a0bcc88a93fc4ae60001b6040518263ffffffff1660e01b815260040161122e9190611a50565b60206040518083038186803b15801561124657600080fd5b505afa15801561125a573d6000803e3d6000fd5b505050506040513d601f19601f8201168201806040525081019061127e91906116cf565b90508073ffffffffffffffffffffffffffffffffffffffff166328ed4f6c83856040518363ffffffff1660e01b81526004016112bb929190611bb7565b600060405180830381600087803b1580156112d557600080fd5b505af11580156112e9573d6000803e3d6000fd5b505050508073ffffffffffffffffffffffffffffffffffffffff166323b872dd8273ffffffffffffffffffffffffffffffffffffffff16636352211e856040518263ffffffff1660e01b81526004016113429190611b9c565b60206040518083038186803b15801561135a57600080fd5b505afa15801561136e573d6000803e3d6000fd5b505050506040513d601f19601f8201168201806040525081019061139291906116cf565b85856040518463ffffffff1660e01b81526004016113b2939291906119fe565b600060405180830381600087803b1580156113cc57600080fd5b505af11580156113e0573d6000803e3d6000fd5b505050505050611471565b73d567d7C66a32b3475Df764D11e6556e0D2b547c573ffffffffffffffffffffffffffffffffffffffff16635b0fc9c36000800154836040518363ffffffff1660e01b815260040161143e929190611a6b565b600060405180830381600087803b15801561145857600080fd5b505af115801561146c573d6000803e3d6000fd5b505050505b50565b73D10a7051f12b60fd7728bc8E867883E01e6Db3Cb73ffffffffffffffffffffffffffffffffffffffff1663bf8554ff600060060160009054906101000a90046fffffffffffffffffffffffffffffffff1684846040518463ffffffff1660e01b81526004016114e693929190611b5e565b600060405180830381600087803b15801561150057600080fd5b505af1158015611514573d6000803e3d6000fd5b505050505050565b82805461152890611ec0565b90600052602060002090601f01602090048101928261154a5760008555611591565b82601f1061156357805160ff1916838001178555611591565b82800160010185558215611591579182015b82811115611590578251825591602001919060010190611575565b5b50905061159e91906115a2565b5090565b5b808211156115bb5760008160009055506001016115a3565b5090565b60006115d26115cd84611c05565b611be0565b9050828152602081018484840111156115ea57600080fd5b6115f5848285611e7e565b509392505050565b60008151905061160c81611ffa565b92915050565b60008135905061162181612011565b92915050565b60008151905061163681612011565b92915050565b60008151905061164b81612028565b92915050565b6000813590506116608161203f565b92915050565b600082601f83011261167757600080fd5b81356116878482602086016115bf565b91505092915050565b60008135905061169f81612056565b92915050565b6000813590506116b48161206d565b92915050565b6000815190506116c981612084565b92915050565b6000602082840312156116e157600080fd5b60006116ef848285016115fd565b91505092915050565b60006020828403121561170a57600080fd5b600061171884828501611627565b91505092915050565b60006020828403121561173357600080fd5b60006117418482850161163c565b91505092915050565b60008060008060008060c0878903121561176357600080fd5b600061177189828a01611651565b965050602087013567ffffffffffffffff81111561178e57600080fd5b61179a89828a01611666565b95505060406117ab89828a01611651565b94505060606117bc89828a01611612565b93505060806117cd89828a01611690565b92505060a06117de89828a016116a5565b9150509295509295509295565b6000602082840312156117fd57600080fd5b600061180b848285016116a5565b91505092915050565b60006020828403121561182657600080fd5b6000611834848285016116ba565b91505092915050565b6000611849838361198a565b60208301905092915050565b61185e81611dee565b82525050565b61186d81611d5c565b82525050565b61187c81611d4a565b82525050565b600061188d82611c46565b6118978185611c69565b93506118a283611c36565b8060005b838110156118d35781516118ba888261183d565b97506118c583611c5c565b9250506001810190506118a6565b5085935050505092915050565b6118e981611d6e565b82525050565b6118f881611d7a565b82525050565b61190f61190a82611d7a565b611f23565b82525050565b61191e81611e00565b82525050565b61192d81611e24565b82525050565b600061193e82611c51565b6119488185611c7a565b9350611958818560208601611e8d565b61196181611fe9565b840191505092915050565b61197581611d84565b82525050565b61198481611e48565b82525050565b61199381611dc0565b82525050565b6119a281611dc0565b82525050565b6119b181611dda565b82525050565b60006119c382856118fe565b6020820191506119d382846118fe565b6020820191508190509392505050565b60006020820190506119f86000830184611873565b92915050565b6000606082019050611a136000830186611873565b611a206020830185611855565b611a2d6040830184611999565b949350505050565b6000602082019050611a4a60008301846118e0565b92915050565b6000602082019050611a6560008301846118ef565b92915050565b6000604082019050611a8060008301856118ef565b611a8d6020830184611855565b9392505050565b600061012082019050611aaa600083018c6118ef565b8181036020830152611abc818b611933565b9050611acb604083018a6118ef565b611ad86060830189611864565b611ae56080830188611873565b611af260a0830187611999565b611aff60c083018661196c565b611b0c60e08301856119a8565b611b1a6101008301846119a8565b9a9950505050505050505050565b6000602082019050611b3d6000830184611915565b92915050565b6000602082019050611b586000830184611924565b92915050565b6000606082019050611b73600083018661197b565b611b8060208301856118ef565b8181036040830152611b928184611882565b9050949350505050565b6000602082019050611bb16000830184611999565b92915050565b6000604082019050611bcc6000830185611999565b611bd96020830184611855565b9392505050565b6000611bea611bfb565b9050611bf68282611ef2565b919050565b6000604051905090565b600067ffffffffffffffff821115611c2057611c1f611fba565b5b611c2982611fe9565b9050602081019050919050565b6000819050602082019050919050565b600081519050919050565b600081519050919050565b6000602082019050919050565b600082825260208201905092915050565b600082825260208201905092915050565b6000611c9682611dc0565b9150611ca183611dc0565b925082611cb157611cb0611f5c565b5b828204905092915050565b6000611cc782611dc0565b9150611cd283611dc0565b9250817fffffffffffffffffffffffffffffffffffffffffffffffffffffffffffffffff0483118215151615611d0b57611d0a611f2d565b5b828202905092915050565b6000611d2182611dc0565b9150611d2c83611dc0565b925082821015611d3f57611d3e611f2d565b5b828203905092915050565b6000611d5582611da0565b9050919050565b6000611d6782611da0565b9050919050565b60008115159050919050565b6000819050919050565b60006fffffffffffffffffffffffffffffffff82169050919050565b600073ffffffffffffffffffffffffffffffffffffffff82169050919050565b6000819050919050565b600063ffffffff82169050919050565b600067ffffffffffffffff82169050919050565b6000611df982611e5a565b9050919050565b6000611e0b82611e12565b9050919050565b6000611e1d82611da0565b9050919050565b6000611e2f82611e36565b9050919050565b6000611e4182611da0565b9050919050565b6000611e5382611d84565b9050919050565b6000611e6582611e6c565b9050919050565b6000611e7782611da0565b9050919050565b82818337600083830152505050565b60005b83811015611eab578082015181840152602081019050611e90565b83811115611eba576000848401525b50505050565b60006002820490506001821680611ed857607f821691505b60208210811415611eec57611eeb611f8b565b5b50919050565b611efb82611fe9565b810181811067ffffffffffffffff82111715611f1a57611f19611fba565b5b80604052505050565b6000819050919050565b7f4e487b7100000000000000000000000000000000000000000000000000000000600052601160045260246000fd5b7f4e487b7100000000000000000000000000000000000000000000000000000000600052601260045260246000fd5b7f4e487b7100000000000000000000000000000000000000000000000000000000600052602260045260246000fd5b7f4e487b7100000000000000000000000000000000000000000000000000000000600052604160045260246000fd5b6000601f19601f8301169050919050565b61200381611d4a565b811461200e57600080fd5b50565b61201a81611d5c565b811461202557600080fd5b50565b61203181611d6e565b811461203c57600080fd5b50565b61204881611d7a565b811461205357600080fd5b50565b61205f81611d84565b811461206a57600080fd5b50565b61207681611dc0565b811461208157600080fd5b50565b61208d81611dca565b811461209857600080fd5b5056fea26469706673582212202db656119b6b636e8c2fa8e8eb5b91c633ad20d5fcb832a75cfca2b84617faeb64736f6c63430008040033",
  "deployedBytecode": "0x6080604052600436106100ec5760003560e01c8063a6f2ae3a1161008a578063d1dbcd7011610059578063d1dbcd70146102a8578063dc6af758146102d3578063e79a198f146102fe578063faff50a814610315576100fb565b8063a6f2ae3a14610229578063b266cb0114610233578063c1c8277f14610266578063cc0f73b11461027d576100fb565b806363862fd5116100c657806363862fd5146101815780636741629c146101ac5780637cd6a7fd146101d7578063a1e4f73d14610200576100fb565b806329ae4c70146101005780633f15457f1461012b5780634419cd8114610156576100fb565b366100fb576100f9610340565b005b600080fd5b34801561010c57600080fd5b5061011561056b565b6040516101229190611a35565b60405180910390f35b34801561013757600080fd5b506101406105b5565b60405161014d9190611b28565b60405180910390f35b34801561016257600080fd5b5061016b6105cd565b6040516101789190611a35565b60405180910390f35b34801561018d57600080fd5b50610196610841565b6040516101a39190611a35565b60405180910390f35b3480156101b857600080fd5b506101c161089b565b6040516101ce9190611a35565b60405180910390f35b3480156101e357600080fd5b506101fe60048036038101906101f991906117eb565b6108f8565b005b34801561020c57600080fd5b506102276004803603810190610222919061174a565b61099c565b005b610231610340565b005b34801561023f57600080fd5b50610248610b52565b60405161025d99989796959493929190611a94565b60405180910390f35b34801561027257600080fd5b5061027b610c9a565b005b34801561028957600080fd5b50610292610dd2565b60405161029f9190611b43565b60405180910390f35b3480156102b457600080fd5b506102bd610dea565b6040516102ca9190611a35565b60405180910390f35b3480156102df57600080fd5b506102e8610e48565b6040516102f591906119e3565b60405180910390f35b34801561030a57600080fd5b50610313610e60565b005b34801561032157600080fd5b5061032a610f54565b6040516103379190611a50565b60405180910390f35b600060050154341461035157600080fd5b6000620f424073feedfeedfeedfeedfeedfeedfeedfeedfeedfeed73ffffffffffffffffffffffffffffffffffffffff16636aa4716e6040518163ffffffff1660e01b815260040160206040518083038186803b1580156103b157600080fd5b505afa1580156103c5573d6000803e3d6000fd5b505050506040513d601f19601f820116820180604052508101906103e99190611814565b63ffffffff166000600501546103ff9190611cbc565b6104099190611c8b565b905073feedfeedfeedfeedfeedfeedfeedfeedfeedfeed73ffffffffffffffffffffffffffffffffffffffff1663dc6af7586040518163ffffffff1660e01b815260040160206040518083038186803b15801561046557600080fd5b505afa158015610479573d6000803e3d6000fd5b505050506040513d601f19601f8201168201806040525081019061049d91906116f8565b73ffffffffffffffffffffffffffffffffffffffff166108fc829081150290604051600060405180830381858888f193505050501580156104e2573d6000803e3d6000fd5b50600060030160009054906101000a900473ffffffffffffffffffffffffffffffffffffffff1673ffffffffffffffffffffffffffffffffffffffff166108fc826000600501546105339190611d16565b9081150290604051600060405180830381858888f1935050505015801561055e573d6000803e3d6000fd5b5061056833610f7b565b50565b600073deeddeeddeeddeeddeeddeeddeeddeeddeeddeed73ffffffffffffffffffffffffffffffffffffffff163373ffffffffffffffffffffffffffffffffffffffff1614905090565b73314159265dd8dbb310642f98f50c066173c1259b81565b60006105d7610dea565b1561076c576000806002015460001c9050600073314159265dd8dbb310642f98f50c066173c1259b73ffffffffffffffffffffffffffffffffffffffff166302571be37f93cdeb708b7545dc668eb9280176169d1c33cfd8ed6f04690a0bcc88a93fc4ae60001b6040518263ffffffff1660e01b815260040161065a9190611a50565b60206040518083038186803b15801561067257600080fd5b505afa158015610686573d6000803e3d6000fd5b505050506040513d601f19601f820116820180604052508101906106aa91906116cf565b73ffffffffffffffffffffffffffffffffffffffff16636352211e836040518263ffffffff1660e01b81526004016106e29190611b9c565b60206040518083038186803b1580156106fa57600080fd5b505afa15801561070e573d6000803e3d6000fd5b505050506040513d601f19601f8201168201806040525081019061073291906116cf565b90503073ffffffffffffffffffffffffffffffffffffffff168173ffffffffffffffffffffffffffffffffffffffff16149250505061083e565b3073ffffffffffffffffffffffffffffffffffffffff1673314159265dd8dbb310642f98f50c066173c1259b73ffffffffffffffffffffffffffffffffffffffff166302571be360008001546040518263ffffffff1660e01b81526004016107d49190611a50565b60206040518083038186803b1580156107ec57600080fd5b505afa158015610800573d6000803e3d6000fd5b505050506040513d601f19601f8201168201806040525081019061082491906116cf565b73ffffffffffffffffffffffffffffffffffffffff161490505b90565b60008060030160009054906101000a900473ffffffffffffffffffffffffffffffffffffffff1673ffffffffffffffffffffffffffffffffffffffff163373ffffffffffffffffffffffffffffffffffffffff1614905090565b600061dead73ffffffffffffffffffffffffffffffffffffffff16600060040160009054906101000a900473ffffffffffffffffffffffffffffffffffffffff1673ffffffffffffffffffffffffffffffffffffffff1614905090565b610900610841565b61090957600080fd5b600073ffffffffffffffffffffffffffffffffffffffff16600060040160009054906101000a900473ffffffffffffffffffffffffffffffffffffffff1673ffffffffffffffffffffffffffffffffffffffff161461096757600080fd5b6109708161111a565b6109997f73657453657474696e6773000000000000000000000000000000000000000000611127565b50565b73feedfeedfeedfeedfeedfeedfeedfeedfeedfeed73ffffffffffffffffffffffffffffffffffffffff1663290d10c46040518163ffffffff1660e01b815260040160206040518083038186803b1580156109f657600080fd5b505afa158015610a0a573d6000803e3d6000fd5b505050506040513d601f19601f82011682018060405250810190610a2e9190611721565b15610a3857600080fd5b60008060060160109054906101000a900467ffffffffffffffff1667ffffffffffffffff1614610a6757600080fd5b8560008001819055508460006001019080519060200190610a8992919061151c565b508360006002018190555082600060030160006101000a81548173ffffffffffffffffffffffffffffffffffffffff021916908373ffffffffffffffffffffffffffffffffffffffff16021790555081600060060160006101000a8154816fffffffffffffffffffffffffffffffff02191690836fffffffffffffffffffffffffffffffff16021790555042600060060160106101000a81548167ffffffffffffffff021916908367ffffffffffffffff16021790555080600060050181905550505050505050565b6000806000015490806001018054610b6990611ec0565b80601f0160208091040260200160405190810160405280929190818152602001828054610b9590611ec0565b8015610be25780601f10610bb757610100808354040283529160200191610be2565b820191906000526020600020905b815481529060010190602001808311610bc557829003601f168201915b5050505050908060020154908060030160009054906101000a900473ffffffffffffffffffffffffffffffffffffffff16908060040160009054906101000a900473ffffffffffffffffffffffffffffffffffffffff16908060050154908060060160009054906101000a90046fffffffffffffffffffffffffffffffff16908060060160109054906101000a900467ffffffffffffffff16908060060160189054906101000a900467ffffffffffffffff16905089565b600073ffffffffffffffffffffffffffffffffffffffff16600060040160009054906101000a900473ffffffffffffffffffffffffffffffffffffffff1673ffffffffffffffffffffffffffffffffffffffff1614610cf857600080fd5b6000610d0261056b565b90508080610d145750610d13610841565b5b610d1d57600080fd5b610d256105cd565b15610d5957610d58600060030160009054906101000a900473ffffffffffffffffffffffffffffffffffffffff166111a3565b5b8015610da65761dead600060040160006101000a81548173ffffffffffffffffffffffffffffffffffffffff021916908373ffffffffffffffffffffffffffffffffffffffff1602179055505b610dcf7f7265636c61696d4f776e65727368697000000000000000000000000000000000611127565b50565b73feedfeedfeedfeedfeedfeedfeedfeedfeedfeed81565b60007f93cdeb708b7545dc668eb9280176169d1c33cfd8ed6f04690a0bcc88a93fc4ae60001b600060020154604051602001610e279291906119b7565b60405160208183030381529060405280519060200120600080015414905090565b73deeddeeddeeddeeddeeddeeddeeddeeddeeddeed81565b610e68610841565b610e7157600080fd5b600073ffffffffffffffffffffffffffffffffffffffff16600060040160009054906101000a900473ffffffffffffffffffffffffffffffffffffffff1673ffffffffffffffffffffffffffffffffffffffff1614610ecf57600080fd5b610ed76105cd565b15610ee157600080fd5b63deaddead600060040160006101000a81548173ffffffffffffffffffffffffffffffffffffffff021916908373ffffffffffffffffffffffffffffffffffffffff160217905550610f527f756e726567697374657200000000000000000000000000000000000000000000611127565b565b7f93cdeb708b7545dc668eb9280176169d1c33cfd8ed6f04690a0bcc88a93fc4ae60001b81565b73feedfeedfeedfeedfeedfeedfeedfeedfeedfeed73ffffffffffffffffffffffffffffffffffffffff1663290d10c46040518163ffffffff1660e01b815260040160206040518083038186803b158015610fd557600080fd5b505afa158015610fe9573d6000803e3d6000fd5b505050506040513d601f19601f8201168201806040525081019061100d9190611721565b1561101757600080fd5b600073ffffffffffffffffffffffffffffffffffffffff16600060040160009054906101000a900473ffffffffffffffffffffffffffffffffffffffff1673ffffffffffffffffffffffffffffffffffffffff161461107557600080fd5b80600060040160006101000a81548173ffffffffffffffffffffffffffffffffffffffff021916908373ffffffffffffffffffffffffffffffffffffffff16021790555042600060060160186101000a81548167ffffffffffffffff021916908367ffffffffffffffff1602179055506110ee816111a3565b6111177f66696e616c697a65000000000000000000000000000000000000000000000000611127565b50565b8060006005018190555050565b6111a081600067ffffffffffffffff81111561116c577f4e487b7100000000000000000000000000000000000000000000000000000000600052604160045260246000fd5b60405190808252806020026020018201604052801561119a5781602001602082028036833780820191505090505b50611474565b50565b6111ab610dea565b156113eb576000806002015460001c9050600073314159265dd8dbb310642f98f50c066173c1259b73ffffffffffffffffffffffffffffffffffffffff166302571be37f93cdeb708b7545dc668eb9280176169d1c33cfd8ed6f04690a0bcc88a93fc4ae60001b6040518263ffffffff1660e01b815260040161122e9190611a50565b60206040518083038186803b15801561124657600080fd5b505afa15801561125a573d6000803e3d6000fd5b505050506040513d601f19601f8201168201806040525081019061127e91906116cf565b90508073ffffffffffffffffffffffffffffffffffffffff166328ed4f6c83856040518363ffffffff1660e01b81526004016112bb929190611bb7565b600060405180830381600087803b1580156112d557600080fd5b505af11580156112e9573d6000803e3d6000fd5b505050508073ffffffffffffffffffffffffffffffffffffffff166323b872dd8273ffffffffffffffffffffffffffffffffffffffff16636352211e856040518263ffffffff1660e01b81526004016113429190611b9c565b60206040518083038186803b15801561135a57600080fd5b505afa15801561136e573d6000803e3d6000fd5b505050506040513d601f19601f8201168201806040525081019061139291906116cf565b85856040518463ffffffff1660e01b81526004016113b2939291906119fe565b600060405180830381600087803b1580156113cc57600080fd5b505af11580156113e0573d6000803e3d6000fd5b505050505050611471565b73314159265dd8dbb310642f98f50c066173c1259b73ffffffffffffffffffffffffffffffffffffffff16635b0fc9c36000800154836040518363ffffffff1660e01b815260040161143e929190611a6b565b600060405180830381600087803b15801561145857600080fd5b505af115801561146c573d6000803e3d6000fd5b505050505b50565b73feedfeedfeedfeedfeedfeedfeedfeedfeedfeed73ffffffffffffffffffffffffffffffffffffffff1663bf8554ff600060060160009054906101000a90046fffffffffffffffffffffffffffffffff1684846040518463ffffffff1660e01b81526004016114e693929190611b5e565b600060405180830381600087803b15801561150057600080fd5b505af1158015611514573d6000803e3d6000fd5b505050505050565b82805461152890611ec0565b90600052602060002090601f01602090048101928261154a5760008555611591565b82601f1061156357805160ff1916838001178555611591565b82800160010185558215611591579182015b82811115611590578251825591602001919060010190611575565b5b50905061159e91906115a2565b5090565b5b808211156115bb5760008160009055506001016115a3565b5090565b60006115d26115cd84611c05565b611be0565b9050828152602081018484840111156115ea57600080fd5b6115f5848285611e7e565b509392505050565b60008151905061160c81611ffa565b92915050565b60008135905061162181612011565b92915050565b60008151905061163681612011565b92915050565b60008151905061164b81612028565b92915050565b6000813590506116608161203f565b92915050565b600082601f83011261167757600080fd5b81356116878482602086016115bf565b91505092915050565b60008135905061169f81612056565b92915050565b6000813590506116b48161206d565b92915050565b6000815190506116c981612084565b92915050565b6000602082840312156116e157600080fd5b60006116ef848285016115fd565b91505092915050565b60006020828403121561170a57600080fd5b600061171884828501611627565b91505092915050565b60006020828403121561173357600080fd5b60006117418482850161163c565b91505092915050565b60008060008060008060c0878903121561176357600080fd5b600061177189828a01611651565b965050602087013567ffffffffffffffff81111561178e57600080fd5b61179a89828a01611666565b95505060406117ab89828a01611651565b94505060606117bc89828a01611612565b93505060806117cd89828a01611690565b92505060a06117de89828a016116a5565b9150509295509295509295565b6000602082840312156117fd57600080fd5b600061180b848285016116a5565b91505092915050565b60006020828403121561182657600080fd5b6000611834848285016116ba565b91505092915050565b6000611849838361198a565b60208301905092915050565b61185e81611dee565b82525050565b61186d81611d5c565b82525050565b61187c81611d4a565b82525050565b600061188d82611c46565b6118978185611c69565b93506118a283611c36565b8060005b838110156118d35781516118ba888261183d565b97506118c583611c5c565b9250506001810190506118a6565b5085935050505092915050565b6118e981611d6e565b82525050565b6118f881611d7a565b82525050565b61190f61190a82611d7a565b611f23565b82525050565b61191e81611e00565b82525050565b61192d81611e24565b82525050565b600061193e82611c51565b6119488185611c7a565b9350611958818560208601611e8d565b61196181611fe9565b840191505092915050565b61197581611d84565b82525050565b61198481611e48565b82525050565b61199381611dc0565b82525050565b6119a281611dc0565b82525050565b6119b181611dda565b82525050565b60006119c382856118fe565b6020820191506119d382846118fe565b6020820191508190509392505050565b60006020820190506119f86000830184611873565b92915050565b6000606082019050611a136000830186611873565b611a206020830185611855565b611a2d6040830184611999565b949350505050565b6000602082019050611a4a60008301846118e0565b92915050565b6000602082019050611a6560008301846118ef565b92915050565b6000604082019050611a8060008301856118ef565b611a8d6020830184611855565b9392505050565b600061012082019050611aaa600083018c6118ef565b8181036020830152611abc818b611933565b9050611acb604083018a6118ef565b611ad86060830189611864565b611ae56080830188611873565b611af260a0830187611999565b611aff60c083018661196c565b611b0c60e08301856119a8565b611b1a6101008301846119a8565b9a9950505050505050505050565b6000602082019050611b3d6000830184611915565b92915050565b6000602082019050611b586000830184611924565b92915050565b6000606082019050611b73600083018661197b565b611b8060208301856118ef565b8181036040830152611b928184611882565b9050949350505050565b6000602082019050611bb16000830184611999565b92915050565b6000604082019050611bcc6000830185611999565b611bd96020830184611855565b9392505050565b6000611bea611bfb565b9050611bf68282611ef2565b919050565b6000604051905090565b600067ffffffffffffffff821115611c2057611c1f611fba565b5b611c2982611fe9565b9050602081019050919050565b6000819050602082019050919050565b600081519050919050565b600081519050919050565b6000602082019050919050565b600082825260208201905092915050565b600082825260208201905092915050565b6000611c9682611dc0565b9150611ca183611dc0565b925082611cb157611cb0611f5c565b5b828204905092915050565b6000611cc782611dc0565b9150611cd283611dc0565b9250817fffffffffffffffffffffffffffffffffffffffffffffffffffffffffffffffff0483118215151615611d0b57611d0a611f2d565b5b828202905092915050565b6000611d2182611dc0565b9150611d2c83611dc0565b925082821015611d3f57611d3e611f2d565b5b828203905092915050565b6000611d5582611da0565b9050919050565b6000611d6782611da0565b9050919050565b60008115159050919050565b6000819050919050565b60006fffffffffffffffffffffffffffffffff82169050919050565b600073ffffffffffffffffffffffffffffffffffffffff82169050919050565b6000819050919050565b600063ffffffff82169050919050565b600067ffffffffffffffff82169050919050565b6000611df982611e5a565b9050919050565b6000611e0b82611e12565b9050919050565b6000611e1d82611da0565b9050919050565b6000611e2f82611e36565b9050919050565b6000611e4182611da0565b9050919050565b6000611e5382611d84565b9050919050565b6000611e6582611e6c565b9050919050565b6000611e7782611da0565b9050919050565b82818337600083830152505050565b60005b83811015611eab578082015181840152602081019050611e90565b83811115611eba576000848401525b50505050565b60006002820490506001821680611ed857607f821691505b60208210811415611eec57611eeb611f8b565b5b50919050565b611efb82611fe9565b810181811067ffffffffffffffff82111715611f1a57611f19611fba565b5b80604052505050565b6000819050919050565b7f4e487b7100000000000000000000000000000000000000000000000000000000600052601160045260246000fd5b7f4e487b7100000000000000000000000000000000000000000000000000000000600052601260045260246000fd5b7f4e487b7100000000000000000000000000000000000000000000000000000000600052602260045260246000fd5b7f4e487b7100000000000000000000000000000000000000000000000000000000600052604160045260246000fd5b6000601f19601f8301169050919050565b61200381611d4a565b811461200e57600080fd5b50565b61201a81611d5c565b811461202557600080fd5b50565b61203181611d6e565b811461203c57600080fd5b50565b61204881611d7a565b811461205357600080fd5b50565b61205f81611d84565b811461206a57600080fd5b50565b61207681611dc0565b811461208157600080fd5b50565b61208d81611dca565b811461209857600080fd5b5056fea26469706673582212202db656119b6b636e8c2fa8e8eb5b91c633ad20d5fcb832a75cfca2b84617faeb64736f6c63430008040033",
  "immutableReferences": {},
  "source": "// SPDX-License-Identifier: MIT\npragma solidity ^0.8.4;\n\n/**\n * @title BuyNowOffering\n * @dev Contains logic for BuyNowOffering. This contract will be deployed only once, while users will create\n * many instances of Forwarder via BuyNowOfferingFactory, which will serve as a proxy pointing this contract.\n * This way code logic for this offering won't be duplicated on blockchain.\n */\n\nimport \"./Offering.sol\";\n\ncontract BuyNowOffering is Offering {\n\n    /**\n    * @dev Exchanges funds of new owner for ownership of ENS name owner\n    * msg.value must exactly equal to offering price\n    */\n    function buy()\n        public\n        payable\n    {\n        require(msg.value == offering.price);\n        uint256 fee = offering.price * offeringRegistry.offeringFee() / 1000000;\n        offeringRegistry.emergencyMultisig().transfer(fee);\n        offering.originalOwner.transfer(offering.price - fee);\n        transferOwnership(payable(msg.sender));\n    }\n\n    /**\n    * @dev Changes settings for BuyNowOffering\n    * Can be executed only by original owner\n    * Can't be executed after ownership was already transferred to a new owner\n    * @param _price uint New price of the offering\n    */\n    function setSettings(uint _price)\n        public\n        onlyOriginalOwner\n        onlyWithoutNewOwner\n    {\n        super.doSetSettings(_price);\n        fireOnChanged(\"setSettings\");\n    }\n\n    receive() external payable {\n        buy();\n    }\n}\n",
  "sourcePath": "/Users/kwladyka/district0x/name-bazaar/resources/public/contracts/src/BuyNowOffering.sol",
  "compiler": {
    "name": "solc",
    "version": "0.8.4+commit.c7e474f2.Emscripten.clang"
  },
  "schemaVersion": "3.4.7",
  "updatedAt": "2022-05-19T11:58:22.389Z",
  "networkType": "ethereum",
  "devdoc": {
    "kind": "dev",
    "methods": {
      "buy()": {
        "details": "Exchanges funds of new owner for ownership of ENS name owner msg.value must exactly equal to offering price"
      },
      "construct(bytes32,string,bytes32,address,uint128,uint256)": {
        "details": "Constructor of offering Should be callable just once, by factory"
      },
      "isContractNodeOwner()": {
        "details": "Returns whether offering contract is owner of ENS name For top level names, offering contract must be also owner of registration",
        "returns": {
          "_0": "bool true if contract is ENS node owner"
        }
      },
      "isNodeTLDOfRegistrar()": {
        "details": "Returns whether offering node is top level name of registrar or subname",
        "returns": {
          "_0": "bool true if offering node is top level name of registrar"
        }
      },
      "isSenderEmergencyMultisig()": {
        "details": "Returns whether msg.sender is emergency multisig address",
        "returns": {
          "_0": "bool true if msg.sender is emergency multisig"
        }
      },
      "isSenderOriginalOwner()": {
        "details": "Returns whether msg.sender is original owner of ENS name, offering creator",
        "returns": {
          "_0": "bool true if msg.sender is original owner"
        }
      },
      "reclaimOwnership()": {
        "details": "Transfers ENS name ownership back to original owner Can be run only by original owner or emergency multisig Sets newOwner to special address 0xdead"
      },
      "setSettings(uint256)": {
        "details": "Changes settings for BuyNowOffering Can be executed only by original owner Can't be executed after ownership was already transferred to a new owner",
        "params": {
          "_price": "uint New price of the offering"
        }
      },
      "unregister()": {
        "details": "Unregisters offering for not displaying it in UI Cannot be run if contract has ownership or it was already transferred to new owner"
      },
      "wasEmergencyCancelled()": {
        "details": "Returns whether offering was cancelled in emergency, by emergency multisig",
        "returns": {
          "_0": "bool true if offering was cancelled in emergency"
        }
      }
    },
    "version": 1
  },
  "userdoc": {
    "kind": "user",
    "methods": {},
    "version": 1
  }
}