{
  "contractName": "District0xEmails",
  "abi": [
    {
      "inputs": [
        {
          "internalType": "address",
          "name": "",
          "type": "address"
        }
      ],
      "name": "emails",
      "outputs": [
        {
          "internalType": "string",
          "name": "",
          "type": "string"
        }
      ],
      "stateMutability": "view",
      "type": "function",
      "constant": true
    },
    {
      "inputs": [
        {
          "internalType": "string",
          "name": "_encryptedEmail",
          "type": "string"
        }
      ],
      "name": "setEmail",
      "outputs": [],
      "stateMutability": "nonpayable",
      "type": "function"
    },
    {
      "inputs": [
        {
          "internalType": "address",
          "name": "_address",
          "type": "address"
        }
      ],
      "name": "getEmail",
      "outputs": [
        {
          "internalType": "string",
          "name": "",
          "type": "string"
        }
      ],
      "stateMutability": "view",
      "type": "function",
      "constant": true
    }
  ],
  "bytecode": "0x608060405234801561001057600080fd5b5061058f806100206000396000f3fe608060405234801561001057600080fd5b50600436106100415760003560e01c8063282b065a146100465780634fa7353c14610062578063cb2da07c14610092575b600080fd5b610060600480360381019061005b91906103af565b6100c2565b005b61007c60048036038101906100779190610386565b610114565b604051610089919061042d565b60405180910390f35b6100ac60048036038101906100a79190610386565b6101e4565b6040516100b9919061042d565b60405180910390f35b81816000803373ffffffffffffffffffffffffffffffffffffffff1673ffffffffffffffffffffffffffffffffffffffff168152602001908152602001600020919061010f929190610284565b505050565b60606000808373ffffffffffffffffffffffffffffffffffffffff1673ffffffffffffffffffffffffffffffffffffffff168152602001908152602001600020805461015f906104d0565b80601f016020809104026020016040519081016040528092919081815260200182805461018b906104d0565b80156101d85780601f106101ad576101008083540402835291602001916101d8565b820191906000526020600020905b8154815290600101906020018083116101bb57829003601f168201915b50505050509050919050565b60006020528060005260406000206000915090508054610203906104d0565b80601f016020809104026020016040519081016040528092919081815260200182805461022f906104d0565b801561027c5780601f106102515761010080835404028352916020019161027c565b820191906000526020600020905b81548152906001019060200180831161025f57829003601f168201915b505050505081565b828054610290906104d0565b90600052602060002090601f0160209004810192826102b257600085556102f9565b82601f106102cb57803560ff19168380011785556102f9565b828001600101855582156102f9579182015b828111156102f85782358255916020019190600101906102dd565b5b509050610306919061030a565b5090565b5b8082111561032357600081600090555060010161030b565b5090565b60008135905061033681610542565b92915050565b60008083601f84011261034e57600080fd5b8235905067ffffffffffffffff81111561036757600080fd5b60208301915083600182028301111561037f57600080fd5b9250929050565b60006020828403121561039857600080fd5b60006103a684828501610327565b91505092915050565b600080602083850312156103c257600080fd5b600083013567ffffffffffffffff8111156103dc57600080fd5b6103e88582860161033c565b92509250509250929050565b60006103ff8261044f565b610409818561045a565b935061041981856020860161049d565b61042281610531565b840191505092915050565b6000602082019050818103600083015261044781846103f4565b905092915050565b600081519050919050565b600082825260208201905092915050565b60006104768261047d565b9050919050565b600073ffffffffffffffffffffffffffffffffffffffff82169050919050565b60005b838110156104bb5780820151818401526020810190506104a0565b838111156104ca576000848401525b50505050565b600060028204905060018216806104e857607f821691505b602082108114156104fc576104fb610502565b5b50919050565b7f4e487b7100000000000000000000000000000000000000000000000000000000600052602260045260246000fd5b6000601f19601f8301169050919050565b61054b8161046b565b811461055657600080fd5b5056fea2646970667358221220d49f10143264db64243fac488cf750eadcf342f6ba9f2bdbc5bd988cd10b9d2b64736f6c63430008040033",
  "immutableReferences": {},
  "source": "// SPDX-License-Identifier: MIT\npragma solidity ^0.8.4;\n\n/**\n * @title District0xEmails\n * @dev Contract meant to be shared among all districts. Users can associate encrypted email address\n * with their ethereum address. The purpose is to send email notifications to users.\n * It's encrypted by district0x public key and can be decrypted only by district0x servers\n */\n\ncontract District0xEmails {\n\n    mapping(address => string) public emails;\n\n    function setEmail(string calldata _encryptedEmail) external {\n        emails[msg.sender] = _encryptedEmail;\n    }\n\n    function getEmail(address _address) external view returns(string memory) {\n        return emails[_address];\n    }\n}\n",
  "sourcePath": "/Users/kwladyka/district0x/name-bazaar/resources/public/contracts/src/District0xEmails.sol",
  "compiler": {
    "name": "solc",
    "version": "0.8.4+commit.c7e474f2.Emscripten.clang"
  },
  "schemaVersion": "3.4.7",
  "updatedAt": "2022-05-19T11:58:22.414Z",
  "networkType": "ethereum",
  "devdoc": {
    "details": "Contract meant to be shared among all districts. Users can associate encrypted email address with their ethereum address. The purpose is to send email notifications to users. It's encrypted by district0x public key and can be decrypted only by district0x servers",
    "kind": "dev",
    "methods": {},
    "title": "District0xEmails",
    "version": 1
  },
  "userdoc": {
    "kind": "user",
    "methods": {},
    "version": 1
  }
}