{
  "contractName": "MutableForwarder",
  "abi": [
    {
      "anonymous": false,
      "inputs": [
        {
          "indexed": true,
          "internalType": "address",
          "name": "previousOwner",
          "type": "address"
        },
        {
          "indexed": true,
          "internalType": "address",
          "name": "newOwner",
          "type": "address"
        }
      ],
      "name": "OwnershipTransferred",
      "type": "event"
    },
    {
      "stateMutability": "payable",
      "type": "fallback",
      "payable": true
    },
    {
      "inputs": [],
      "name": "owner",
      "outputs": [
        {
          "internalType": "address",
          "name": "",
          "type": "address"
        }
      ],
      "stateMutability": "view",
      "type": "function",
      "constant": true
    },
    {
      "inputs": [],
      "name": "renounceOwnership",
      "outputs": [],
      "stateMutability": "nonpayable",
      "type": "function"
    },
    {
      "inputs": [],
      "name": "target",
      "outputs": [
        {
          "internalType": "address",
          "name": "",
          "type": "address"
        }
      ],
      "stateMutability": "view",
      "type": "function",
      "constant": true
    },
    {
      "inputs": [
        {
          "internalType": "address",
          "name": "newOwner",
          "type": "address"
        }
      ],
      "name": "transferOwnership",
      "outputs": [],
      "stateMutability": "nonpayable",
      "type": "function"
    },
    {
      "inputs": [
        {
          "internalType": "address",
          "name": "_target",
          "type": "address"
        }
      ],
      "name": "setTarget",
      "outputs": [],
      "stateMutability": "nonpayable",
      "type": "function"
    }
  ],
  "bytecode": "0x60806040527363270D4D86CCF8Bc9b4A6a399Fbe6F695172F462600160006101000a81548173ffffffffffffffffffffffffffffffffffffffff021916908373ffffffffffffffffffffffffffffffffffffffff16021790555034801561006557600080fd5b50600061007661011960201b60201c565b9050806000806101000a81548173ffffffffffffffffffffffffffffffffffffffff021916908373ffffffffffffffffffffffffffffffffffffffff1602179055508073ffffffffffffffffffffffffffffffffffffffff16600073ffffffffffffffffffffffffffffffffffffffff167f8be0079c531659141344cd1fd0a4f28419497f9722a3daafe3b4186f6b6457e060405160405180910390a350610121565b600033905090565b6107af806101306000396000f3fe60806040526004361061004e5760003560e01c8063715018a6146100c2578063776d1a01146100d95780638da5cb5b14610102578063d4b839921461012d578063f2fde38b146101585761004f565b5b6100c0600160009054906101000a900473ffffffffffffffffffffffffffffffffffffffff166000368080601f016020809104026020016040519081016040528093929190818152602001838380828437600081840152601f19601f82011690508083019250505050505050610181565b005b3480156100ce57600080fd5b506100d76101bf565b005b3480156100e557600080fd5b5061010060048036038101906100fb91906105ce565b6102f9565b005b34801561010e57600080fd5b506101176103b9565b604051610124919061064c565b60405180910390f35b34801561013957600080fd5b506101426103e2565b60405161014f919061064c565b60405180910390f35b34801561016457600080fd5b5061017f600480360381019061017a91906105ce565b610408565b005b813b6000811461019057610195565b600080fd5b50611000806000835160208501866127105a03f480600081146101b7576101b9565bfe5b50816000f35b6101c76105b1565b73ffffffffffffffffffffffffffffffffffffffff166101e56103b9565b73ffffffffffffffffffffffffffffffffffffffff161461023b576040517f08c379a000000000000000000000000000000000000000000000000000000000815260040161023290610687565b60405180910390fd5b600073ffffffffffffffffffffffffffffffffffffffff1660008054906101000a900473ffffffffffffffffffffffffffffffffffffffff1673ffffffffffffffffffffffffffffffffffffffff167f8be0079c531659141344cd1fd0a4f28419497f9722a3daafe3b4186f6b6457e060405160405180910390a360008060006101000a81548173ffffffffffffffffffffffffffffffffffffffff021916908373ffffffffffffffffffffffffffffffffffffffff160217905550565b6103016105b1565b73ffffffffffffffffffffffffffffffffffffffff1661031f6103b9565b73ffffffffffffffffffffffffffffffffffffffff1614610375576040517f08c379a000000000000000000000000000000000000000000000000000000000815260040161036c90610687565b60405180910390fd5b80600160006101000a81548173ffffffffffffffffffffffffffffffffffffffff021916908373ffffffffffffffffffffffffffffffffffffffff16021790555050565b60008060009054906101000a900473ffffffffffffffffffffffffffffffffffffffff16905090565b600160009054906101000a900473ffffffffffffffffffffffffffffffffffffffff1681565b6104106105b1565b73ffffffffffffffffffffffffffffffffffffffff1661042e6103b9565b73ffffffffffffffffffffffffffffffffffffffff1614610484576040517f08c379a000000000000000000000000000000000000000000000000000000000815260040161047b90610687565b60405180910390fd5b600073ffffffffffffffffffffffffffffffffffffffff168173ffffffffffffffffffffffffffffffffffffffff1614156104f4576040517f08c379a00000000000000000000000000000000000000000000000000000000081526004016104eb90610667565b60405180910390fd5b8073ffffffffffffffffffffffffffffffffffffffff1660008054906101000a900473ffffffffffffffffffffffffffffffffffffffff1673ffffffffffffffffffffffffffffffffffffffff167f8be0079c531659141344cd1fd0a4f28419497f9722a3daafe3b4186f6b6457e060405160405180910390a3806000806101000a81548173ffffffffffffffffffffffffffffffffffffffff021916908373ffffffffffffffffffffffffffffffffffffffff16021790555050565b600033905090565b6000813590506105c881610762565b92915050565b6000602082840312156105e057600080fd5b60006105ee848285016105b9565b91505092915050565b610600816106b8565b82525050565b60006106136026836106a7565b915061061e826106ea565b604082019050919050565b60006106366020836106a7565b915061064182610739565b602082019050919050565b600060208201905061066160008301846105f7565b92915050565b6000602082019050818103600083015261068081610606565b9050919050565b600060208201905081810360008301526106a081610629565b9050919050565b600082825260208201905092915050565b60006106c3826106ca565b9050919050565b600073ffffffffffffffffffffffffffffffffffffffff82169050919050565b7f4f776e61626c653a206e6577206f776e657220697320746865207a65726f206160008201527f6464726573730000000000000000000000000000000000000000000000000000602082015250565b7f4f776e61626c653a2063616c6c6572206973206e6f7420746865206f776e6572600082015250565b61076b816106b8565b811461077657600080fd5b5056fea264697066735822122061d10e0dcb405f9bc890e18d7f06f45e71acb922c6e8179a98e5048db1a72c7864736f6c63430008040033",
  "immutableReferences": {},
  "source": "// SPDX-License-Identifier: MIT\npragma solidity ^0.8.4;\n\nimport \"./DelegateProxy.sol\";\nimport \"@openzeppelin/contracts/access/Ownable.sol\";\n\n/**\n * @title Forwarder proxy contract with editable target\n *\n * @dev For OfferingRegistry contract we use mutable forwarder instead of using the contract directly.\n * This is for better upgradeability. Since OfferingRegistry fires all events related to offerings,\n * we want to be able to access whole history of events always on the same address. Which would be the\n * address of a MutableForwarder. When OfferingRegistry contract is replaced with an updated one,\n * mutable forwarder just replaces target and all events stay still accessible on the same address.\n */\ncontract MutableForwarder is DelegateProxy, Ownable {\n    address public target = 0xBEeFbeefbEefbeEFbeEfbEEfBEeFbeEfBeEfBeef; // checksummed to silence warning\n\n    /**\n     * @dev Replaces target forwarder contract is pointing to\n     * Only owner can replace target\n\n     * @param _target New target to proxy into\n    */\n    function setTarget(address _target) public onlyOwner {\n        target = _target;\n    }\n\n    fallback() external payable {\n        delegatedFwd(target, msg.data);\n    }\n}\n",
  "sourcePath": "/Users/kwladyka/district0x/name-bazaar/resources/public/contracts/src/proxy/MutableForwarder.sol",
  "compiler": {
    "name": "solc",
    "version": "0.8.4+commit.c7e474f2.Emscripten.clang"
  },
  "schemaVersion": "3.4.7",
  "updatedAt": "2022-05-19T11:58:22.386Z",
  "networkType": "ethereum",
  "devdoc": {
    "details": "For OfferingRegistry contract we use mutable forwarder instead of using the contract directly. This is for better upgradeability. Since OfferingRegistry fires all events related to offerings, we want to be able to access whole history of events always on the same address. Which would be the address of a MutableForwarder. When OfferingRegistry contract is replaced with an updated one, mutable forwarder just replaces target and all events stay still accessible on the same address.",
    "kind": "dev",
    "methods": {
      "owner()": {
        "details": "Returns the address of the current owner."
      },
      "renounceOwnership()": {
        "details": "Leaves the contract without owner. It will not be possible to call `onlyOwner` functions anymore. Can only be called by the current owner. NOTE: Renouncing ownership will leave the contract without an owner, thereby removing any functionality that is only available to the owner."
      },
      "setTarget(address)": {
        "details": "Replaces target forwarder contract is pointing to Only owner can replace target",
        "params": {
          "_target": "New target to proxy into"
        }
      },
      "transferOwnership(address)": {
        "details": "Transfers ownership of the contract to a new account (`newOwner`). Can only be called by the current owner."
      }
    },
    "title": "Forwarder proxy contract with editable target",
    "version": 1
  },
  "userdoc": {
    "kind": "user",
    "methods": {},
    "version": 1
  }
}