{
  "contractName": "NamebazaarDevNameResolver",
  "abi": [
    {
      "anonymous": false,
      "inputs": [
        {
          "indexed": true,
          "internalType": "bytes32",
          "name": "node",
          "type": "bytes32"
        },
        {
          "indexed": false,
          "internalType": "string",
          "name": "name",
          "type": "string"
        }
      ],
      "name": "NameChanged",
      "type": "event"
    },
    {
      "inputs": [
        {
          "internalType": "bytes32",
          "name": "node",
          "type": "bytes32"
        }
      ],
      "name": "name",
      "outputs": [
        {
          "internalType": "string",
          "name": "",
          "type": "string"
        }
      ],
      "stateMutability": "view",
      "type": "function",
      "constant": true
    },
    {
      "inputs": [
        {
          "internalType": "bytes32",
          "name": "node",
          "type": "bytes32"
        },
        {
          "internalType": "string",
          "name": "name",
          "type": "string"
        }
      ],
      "name": "setName",
      "outputs": [],
      "stateMutability": "nonpayable",
      "type": "function"
    },
    {
      "inputs": [
        {
          "internalType": "bytes4",
          "name": "interfaceID",
          "type": "bytes4"
        }
      ],
      "name": "supportsInterface",
      "outputs": [
        {
          "internalType": "bool",
          "name": "",
          "type": "bool"
        }
      ],
      "stateMutability": "pure",
      "type": "function",
      "constant": true
    }
  ],
  "bytecode": "0x608060405234801561001057600080fd5b506106a5806100206000396000f3fe608060405234801561001057600080fd5b50600436106100415760003560e01c806301ffc9a714610046578063691f34311461007657806377372213146100a6575b600080fd5b610060600480360381019061005b9190610430565b6100c2565b60405161006d91906104ce565b60405180910390f35b610090600480360381019061008b91906103af565b610123565b60405161009d919061050d565b60405180910390f35b6100c060048036038101906100bb91906103d8565b6101c7565b005b600063691f343160e01b7bffffffffffffffffffffffffffffffffffffffffffffffffffffffff1916827bffffffffffffffffffffffffffffffffffffffffffffffffffffffff1916148061011c575061011b8261023c565b5b9050919050565b60606000808381526020019081526020016000208054610142906105cf565b80601f016020809104026020016040519081016040528092919081815260200182805461016e906105cf565b80156101bb5780601f10610190576101008083540402835291602001916101bb565b820191906000526020600020905b81548152906001019060200180831161019e57829003601f168201915b50505050509050919050565b826101d18161028d565b6101da57600080fd5b828260008087815260200190815260200160002091906101fb929190610298565b50837fb7d29e911041e8d9b843369e890bcb72c9388692ba48b65ac54e7214c4c348f7848460405161022e9291906104e9565b60405180910390a250505050565b60006301ffc9a760e01b7bffffffffffffffffffffffffffffffffffffffffffffffffffffffff1916827bffffffffffffffffffffffffffffffffffffffffffffffffffffffff1916149050919050565b600060019050919050565b8280546102a4906105cf565b90600052602060002090601f0160209004810192826102c6576000855561030d565b82601f106102df57803560ff191683800117855561030d565b8280016001018555821561030d579182015b8281111561030c5782358255916020019190600101906102f1565b5b50905061031a919061031e565b5090565b5b8082111561033757600081600090555060010161031f565b5090565b60008135905061034a81610641565b92915050565b60008135905061035f81610658565b92915050565b60008083601f84011261037757600080fd5b8235905067ffffffffffffffff81111561039057600080fd5b6020830191508360018202830111156103a857600080fd5b9250929050565b6000602082840312156103c157600080fd5b60006103cf8482850161033b565b91505092915050565b6000806000604084860312156103ed57600080fd5b60006103fb8682870161033b565b935050602084013567ffffffffffffffff81111561041857600080fd5b61042486828701610365565b92509250509250925092565b60006020828403121561044257600080fd5b600061045084828501610350565b91505092915050565b6104628161054b565b82525050565b6000610474838561053a565b935061048183858461058d565b61048a83610630565b840190509392505050565b60006104a08261052f565b6104aa818561053a565b93506104ba81856020860161059c565b6104c381610630565b840191505092915050565b60006020820190506104e36000830184610459565b92915050565b60006020820190508181036000830152610504818486610468565b90509392505050565b600060208201905081810360008301526105278184610495565b905092915050565b600081519050919050565b600082825260208201905092915050565b60008115159050919050565b6000819050919050565b60007fffffffff0000000000000000000000000000000000000000000000000000000082169050919050565b82818337600083830152505050565b60005b838110156105ba57808201518184015260208101905061059f565b838111156105c9576000848401525b50505050565b600060028204905060018216806105e757607f821691505b602082108114156105fb576105fa610601565b5b50919050565b7f4e487b7100000000000000000000000000000000000000000000000000000000600052602260045260246000fd5b6000601f19601f8301169050919050565b61064a81610557565b811461065557600080fd5b50565b61066181610561565b811461066c57600080fd5b5056fea26469706673582212205d62546a7fa640f19a746d02d0b03e7d442fc4f7e26f22c24caffa161c056f0464736f6c63430008040033",
  "immutableReferences": {},
  "source": "// SPDX-License-Identifier: MIT\n/**\n * All contracts in this file are only used for development only.\n */\npragma solidity ^0.8.4;\n\nimport {BaseRegistrarImplementation} from \"@ensdomains/ens-contracts/contracts/ethregistrar/BaseRegistrarImplementation.sol\";\nimport {ENS} from \"@ensdomains/ens-contracts/contracts/registry/ENS.sol\";\nimport {NameResolver} from \"@ensdomains/ens-contracts/contracts/resolvers/profiles/NameResolver.sol\";\nimport {PublicResolver} from \"@ensdomains/ens-contracts/contracts/resolvers/PublicResolver.sol\";\nimport {ReverseRegistrar, NameResolver as INameResolver} from \"@ensdomains/ens-contracts/contracts/registry/ReverseRegistrar.sol\";\n\ncontract NamebazaarDevPublicResolver is PublicResolver {\n    constructor(ENS ens) PublicResolver(ens) {}\n}\n\ncontract NamebazaarDevNameResolver is NameResolver {\n    function isAuthorised(bytes32 node) internal view override returns(bool) {\n        return true;\n    }\n}\n\ncontract NamebazaarDevReverseRegistrar is ReverseRegistrar {\n    constructor(ENS ens, INameResolver resolver) ReverseRegistrar(ens, resolver) {}\n}\n\ncontract NameBazaarDevRegistrar is BaseRegistrarImplementation {\n    /**\n     * @dev Constructs a new Registrar, with the provided address as the owner of the root node.\n     *\n     * @param ens The address of the ENS\n     * @param rootNode The hash of the root node.\n     */\n    constructor(ENS ens, bytes32 rootNode) BaseRegistrarImplementation(ens, rootNode) {}\n\n    /**\n     * @dev Convenience function added by NameBazaar for instant registration\n     *      used for development only\n     *\n     * @param _hash The sha3 hash of the label to register.\n     */\n    function register(bytes32 _hash) external payable {\n        controllers[msg.sender] = true;\n        emit ControllerAdded(msg.sender);\n        _register(uint256(_hash), msg.sender, 365 days, true);\n    }\n}\n",
  "sourcePath": "/Users/kwladyka/district0x/name-bazaar/resources/public/contracts/src/NameBazaarDevContracts.sol",
  "compiler": {
    "name": "solc",
    "version": "0.8.4+commit.c7e474f2.Emscripten.clang"
  },
  "schemaVersion": "3.4.7",
  "updatedAt": "2022-05-19T11:58:22.415Z",
  "networkType": "ethereum",
  "devdoc": {
    "kind": "dev",
    "methods": {
      "name(bytes32)": {
        "params": {
          "node": "The ENS node to query."
        },
        "returns": {
          "_0": "The associated name."
        }
      },
      "setName(bytes32,string)": {
        "params": {
          "name": "The name to set.",
          "node": "The node to update."
        }
      }
    },
    "version": 1
  },
  "userdoc": {
    "kind": "user",
    "methods": {
      "name(bytes32)": {
        "notice": "Returns the name associated with an ENS node, for reverse records. Defined in EIP181."
      },
      "setName(bytes32,string)": {
        "notice": "Sets the name associated with an ENS node, for reverse records. May only be called by the owner of that node in the ENS registry."
      }
    },
    "version": 1
  }
}