{
  "contractName": "NameBazaarDevRegistrar",
  "abi": [
    {
      "inputs": [
        {
          "internalType": "contract ENS",
          "name": "ens",
          "type": "address"
        },
        {
          "internalType": "bytes32",
          "name": "rootNode",
          "type": "bytes32"
        }
      ],
      "stateMutability": "nonpayable",
      "type": "constructor"
    },
    {
      "anonymous": false,
      "inputs": [
        {
          "indexed": true,
          "internalType": "address",
          "name": "owner",
          "type": "address"
        },
        {
          "indexed": true,
          "internalType": "address",
          "name": "approved",
          "type": "address"
        },
        {
          "indexed": true,
          "internalType": "uint256",
          "name": "tokenId",
          "type": "uint256"
        }
      ],
      "name": "Approval",
      "type": "event"
    },
    {
      "anonymous": false,
      "inputs": [
        {
          "indexed": true,
          "internalType": "address",
          "name": "owner",
          "type": "address"
        },
        {
          "indexed": true,
          "internalType": "address",
          "name": "operator",
          "type": "address"
        },
        {
          "indexed": false,
          "internalType": "bool",
          "name": "approved",
          "type": "bool"
        }
      ],
      "name": "ApprovalForAll",
      "type": "event"
    },
    {
      "anonymous": false,
      "inputs": [
        {
          "indexed": true,
          "internalType": "address",
          "name": "controller",
          "type": "address"
        }
      ],
      "name": "ControllerAdded",
      "type": "event"
    },
    {
      "anonymous": false,
      "inputs": [
        {
          "indexed": true,
          "internalType": "address",
          "name": "controller",
          "type": "address"
        }
      ],
      "name": "ControllerRemoved",
      "type": "event"
    },
    {
      "anonymous": false,
      "inputs": [
        {
          "indexed": true,
          "internalType": "uint256",
          "name": "id",
          "type": "uint256"
        },
        {
          "indexed": true,
          "internalType": "address",
          "name": "owner",
          "type": "address"
        },
        {
          "indexed": false,
          "internalType": "uint256",
          "name": "expires",
          "type": "uint256"
        }
      ],
      "name": "NameMigrated",
      "type": "event"
    },
    {
      "anonymous": false,
      "inputs": [
        {
          "indexed": true,
          "internalType": "uint256",
          "name": "id",
          "type": "uint256"
        },
        {
          "indexed": true,
          "internalType": "address",
          "name": "owner",
          "type": "address"
        },
        {
          "indexed": false,
          "internalType": "uint256",
          "name": "expires",
          "type": "uint256"
        }
      ],
      "name": "NameRegistered",
      "type": "event"
    },
    {
      "anonymous": false,
      "inputs": [
        {
          "indexed": true,
          "internalType": "uint256",
          "name": "id",
          "type": "uint256"
        },
        {
          "indexed": false,
          "internalType": "uint256",
          "name": "expires",
          "type": "uint256"
        }
      ],
      "name": "NameRenewed",
      "type": "event"
    },
    {
      "anonymous": false,
      "inputs": [
        {
          "indexed": true,
          "internalType": "address",
          "name": "previousOwner",
          "type": "address"
        },
        {
          "indexed": true,
          "internalType": "address",
          "name": "newOwner",
          "type": "address"
        }
      ],
      "name": "OwnershipTransferred",
      "type": "event"
    },
    {
      "anonymous": false,
      "inputs": [
        {
          "indexed": true,
          "internalType": "address",
          "name": "from",
          "type": "address"
        },
        {
          "indexed": true,
          "internalType": "address",
          "name": "to",
          "type": "address"
        },
        {
          "indexed": true,
          "internalType": "uint256",
          "name": "tokenId",
          "type": "uint256"
        }
      ],
      "name": "Transfer",
      "type": "event"
    },
    {
      "inputs": [],
      "name": "GRACE_PERIOD",
      "outputs": [
        {
          "internalType": "uint256",
          "name": "",
          "type": "uint256"
        }
      ],
      "stateMutability": "view",
      "type": "function",
      "constant": true
    },
    {
      "inputs": [
        {
          "internalType": "address",
          "name": "controller",
          "type": "address"
        }
      ],
      "name": "addController",
      "outputs": [],
      "stateMutability": "nonpayable",
      "type": "function"
    },
    {
      "inputs": [
        {
          "internalType": "address",
          "name": "to",
          "type": "address"
        },
        {
          "internalType": "uint256",
          "name": "tokenId",
          "type": "uint256"
        }
      ],
      "name": "approve",
      "outputs": [],
      "stateMutability": "nonpayable",
      "type": "function"
    },
    {
      "inputs": [
        {
          "internalType": "uint256",
          "name": "id",
          "type": "uint256"
        }
      ],
      "name": "available",
      "outputs": [
        {
          "internalType": "bool",
          "name": "",
          "type": "bool"
        }
      ],
      "stateMutability": "view",
      "type": "function",
      "constant": true
    },
    {
      "inputs": [
        {
          "internalType": "address",
          "name": "owner",
          "type": "address"
        }
      ],
      "name": "balanceOf",
      "outputs": [
        {
          "internalType": "uint256",
          "name": "",
          "type": "uint256"
        }
      ],
      "stateMutability": "view",
      "type": "function",
      "constant": true
    },
    {
      "inputs": [],
      "name": "baseNode",
      "outputs": [
        {
          "internalType": "bytes32",
          "name": "",
          "type": "bytes32"
        }
      ],
      "stateMutability": "view",
      "type": "function",
      "constant": true
    },
    {
      "inputs": [
        {
          "internalType": "address",
          "name": "",
          "type": "address"
        }
      ],
      "name": "controllers",
      "outputs": [
        {
          "internalType": "bool",
          "name": "",
          "type": "bool"
        }
      ],
      "stateMutability": "view",
      "type": "function",
      "constant": true
    },
    {
      "inputs": [],
      "name": "ens",
      "outputs": [
        {
          "internalType": "contract ENS",
          "name": "",
          "type": "address"
        }
      ],
      "stateMutability": "view",
      "type": "function",
      "constant": true
    },
    {
      "inputs": [
        {
          "internalType": "uint256",
          "name": "tokenId",
          "type": "uint256"
        }
      ],
      "name": "getApproved",
      "outputs": [
        {
          "internalType": "address",
          "name": "",
          "type": "address"
        }
      ],
      "stateMutability": "view",
      "type": "function",
      "constant": true
    },
    {
      "inputs": [
        {
          "internalType": "address",
          "name": "owner",
          "type": "address"
        },
        {
          "internalType": "address",
          "name": "operator",
          "type": "address"
        }
      ],
      "name": "isApprovedForAll",
      "outputs": [
        {
          "internalType": "bool",
          "name": "",
          "type": "bool"
        }
      ],
      "stateMutability": "view",
      "type": "function",
      "constant": true
    },
    {
      "inputs": [],
      "name": "name",
      "outputs": [
        {
          "internalType": "string",
          "name": "",
          "type": "string"
        }
      ],
      "stateMutability": "view",
      "type": "function",
      "constant": true
    },
    {
      "inputs": [
        {
          "internalType": "uint256",
          "name": "id",
          "type": "uint256"
        }
      ],
      "name": "nameExpires",
      "outputs": [
        {
          "internalType": "uint256",
          "name": "",
          "type": "uint256"
        }
      ],
      "stateMutability": "view",
      "type": "function",
      "constant": true
    },
    {
      "inputs": [],
      "name": "owner",
      "outputs": [
        {
          "internalType": "address",
          "name": "",
          "type": "address"
        }
      ],
      "stateMutability": "view",
      "type": "function",
      "constant": true
    },
    {
      "inputs": [
        {
          "internalType": "uint256",
          "name": "tokenId",
          "type": "uint256"
        }
      ],
      "name": "ownerOf",
      "outputs": [
        {
          "internalType": "address",
          "name": "",
          "type": "address"
        }
      ],
      "stateMutability": "view",
      "type": "function",
      "constant": true
    },
    {
      "inputs": [
        {
          "internalType": "uint256",
          "name": "id",
          "type": "uint256"
        },
        {
          "internalType": "address",
          "name": "owner",
          "type": "address"
        }
      ],
      "name": "reclaim",
      "outputs": [],
      "stateMutability": "nonpayable",
      "type": "function"
    },
    {
      "inputs": [
        {
          "internalType": "uint256",
          "name": "id",
          "type": "uint256"
        },
        {
          "internalType": "address",
          "name": "owner",
          "type": "address"
        },
        {
          "internalType": "uint256",
          "name": "duration",
          "type": "uint256"
        }
      ],
      "name": "registerOnly",
      "outputs": [
        {
          "internalType": "uint256",
          "name": "",
          "type": "uint256"
        }
      ],
      "stateMutability": "nonpayable",
      "type": "function"
    },
    {
      "inputs": [
        {
          "internalType": "address",
          "name": "controller",
          "type": "address"
        }
      ],
      "name": "removeController",
      "outputs": [],
      "stateMutability": "nonpayable",
      "type": "function"
    },
    {
      "inputs": [
        {
          "internalType": "uint256",
          "name": "id",
          "type": "uint256"
        },
        {
          "internalType": "uint256",
          "name": "duration",
          "type": "uint256"
        }
      ],
      "name": "renew",
      "outputs": [
        {
          "internalType": "uint256",
          "name": "",
          "type": "uint256"
        }
      ],
      "stateMutability": "nonpayable",
      "type": "function"
    },
    {
      "inputs": [],
      "name": "renounceOwnership",
      "outputs": [],
      "stateMutability": "nonpayable",
      "type": "function"
    },
    {
      "inputs": [
        {
          "internalType": "address",
          "name": "from",
          "type": "address"
        },
        {
          "internalType": "address",
          "name": "to",
          "type": "address"
        },
        {
          "internalType": "uint256",
          "name": "tokenId",
          "type": "uint256"
        }
      ],
      "name": "safeTransferFrom",
      "outputs": [],
      "stateMutability": "nonpayable",
      "type": "function"
    },
    {
      "inputs": [
        {
          "internalType": "address",
          "name": "from",
          "type": "address"
        },
        {
          "internalType": "address",
          "name": "to",
          "type": "address"
        },
        {
          "internalType": "uint256",
          "name": "tokenId",
          "type": "uint256"
        },
        {
          "internalType": "bytes",
          "name": "_data",
          "type": "bytes"
        }
      ],
      "name": "safeTransferFrom",
      "outputs": [],
      "stateMutability": "nonpayable",
      "type": "function"
    },
    {
      "inputs": [
        {
          "internalType": "address",
          "name": "operator",
          "type": "address"
        },
        {
          "internalType": "bool",
          "name": "approved",
          "type": "bool"
        }
      ],
      "name": "setApprovalForAll",
      "outputs": [],
      "stateMutability": "nonpayable",
      "type": "function"
    },
    {
      "inputs": [
        {
          "internalType": "address",
          "name": "resolver",
          "type": "address"
        }
      ],
      "name": "setResolver",
      "outputs": [],
      "stateMutability": "nonpayable",
      "type": "function"
    },
    {
      "inputs": [
        {
          "internalType": "bytes4",
          "name": "interfaceID",
          "type": "bytes4"
        }
      ],
      "name": "supportsInterface",
      "outputs": [
        {
          "internalType": "bool",
          "name": "",
          "type": "bool"
        }
      ],
      "stateMutability": "view",
      "type": "function",
      "constant": true
    },
    {
      "inputs": [],
      "name": "symbol",
      "outputs": [
        {
          "internalType": "string",
          "name": "",
          "type": "string"
        }
      ],
      "stateMutability": "view",
      "type": "function",
      "constant": true
    },
    {
      "inputs": [
        {
          "internalType": "uint256",
          "name": "tokenId",
          "type": "uint256"
        }
      ],
      "name": "tokenURI",
      "outputs": [
        {
          "internalType": "string",
          "name": "",
          "type": "string"
        }
      ],
      "stateMutability": "view",
      "type": "function",
      "constant": true
    },
    {
      "inputs": [
        {
          "internalType": "address",
          "name": "from",
          "type": "address"
        },
        {
          "internalType": "address",
          "name": "to",
          "type": "address"
        },
        {
          "internalType": "uint256",
          "name": "tokenId",
          "type": "uint256"
        }
      ],
      "name": "transferFrom",
      "outputs": [],
      "stateMutability": "nonpayable",
      "type": "function"
    },
    {
      "inputs": [
        {
          "internalType": "address",
          "name": "newOwner",
          "type": "address"
        }
      ],
      "name": "transferOwnership",
      "outputs": [],
      "stateMutability": "nonpayable",
      "type": "function"
    },
    {
      "inputs": [
        {
          "internalType": "bytes32",
          "name": "_hash",
          "type": "bytes32"
        }
      ],
      "name": "register",
      "outputs": [],
      "stateMutability": "payable",
      "type": "function",
      "payable": true
    },
    {
      "inputs": [
        {
          "internalType": "uint256",
          "name": "id",
          "type": "uint256"
        },
        {
          "internalType": "address",
          "name": "owner",
          "type": "address"
        },
        {
          "internalType": "uint256",
          "name": "duration",
          "type": "uint256"
        }
      ],
      "name": "register",
      "outputs": [
        {
          "internalType": "uint256",
          "name": "",
          "type": "uint256"
        }
      ],
      "stateMutability": "nonpayable",
      "type": "function"
    }
  ],
  "bytecode": "0x60806040523480156200001157600080fd5b506040516200425138038062004251833981810160405281019062000037919062000275565b8181604051806020016040528060008152506040518060200160405280600081525060006200006b6200018f60201b60201c565b9050806000806101000a81548173ffffffffffffffffffffffffffffffffffffffff021916908373ffffffffffffffffffffffffffffffffffffffff1602179055508073ffffffffffffffffffffffffffffffffffffffff16600073ffffffffffffffffffffffffffffffffffffffff167f8be0079c531659141344cd1fd0a4f28419497f9722a3daafe3b4186f6b6457e060405160405180910390a35081600190805190602001906200012192919062000197565b5080600290805190602001906200013a92919062000197565b50505081600760006101000a81548173ffffffffffffffffffffffffffffffffffffffff021916908373ffffffffffffffffffffffffffffffffffffffff1602179055508060088190555050505050620003a1565b600033905090565b828054620001a59062000308565b90600052602060002090601f016020900481019282620001c9576000855562000215565b82601f10620001e457805160ff191683800117855562000215565b8280016001018555821562000215579182015b8281111562000214578251825591602001919060010190620001f7565b5b50905062000224919062000228565b5090565b5b808211156200024357600081600090555060010162000229565b5090565b60008151905062000258816200036d565b92915050565b6000815190506200026f8162000387565b92915050565b600080604083850312156200028957600080fd5b600062000299858286016200025e565b9250506020620002ac8582860162000247565b9150509250929050565b6000620002c382620002e8565b9050919050565b6000819050919050565b6000620002e182620002b6565b9050919050565b600073ffffffffffffffffffffffffffffffffffffffff82169050919050565b600060028204905060018216806200032157607f821691505b602082108114156200033857620003376200033e565b5b50919050565b7f4e487b7100000000000000000000000000000000000000000000000000000000600052602260045260246000fd5b6200037881620002ca565b81146200038457600080fd5b50565b6200039281620002d4565b81146200039e57600080fd5b50565b613ea080620003b16000396000f3fe6080604052600436106101cd5760003560e01c806396e494e8116100f7578063d6e4fa8611610095578063e985e9c511610064578063e985e9c5146106b1578063f2fde38b146106ee578063f6a74ed714610717578063fca247ac14610740576101cd565b8063d6e4fa86146105f0578063da8c229e1461062d578063ddf7fcb01461066a578063e1fa8e8414610695576101cd565b8063b88d4fde116100d1578063b88d4fde14610522578063c1a287e21461054b578063c475abff14610576578063c87b56dd146105b3576101cd565b806396e494e814610493578063a22cb465146104d0578063a7fc7a07146104f9576101cd565b80633f15457f1161016f57806370a082311161013e57806370a08231146103e9578063715018a6146104265780638da5cb5b1461043d57806395d89b4114610468576101cd565b80633f15457f1461032f57806342842e0e1461035a5780634e543b26146103835780636352211e146103ac576101cd565b8063095ea7b3116101ab578063095ea7b3146102775780630e297b45146102a057806323b872dd146102dd57806328ed4f6c14610306576101cd565b806301ffc9a7146101d257806306fdde031461020f578063081812fc1461023a575b600080fd5b3480156101de57600080fd5b506101f960048036038101906101f49190612e76565b61077d565b604051610206919061333e565b60405180910390f35b34801561021b57600080fd5b506102246109c7565b60405161023191906133ef565b60405180910390f35b34801561024657600080fd5b50610261600480360381019061025c9190612ec8565b610a59565b60405161026e91906132d7565b60405180910390f35b34801561028357600080fd5b5061029e60048036038101906102999190612de8565b610ade565b005b3480156102ac57600080fd5b506102c760048036038101906102c29190612f2d565b610bf6565b6040516102d491906135f1565b60405180910390f35b3480156102e957600080fd5b5061030460048036038101906102ff9190612ce2565b610c0e565b005b34801561031257600080fd5b5061032d60048036038101906103289190612ef1565b610c6e565b005b34801561033b57600080fd5b50610344610e20565b60405161035191906133d4565b60405180910390f35b34801561036657600080fd5b50610381600480360381019061037c9190612ce2565b610e46565b005b34801561038f57600080fd5b506103aa60048036038101906103a59190612c54565b610e66565b005b3480156103b857600080fd5b506103d360048036038101906103ce9190612ec8565b610f76565b6040516103e091906132d7565b60405180910390f35b3480156103f557600080fd5b50610410600480360381019061040b9190612c54565b610fa7565b60405161041d91906135f1565b60405180910390f35b34801561043257600080fd5b5061043b61105f565b005b34801561044957600080fd5b50610452611199565b60405161045f91906132d7565b60405180910390f35b34801561047457600080fd5b5061047d6111c2565b60405161048a91906133ef565b60405180910390f35b34801561049f57600080fd5b506104ba60048036038101906104b59190612ec8565b611254565b6040516104c7919061333e565b60405180910390f35b3480156104dc57600080fd5b506104f760048036038101906104f29190612dac565b611281565b005b34801561050557600080fd5b50610520600480360381019061051b9190612c54565b611402565b005b34801561052e57600080fd5b5061054960048036038101906105449190612d31565b61151c565b005b34801561055757600080fd5b5061056061157e565b60405161056d91906135f1565b60405180910390f35b34801561058257600080fd5b5061059d60048036038101906105989190612f7c565b611585565b6040516105aa91906135f1565b60405180910390f35b3480156105bf57600080fd5b506105da60048036038101906105d59190612ec8565b6117c6565b6040516105e791906133ef565b60405180910390f35b3480156105fc57600080fd5b5061061760048036038101906106129190612ec8565b61186d565b60405161062491906135f1565b60405180910390f35b34801561063957600080fd5b50610654600480360381019061064f9190612c54565b61188a565b604051610661919061333e565b60405180910390f35b34801561067657600080fd5b5061067f6118aa565b60405161068c9190613359565b60405180910390f35b6106af60048036038101906106aa9190612e24565b6118b0565b005b3480156106bd57600080fd5b506106d860048036038101906106d39190612ca6565b611963565b6040516106e5919061333e565b60405180910390f35b3480156106fa57600080fd5b5061071560048036038101906107109190612c54565b6119f7565b005b34801561072357600080fd5b5061073e60048036038101906107399190612c54565b611ba0565b005b34801561074c57600080fd5b5061076760048036038101906107629190612f2d565b611cba565b60405161077491906135f1565b60405180910390f35b60007f01ffc9a7a5cef8baa21ed3c5c0d7e23accb804b619e9333b597f47a0d84076e27bffffffffffffffffffffffffffffffffffffffffffffffffffffffff1916827bffffffffffffffffffffffffffffffffffffffffffffffffffffffff1916148061095857507fb88d4fde60196325a28bb7f99a2582e0b46de55b18761e960c14ad7a320994657f42842e0eb38857a7775b4e7364b2775df7325074d088e7fb39590cd6281184ed7f23b872dd7302113369cda2901243429419bec145408fa8b352b3dd92b66c680b7fe985e9c5c6636c6879256001057b28ccac7718ef0ac56553ff9b926452cab8a37fa22cb4651ab9570f89bb516380c40ce76762284fb1f21337ceaf6adab99e7d4a7f081812fc55e34fdc7cf5d8b5cf4e3621fa6423fde952ec6ab24afdc0d85c0b2e7f095ea7b334ae44009aa867bfb386f5c3b4b443ac6f0ee573fa91c4608fbadfba7f6352211e6566aa027e75ac9dbf2423197fbd9b82b9d981a3ab367d355866aa1c7f70a08231b98ef4ca268c9cc3f6b4590e4bfec28280db06bb5d45e689f2a360be18181818181818187bffffffffffffffffffffffffffffffffffffffffffffffffffffffff1916827bffffffffffffffffffffffffffffffffffffffffffffffffffffffff1916145b806109c057507f28ed4f6c74b219a5819055dfbcd2f1837c046c364cf01fabb6799e4f440d6f137bffffffffffffffffffffffffffffffffffffffffffffffffffffffff1916827bffffffffffffffffffffffffffffffffffffffffffffffffffffffff1916145b9050919050565b6060600180546109d690613844565b80601f0160208091040260200160405190810160405280929190818152602001828054610a0290613844565b8015610a4f5780601f10610a2457610100808354040283529160200191610a4f565b820191906000526020600020905b815481529060010190602001808311610a3257829003601f168201915b5050505050905090565b6000610a6482611cd2565b610aa3576040517f08c379a0000000000000000000000000000000000000000000000000000000008152600401610a9a90613531565b60405180910390fd5b6005600083815260200190815260200160002060009054906101000a900473ffffffffffffffffffffffffffffffffffffffff169050919050565b6000610ae982611d3e565b90508073ffffffffffffffffffffffffffffffffffffffff168373ffffffffffffffffffffffffffffffffffffffff161415610b5a576040517f08c379a0000000000000000000000000000000000000000000000000000000008152600401610b51906135b1565b60405180910390fd5b8073ffffffffffffffffffffffffffffffffffffffff16610b79611df0565b73ffffffffffffffffffffffffffffffffffffffff161480610ba85750610ba781610ba2611df0565b611963565b5b610be7576040517f08c379a0000000000000000000000000000000000000000000000000000000008152600401610bde906134b1565b60405180910390fd5b610bf18383611df8565b505050565b6000610c058484846000611eb1565b90509392505050565b610c1f610c19611df0565b826121a5565b610c5e576040517f08c379a0000000000000000000000000000000000000000000000000000000008152600401610c55906135d1565b60405180910390fd5b610c6983838361223a565b505050565b3073ffffffffffffffffffffffffffffffffffffffff16600760009054906101000a900473ffffffffffffffffffffffffffffffffffffffff1673ffffffffffffffffffffffffffffffffffffffff166302571be36008546040518263ffffffff1660e01b8152600401610ce29190613359565b60206040518083038186803b158015610cfa57600080fd5b505afa158015610d0e573d6000803e3d6000fd5b505050506040513d601f19601f82011682018060405250810190610d329190612c7d565b73ffffffffffffffffffffffffffffffffffffffff1614610d5257600080fd5b610d5c33836121a5565b610d6557600080fd5b600760009054906101000a900473ffffffffffffffffffffffffffffffffffffffff1673ffffffffffffffffffffffffffffffffffffffff166306ab59236008548460001b846040518463ffffffff1660e01b8152600401610dc99392919061339d565b602060405180830381600087803b158015610de357600080fd5b505af1158015610df7573d6000803e3d6000fd5b505050506040513d601f19601f82011682018060405250810190610e1b9190612e4d565b505050565b600760009054906101000a900473ffffffffffffffffffffffffffffffffffffffff1681565b610e618383836040518060200160405280600081525061151c565b505050565b610e6e611df0565b73ffffffffffffffffffffffffffffffffffffffff16610e8c611199565b73ffffffffffffffffffffffffffffffffffffffff1614610ee2576040517f08c379a0000000000000000000000000000000000000000000000000000000008152600401610ed990613551565b60405180910390fd5b600760009054906101000a900473ffffffffffffffffffffffffffffffffffffffff1673ffffffffffffffffffffffffffffffffffffffff16631896f70a600854836040518363ffffffff1660e01b8152600401610f41929190613374565b600060405180830381600087803b158015610f5b57600080fd5b505af1158015610f6f573d6000803e3d6000fd5b5050505050565b600042600a60008481526020019081526020016000205411610f9757600080fd5b610fa082611d3e565b9050919050565b60008073ffffffffffffffffffffffffffffffffffffffff168273ffffffffffffffffffffffffffffffffffffffff161415611018576040517f08c379a000000000000000000000000000000000000000000000000000000000815260040161100f906134d1565b60405180910390fd5b600460008373ffffffffffffffffffffffffffffffffffffffff1673ffffffffffffffffffffffffffffffffffffffff168152602001908152602001600020549050919050565b611067611df0565b73ffffffffffffffffffffffffffffffffffffffff16611085611199565b73ffffffffffffffffffffffffffffffffffffffff16146110db576040517f08c379a00000000000000000000000000000000000000000000000000000000081526004016110d290613551565b60405180910390fd5b600073ffffffffffffffffffffffffffffffffffffffff1660008054906101000a900473ffffffffffffffffffffffffffffffffffffffff1673ffffffffffffffffffffffffffffffffffffffff167f8be0079c531659141344cd1fd0a4f28419497f9722a3daafe3b4186f6b6457e060405160405180910390a360008060006101000a81548173ffffffffffffffffffffffffffffffffffffffff021916908373ffffffffffffffffffffffffffffffffffffffff160217905550565b60008060009054906101000a900473ffffffffffffffffffffffffffffffffffffffff16905090565b6060600280546111d190613844565b80601f01602080910402602001604051908101604052809291908181526020018280546111fd90613844565b801561124a5780601f1061121f5761010080835404028352916020019161124a565b820191906000526020600020905b81548152906001019060200180831161122d57829003601f168201915b5050505050905090565b6000426276a700600a60008581526020019081526020016000205461127991906136a5565b109050919050565b611289611df0565b73ffffffffffffffffffffffffffffffffffffffff168273ffffffffffffffffffffffffffffffffffffffff1614156112f7576040517f08c379a00000000000000000000000000000000000000000000000000000000081526004016112ee90613491565b60405180910390fd5b8060066000611304611df0565b73ffffffffffffffffffffffffffffffffffffffff1673ffffffffffffffffffffffffffffffffffffffff16815260200190815260200160002060008473ffffffffffffffffffffffffffffffffffffffff1673ffffffffffffffffffffffffffffffffffffffff16815260200190815260200160002060006101000a81548160ff0219169083151502179055508173ffffffffffffffffffffffffffffffffffffffff166113b1611df0565b73ffffffffffffffffffffffffffffffffffffffff167f17307eab39ab6107e8899845ad3d59bd9653f200f220920489ca2b5937696c31836040516113f6919061333e565b60405180910390a35050565b61140a611df0565b73ffffffffffffffffffffffffffffffffffffffff16611428611199565b73ffffffffffffffffffffffffffffffffffffffff161461147e576040517f08c379a000000000000000000000000000000000000000000000000000000000815260040161147590613551565b60405180910390fd5b6001600960008373ffffffffffffffffffffffffffffffffffffffff1673ffffffffffffffffffffffffffffffffffffffff16815260200190815260200160002060006101000a81548160ff0219169083151502179055508073ffffffffffffffffffffffffffffffffffffffff167f0a8bb31534c0ed46f380cb867bd5c803a189ced9a764e30b3a4991a9901d747460405160405180910390a250565b61152d611527611df0565b836121a5565b61156c576040517f08c379a0000000000000000000000000000000000000000000000000000000008152600401611563906135d1565b60405180910390fd5b61157884848484612496565b50505050565b6276a70081565b60003073ffffffffffffffffffffffffffffffffffffffff16600760009054906101000a900473ffffffffffffffffffffffffffffffffffffffff1673ffffffffffffffffffffffffffffffffffffffff166302571be36008546040518263ffffffff1660e01b81526004016115fb9190613359565b60206040518083038186803b15801561161357600080fd5b505afa158015611627573d6000803e3d6000fd5b505050506040513d601f19601f8201168201806040525081019061164b9190612c7d565b73ffffffffffffffffffffffffffffffffffffffff161461166b57600080fd5b600960003373ffffffffffffffffffffffffffffffffffffffff1673ffffffffffffffffffffffffffffffffffffffff16815260200190815260200160002060009054906101000a900460ff166116c157600080fd5b426276a700600a6000868152602001908152602001600020546116e491906136a5565b10156116ef57600080fd5b6276a700826116fe91906136a5565b6276a70083600a60008781526020019081526020016000205461172191906136a5565b61172b91906136a5565b1161173557600080fd5b81600a6000858152602001908152602001600020600082825461175891906136a5565b92505081905550827f9b87a00e30f1ac65d898f070f8a3488fe60517182d0a2098e1b4b93a54aa9bd6600a6000868152602001908152602001600020546040516117a291906135f1565b60405180910390a2600a600084815260200190815260200160002054905092915050565b60606117d182611cd2565b611810576040517f08c379a000000000000000000000000000000000000000000000000000000000815260040161180790613591565b60405180910390fd5b600061181a6124f2565b9050600081511161183a5760405180602001604052806000815250611865565b8061184484612509565b6040516020016118559291906132b3565b6040516020818303038152906040525b915050919050565b6000600a6000838152602001908152602001600020549050919050565b60096020528060005260406000206000915054906101000a900460ff1681565b60085481565b6001600960003373ffffffffffffffffffffffffffffffffffffffff1673ffffffffffffffffffffffffffffffffffffffff16815260200190815260200160002060006101000a81548160ff0219169083151502179055503373ffffffffffffffffffffffffffffffffffffffff167f0a8bb31534c0ed46f380cb867bd5c803a189ced9a764e30b3a4991a9901d747460405160405180910390a261195f8160001c336301e133806001611eb1565b5050565b6000600660008473ffffffffffffffffffffffffffffffffffffffff1673ffffffffffffffffffffffffffffffffffffffff16815260200190815260200160002060008373ffffffffffffffffffffffffffffffffffffffff1673ffffffffffffffffffffffffffffffffffffffff16815260200190815260200160002060009054906101000a900460ff16905092915050565b6119ff611df0565b73ffffffffffffffffffffffffffffffffffffffff16611a1d611199565b73ffffffffffffffffffffffffffffffffffffffff1614611a73576040517f08c379a0000000000000000000000000000000000000000000000000000000008152600401611a6a90613551565b60405180910390fd5b600073ffffffffffffffffffffffffffffffffffffffff168173ffffffffffffffffffffffffffffffffffffffff161415611ae3576040517f08c379a0000000000000000000000000000000000000000000000000000000008152600401611ada90613431565b60405180910390fd5b8073ffffffffffffffffffffffffffffffffffffffff1660008054906101000a900473ffffffffffffffffffffffffffffffffffffffff1673ffffffffffffffffffffffffffffffffffffffff167f8be0079c531659141344cd1fd0a4f28419497f9722a3daafe3b4186f6b6457e060405160405180910390a3806000806101000a81548173ffffffffffffffffffffffffffffffffffffffff021916908373ffffffffffffffffffffffffffffffffffffffff16021790555050565b611ba8611df0565b73ffffffffffffffffffffffffffffffffffffffff16611bc6611199565b73ffffffffffffffffffffffffffffffffffffffff1614611c1c576040517f08c379a0000000000000000000000000000000000000000000000000000000008152600401611c1390613551565b60405180910390fd5b6000600960008373ffffffffffffffffffffffffffffffffffffffff1673ffffffffffffffffffffffffffffffffffffffff16815260200190815260200160002060006101000a81548160ff0219169083151502179055508073ffffffffffffffffffffffffffffffffffffffff167f33d83959be2573f5453b12eb9d43b3499bc57d96bd2f067ba44803c859e8111360405160405180910390a250565b6000611cc98484846001611eb1565b90509392505050565b60008073ffffffffffffffffffffffffffffffffffffffff166003600084815260200190815260200160002060009054906101000a900473ffffffffffffffffffffffffffffffffffffffff1673ffffffffffffffffffffffffffffffffffffffff1614159050919050565b6000806003600084815260200190815260200160002060009054906101000a900473ffffffffffffffffffffffffffffffffffffffff169050600073ffffffffffffffffffffffffffffffffffffffff168173ffffffffffffffffffffffffffffffffffffffff161415611de7576040517f08c379a0000000000000000000000000000000000000000000000000000000008152600401611dde906134f1565b60405180910390fd5b80915050919050565b600033905090565b816005600083815260200190815260200160002060006101000a81548173ffffffffffffffffffffffffffffffffffffffff021916908373ffffffffffffffffffffffffffffffffffffffff160217905550808273ffffffffffffffffffffffffffffffffffffffff16611e6b83611d3e565b73ffffffffffffffffffffffffffffffffffffffff167f8c5be1e5ebec7d5bd14f71427d1e84f3dd0314c0f7b2291e5b200ac8c7c3b92560405160405180910390a45050565b60003073ffffffffffffffffffffffffffffffffffffffff16600760009054906101000a900473ffffffffffffffffffffffffffffffffffffffff1673ffffffffffffffffffffffffffffffffffffffff166302571be36008546040518263ffffffff1660e01b8152600401611f279190613359565b60206040518083038186803b158015611f3f57600080fd5b505afa158015611f53573d6000803e3d6000fd5b505050506040513d601f19601f82011682018060405250810190611f779190612c7d565b73ffffffffffffffffffffffffffffffffffffffff1614611f9757600080fd5b600960003373ffffffffffffffffffffffffffffffffffffffff1673ffffffffffffffffffffffffffffffffffffffff16815260200190815260200160002060009054906101000a900460ff16611fed57600080fd5b611ff685611254565b611fff57600080fd5b6276a7004261200e91906136a5565b6276a700844261201e91906136a5565b61202891906136a5565b1161203257600080fd5b824261203e91906136a5565b600a60008781526020019081526020016000208190555061205e85611cd2565b1561206d5761206c856126b6565b5b61207784866127c7565b811561213557600760009054906101000a900473ffffffffffffffffffffffffffffffffffffffff1673ffffffffffffffffffffffffffffffffffffffff166306ab59236008548760001b876040518463ffffffff1660e01b81526004016120e19392919061339d565b602060405180830381600087803b1580156120fb57600080fd5b505af115801561210f573d6000803e3d6000fd5b505050506040513d601f19601f820116820180604052508101906121339190612e4d565b505b8373ffffffffffffffffffffffffffffffffffffffff16857fb3d987963d01b2f68493b4bdb130988f157ea43070d4ad840fee0466ed9370d9854261217a91906136a5565b60405161218791906135f1565b60405180910390a3824261219b91906136a5565b9050949350505050565b6000806121b183610f76565b90508073ffffffffffffffffffffffffffffffffffffffff168473ffffffffffffffffffffffffffffffffffffffff16148061222057508373ffffffffffffffffffffffffffffffffffffffff1661220884610a59565b73ffffffffffffffffffffffffffffffffffffffff16145b8061223157506122308185611963565b5b91505092915050565b8273ffffffffffffffffffffffffffffffffffffffff1661225a82611d3e565b73ffffffffffffffffffffffffffffffffffffffff16146122b0576040517f08c379a00000000000000000000000000000000000000000000000000000000081526004016122a790613571565b60405180910390fd5b600073ffffffffffffffffffffffffffffffffffffffff168273ffffffffffffffffffffffffffffffffffffffff161415612320576040517f08c379a000000000000000000000000000000000000000000000000000000000815260040161231790613471565b60405180910390fd5b61232b838383612995565b612336600082611df8565b6001600460008573ffffffffffffffffffffffffffffffffffffffff1673ffffffffffffffffffffffffffffffffffffffff1681526020019081526020016000206000828254612386919061372c565b925050819055506001600460008473ffffffffffffffffffffffffffffffffffffffff1673ffffffffffffffffffffffffffffffffffffffff16815260200190815260200160002060008282546123dd91906136a5565b92505081905550816003600083815260200190815260200160002060006101000a81548173ffffffffffffffffffffffffffffffffffffffff021916908373ffffffffffffffffffffffffffffffffffffffff160217905550808273ffffffffffffffffffffffffffffffffffffffff168473ffffffffffffffffffffffffffffffffffffffff167fddf252ad1be2c89b69c2b068fc378daa952ba7f163c4a11628f55a4df523b3ef60405160405180910390a4505050565b6124a184848461223a565b6124ad8484848461299a565b6124ec576040517f08c379a00000000000000000000000000000000000000000000000000000000081526004016124e390613411565b60405180910390fd5b50505050565b606060405180602001604052806000815250905090565b60606000821415612551576040518060400160405280600181526020017f300000000000000000000000000000000000000000000000000000000000000081525090506126b1565b600082905060005b6000821461258357808061256c906138a7565b915050600a8261257c91906136fb565b9150612559565b60008167ffffffffffffffff8111156125c5577f4e487b7100000000000000000000000000000000000000000000000000000000600052604160045260246000fd5b6040519080825280601f01601f1916602001820160405280156125f75781602001600182028036833780820191505090505b5090505b600085146126aa57600182612610919061372c565b9150600a8561261f91906138f0565b603061262b91906136a5565b60f81b818381518110612667577f4e487b7100000000000000000000000000000000000000000000000000000000600052603260045260246000fd5b60200101907effffffffffffffffffffffffffffffffffffffffffffffffffffffffffffff1916908160001a905350600a856126a391906136fb565b94506125fb565b8093505050505b919050565b60006126c182611d3e565b90506126cf81600084612995565b6126da600083611df8565b6001600460008373ffffffffffffffffffffffffffffffffffffffff1673ffffffffffffffffffffffffffffffffffffffff168152602001908152602001600020600082825461272a919061372c565b925050819055506003600083815260200190815260200160002060006101000a81549073ffffffffffffffffffffffffffffffffffffffff021916905581600073ffffffffffffffffffffffffffffffffffffffff168273ffffffffffffffffffffffffffffffffffffffff167fddf252ad1be2c89b69c2b068fc378daa952ba7f163c4a11628f55a4df523b3ef60405160405180910390a45050565b600073ffffffffffffffffffffffffffffffffffffffff168273ffffffffffffffffffffffffffffffffffffffff161415612837576040517f08c379a000000000000000000000000000000000000000000000000000000000815260040161282e90613511565b60405180910390fd5b61284081611cd2565b15612880576040517f08c379a000000000000000000000000000000000000000000000000000000000815260040161287790613451565b60405180910390fd5b61288c60008383612995565b6001600460008473ffffffffffffffffffffffffffffffffffffffff1673ffffffffffffffffffffffffffffffffffffffff16815260200190815260200160002060008282546128dc91906136a5565b92505081905550816003600083815260200190815260200160002060006101000a81548173ffffffffffffffffffffffffffffffffffffffff021916908373ffffffffffffffffffffffffffffffffffffffff160217905550808273ffffffffffffffffffffffffffffffffffffffff16600073ffffffffffffffffffffffffffffffffffffffff167fddf252ad1be2c89b69c2b068fc378daa952ba7f163c4a11628f55a4df523b3ef60405160405180910390a45050565b505050565b60006129bb8473ffffffffffffffffffffffffffffffffffffffff16612b31565b15612b24578373ffffffffffffffffffffffffffffffffffffffff1663150b7a026129e4611df0565b8786866040518563ffffffff1660e01b8152600401612a0694939291906132f2565b602060405180830381600087803b158015612a2057600080fd5b505af1925050508015612a5157506040513d601f19601f82011682018060405250810190612a4e9190612e9f565b60015b612ad4573d8060008114612a81576040519150601f19603f3d011682016040523d82523d6000602084013e612a86565b606091505b50600081511415612acc576040517f08c379a0000000000000000000000000000000000000000000000000000000008152600401612ac390613411565b60405180910390fd5b805181602001fd5b63150b7a0260e01b7bffffffffffffffffffffffffffffffffffffffffffffffffffffffff1916817bffffffffffffffffffffffffffffffffffffffffffffffffffffffff191614915050612b29565b600190505b949350505050565b600080823b905060008111915050919050565b6000612b57612b5284613631565b61360c565b905082815260208101848484011115612b6f57600080fd5b612b7a848285613802565b509392505050565b600081359050612b9181613df7565b92915050565b600081519050612ba681613df7565b92915050565b600081359050612bbb81613e0e565b92915050565b600081359050612bd081613e25565b92915050565b600081519050612be581613e25565b92915050565b600081359050612bfa81613e3c565b92915050565b600081519050612c0f81613e3c565b92915050565b600082601f830112612c2657600080fd5b8135612c36848260208601612b44565b91505092915050565b600081359050612c4e81613e53565b92915050565b600060208284031215612c6657600080fd5b6000612c7484828501612b82565b91505092915050565b600060208284031215612c8f57600080fd5b6000612c9d84828501612b97565b91505092915050565b60008060408385031215612cb957600080fd5b6000612cc785828601612b82565b9250506020612cd885828601612b82565b9150509250929050565b600080600060608486031215612cf757600080fd5b6000612d0586828701612b82565b9350506020612d1686828701612b82565b9250506040612d2786828701612c3f565b9150509250925092565b60008060008060808587031215612d4757600080fd5b6000612d5587828801612b82565b9450506020612d6687828801612b82565b9350506040612d7787828801612c3f565b925050606085013567ffffffffffffffff811115612d9457600080fd5b612da087828801612c15565b91505092959194509250565b60008060408385031215612dbf57600080fd5b6000612dcd85828601612b82565b9250506020612dde85828601612bac565b9150509250929050565b60008060408385031215612dfb57600080fd5b6000612e0985828601612b82565b9250506020612e1a85828601612c3f565b9150509250929050565b600060208284031215612e3657600080fd5b6000612e4484828501612bc1565b91505092915050565b600060208284031215612e5f57600080fd5b6000612e6d84828501612bd6565b91505092915050565b600060208284031215612e8857600080fd5b6000612e9684828501612beb565b91505092915050565b600060208284031215612eb157600080fd5b6000612ebf84828501612c00565b91505092915050565b600060208284031215612eda57600080fd5b6000612ee884828501612c3f565b91505092915050565b60008060408385031215612f0457600080fd5b6000612f1285828601612c3f565b9250506020612f2385828601612b82565b9150509250929050565b600080600060608486031215612f4257600080fd5b6000612f5086828701612c3f565b9350506020612f6186828701612b82565b9250506040612f7286828701612c3f565b9150509250925092565b60008060408385031215612f8f57600080fd5b6000612f9d85828601612c3f565b9250506020612fae85828601612c3f565b9150509250929050565b612fc181613760565b82525050565b612fd081613772565b82525050565b612fdf8161377e565b82525050565b6000612ff082613662565b612ffa8185613678565b935061300a818560208601613811565b613013816139dd565b840191505092915050565b613027816137de565b82525050565b60006130388261366d565b6130428185613689565b9350613052818560208601613811565b61305b816139dd565b840191505092915050565b60006130718261366d565b61307b818561369a565b935061308b818560208601613811565b80840191505092915050565b60006130a4603283613689565b91506130af826139ee565b604082019050919050565b60006130c7602683613689565b91506130d282613a3d565b604082019050919050565b60006130ea601c83613689565b91506130f582613a8c565b602082019050919050565b600061310d602483613689565b915061311882613ab5565b604082019050919050565b6000613130601983613689565b915061313b82613b04565b602082019050919050565b6000613153603883613689565b915061315e82613b2d565b604082019050919050565b6000613176602a83613689565b915061318182613b7c565b604082019050919050565b6000613199602983613689565b91506131a482613bcb565b604082019050919050565b60006131bc602083613689565b91506131c782613c1a565b602082019050919050565b60006131df602c83613689565b91506131ea82613c43565b604082019050919050565b6000613202602083613689565b915061320d82613c92565b602082019050919050565b6000613225602983613689565b915061323082613cbb565b604082019050919050565b6000613248602f83613689565b915061325382613d0a565b604082019050919050565b600061326b602183613689565b915061327682613d59565b604082019050919050565b600061328e603183613689565b915061329982613da8565b604082019050919050565b6132ad816137d4565b82525050565b60006132bf8285613066565b91506132cb8284613066565b91508190509392505050565b60006020820190506132ec6000830184612fb8565b92915050565b60006080820190506133076000830187612fb8565b6133146020830186612fb8565b61332160408301856132a4565b81810360608301526133338184612fe5565b905095945050505050565b60006020820190506133536000830184612fc7565b92915050565b600060208201905061336e6000830184612fd6565b92915050565b60006040820190506133896000830185612fd6565b6133966020830184612fb8565b9392505050565b60006060820190506133b26000830186612fd6565b6133bf6020830185612fd6565b6133cc6040830184612fb8565b949350505050565b60006020820190506133e9600083018461301e565b92915050565b60006020820190508181036000830152613409818461302d565b905092915050565b6000602082019050818103600083015261342a81613097565b9050919050565b6000602082019050818103600083015261344a816130ba565b9050919050565b6000602082019050818103600083015261346a816130dd565b9050919050565b6000602082019050818103600083015261348a81613100565b9050919050565b600060208201905081810360008301526134aa81613123565b9050919050565b600060208201905081810360008301526134ca81613146565b9050919050565b600060208201905081810360008301526134ea81613169565b9050919050565b6000602082019050818103600083015261350a8161318c565b9050919050565b6000602082019050818103600083015261352a816131af565b9050919050565b6000602082019050818103600083015261354a816131d2565b9050919050565b6000602082019050818103600083015261356a816131f5565b9050919050565b6000602082019050818103600083015261358a81613218565b9050919050565b600060208201905081810360008301526135aa8161323b565b9050919050565b600060208201905081810360008301526135ca8161325e565b9050919050565b600060208201905081810360008301526135ea81613281565b9050919050565b600060208201905061360660008301846132a4565b92915050565b6000613616613627565b90506136228282613876565b919050565b6000604051905090565b600067ffffffffffffffff82111561364c5761364b6139ae565b5b613655826139dd565b9050602081019050919050565b600081519050919050565b600081519050919050565b600082825260208201905092915050565b600082825260208201905092915050565b600081905092915050565b60006136b0826137d4565b91506136bb836137d4565b9250827fffffffffffffffffffffffffffffffffffffffffffffffffffffffffffffffff038211156136f0576136ef613921565b5b828201905092915050565b6000613706826137d4565b9150613711836137d4565b92508261372157613720613950565b5b828204905092915050565b6000613737826137d4565b9150613742836137d4565b92508282101561375557613754613921565b5b828203905092915050565b600061376b826137b4565b9050919050565b60008115159050919050565b6000819050919050565b60007fffffffff0000000000000000000000000000000000000000000000000000000082169050919050565b600073ffffffffffffffffffffffffffffffffffffffff82169050919050565b6000819050919050565b60006137e9826137f0565b9050919050565b60006137fb826137b4565b9050919050565b82818337600083830152505050565b60005b8381101561382f578082015181840152602081019050613814565b8381111561383e576000848401525b50505050565b6000600282049050600182168061385c57607f821691505b602082108114156138705761386f61397f565b5b50919050565b61387f826139dd565b810181811067ffffffffffffffff8211171561389e5761389d6139ae565b5b80604052505050565b60006138b2826137d4565b91507fffffffffffffffffffffffffffffffffffffffffffffffffffffffffffffffff8214156138e5576138e4613921565b5b600182019050919050565b60006138fb826137d4565b9150613906836137d4565b92508261391657613915613950565b5b828206905092915050565b7f4e487b7100000000000000000000000000000000000000000000000000000000600052601160045260246000fd5b7f4e487b7100000000000000000000000000000000000000000000000000000000600052601260045260246000fd5b7f4e487b7100000000000000000000000000000000000000000000000000000000600052602260045260246000fd5b7f4e487b7100000000000000000000000000000000000000000000000000000000600052604160045260246000fd5b6000601f19601f8301169050919050565b7f4552433732313a207472616e7366657220746f206e6f6e20455243373231526560008201527f63656976657220696d706c656d656e7465720000000000000000000000000000602082015250565b7f4f776e61626c653a206e6577206f776e657220697320746865207a65726f206160008201527f6464726573730000000000000000000000000000000000000000000000000000602082015250565b7f4552433732313a20746f6b656e20616c7265616479206d696e74656400000000600082015250565b7f4552433732313a207472616e7366657220746f20746865207a65726f2061646460008201527f7265737300000000000000000000000000000000000000000000000000000000602082015250565b7f4552433732313a20617070726f766520746f2063616c6c657200000000000000600082015250565b7f4552433732313a20617070726f76652063616c6c6572206973206e6f74206f7760008201527f6e6572206e6f7220617070726f76656420666f7220616c6c0000000000000000602082015250565b7f4552433732313a2062616c616e636520717565727920666f7220746865207a6560008201527f726f206164647265737300000000000000000000000000000000000000000000602082015250565b7f4552433732313a206f776e657220717565727920666f72206e6f6e657869737460008201527f656e7420746f6b656e0000000000000000000000000000000000000000000000602082015250565b7f4552433732313a206d696e7420746f20746865207a65726f2061646472657373600082015250565b7f4552433732313a20617070726f76656420717565727920666f72206e6f6e657860008201527f697374656e7420746f6b656e0000000000000000000000000000000000000000602082015250565b7f4f776e61626c653a2063616c6c6572206973206e6f7420746865206f776e6572600082015250565b7f4552433732313a207472616e73666572206f6620746f6b656e2074686174206960008201527f73206e6f74206f776e0000000000000000000000000000000000000000000000602082015250565b7f4552433732314d657461646174613a2055524920717565727920666f72206e6f60008201527f6e6578697374656e7420746f6b656e0000000000000000000000000000000000602082015250565b7f4552433732313a20617070726f76616c20746f2063757272656e74206f776e6560008201527f7200000000000000000000000000000000000000000000000000000000000000602082015250565b7f4552433732313a207472616e736665722063616c6c6572206973206e6f74206f60008201527f776e6572206e6f7220617070726f766564000000000000000000000000000000602082015250565b613e0081613760565b8114613e0b57600080fd5b50565b613e1781613772565b8114613e2257600080fd5b50565b613e2e8161377e565b8114613e3957600080fd5b50565b613e4581613788565b8114613e5057600080fd5b50565b613e5c816137d4565b8114613e6757600080fd5b5056fea2646970667358221220d49ebbc27d5873b43dfb0fd0c3530d27df54adf91356e5f91100297b45ddbb0e64736f6c63430008040033",
  "immutableReferences": {},
  "source": "// SPDX-License-Identifier: MIT\n/**\n * All contracts in this file are only used for development only.\n */\npragma solidity ^0.8.4;\n\nimport {BaseRegistrarImplementation} from \"@ensdomains/ens-contracts/contracts/ethregistrar/BaseRegistrarImplementation.sol\";\nimport {ENS} from \"@ensdomains/ens-contracts/contracts/registry/ENS.sol\";\nimport {NameResolver} from \"@ensdomains/ens-contracts/contracts/resolvers/profiles/NameResolver.sol\";\nimport {PublicResolver} from \"@ensdomains/ens-contracts/contracts/resolvers/PublicResolver.sol\";\nimport {ReverseRegistrar, NameResolver as INameResolver} from \"@ensdomains/ens-contracts/contracts/registry/ReverseRegistrar.sol\";\n\ncontract NamebazaarDevPublicResolver is PublicResolver {\n    constructor(ENS ens) PublicResolver(ens) {}\n}\n\ncontract NamebazaarDevNameResolver is NameResolver {\n    function isAuthorised(bytes32 node) internal view override returns(bool) {\n        return true;\n    }\n}\n\ncontract NamebazaarDevReverseRegistrar is ReverseRegistrar {\n    constructor(ENS ens, INameResolver resolver) ReverseRegistrar(ens, resolver) {}\n}\n\ncontract NameBazaarDevRegistrar is BaseRegistrarImplementation {\n    /**\n     * @dev Constructs a new Registrar, with the provided address as the owner of the root node.\n     *\n     * @param ens The address of the ENS\n     * @param rootNode The hash of the root node.\n     */\n    constructor(ENS ens, bytes32 rootNode) BaseRegistrarImplementation(ens, rootNode) {}\n\n    /**\n     * @dev Convenience function added by NameBazaar for instant registration\n     *      used for development only\n     *\n     * @param _hash The sha3 hash of the label to register.\n     */\n    function register(bytes32 _hash) external payable {\n        controllers[msg.sender] = true;\n        emit ControllerAdded(msg.sender);\n        _register(uint256(_hash), msg.sender, 365 days, true);\n    }\n}\n",
  "sourcePath": "/Users/kwladyka/district0x/name-bazaar/resources/public/contracts/src/NameBazaarDevContracts.sol",
  "compiler": {
    "name": "solc",
    "version": "0.8.4+commit.c7e474f2.Emscripten.clang"
  },
  "schemaVersion": "3.4.7",
  "updatedAt": "2022-05-19T11:58:22.377Z",
  "networkType": "ethereum",
  "devdoc": {
    "kind": "dev",
    "methods": {
      "approve(address,uint256)": {
        "details": "See {IERC721-approve}."
      },
      "balanceOf(address)": {
        "details": "See {IERC721-balanceOf}."
      },
      "constructor": {
        "details": "Constructs a new Registrar, with the provided address as the owner of the root node.",
        "params": {
          "ens": "The address of the ENS",
          "rootNode": "The hash of the root node."
        }
      },
      "getApproved(uint256)": {
        "details": "See {IERC721-getApproved}."
      },
      "isApprovedForAll(address,address)": {
        "details": "See {IERC721-isApprovedForAll}."
      },
      "name()": {
        "details": "See {IERC721Metadata-name}."
      },
      "owner()": {
        "details": "Returns the address of the current owner."
      },
      "ownerOf(uint256)": {
        "details": "Gets the owner of the specified token ID. Names become unowned      when their registration expires.",
        "params": {
          "tokenId": "uint256 ID of the token to query the owner of"
        },
        "returns": {
          "_0": "address currently marked as the owner of the given token ID"
        }
      },
      "reclaim(uint256,address)": {
        "details": "Reclaim ownership of a name in ENS, if you own it in the registrar."
      },
      "register(bytes32)": {
        "details": "Convenience function added by NameBazaar for instant registration      used for development only",
        "params": {
          "_hash": "The sha3 hash of the label to register."
        }
      },
      "register(uint256,address,uint256)": {
        "details": "Register a name.",
        "params": {
          "duration": "Duration in seconds for the registration.",
          "id": "The token ID (keccak256 of the label).",
          "owner": "The address that should own the registration."
        }
      },
      "registerOnly(uint256,address,uint256)": {
        "details": "Register a name, without modifying the registry.",
        "params": {
          "duration": "Duration in seconds for the registration.",
          "id": "The token ID (keccak256 of the label).",
          "owner": "The address that should own the registration."
        }
      },
      "renounceOwnership()": {
        "details": "Leaves the contract without owner. It will not be possible to call `onlyOwner` functions anymore. Can only be called by the current owner. NOTE: Renouncing ownership will leave the contract without an owner, thereby removing any functionality that is only available to the owner."
      },
      "safeTransferFrom(address,address,uint256)": {
        "details": "See {IERC721-safeTransferFrom}."
      },
      "safeTransferFrom(address,address,uint256,bytes)": {
        "details": "See {IERC721-safeTransferFrom}."
      },
      "setApprovalForAll(address,bool)": {
        "details": "See {IERC721-setApprovalForAll}."
      },
      "symbol()": {
        "details": "See {IERC721Metadata-symbol}."
      },
      "tokenURI(uint256)": {
        "details": "See {IERC721Metadata-tokenURI}."
      },
      "transferFrom(address,address,uint256)": {
        "details": "See {IERC721-transferFrom}."
      },
      "transferOwnership(address)": {
        "details": "Transfers ownership of the contract to a new account (`newOwner`). Can only be called by the current owner."
      }
    },
    "version": 1
  },
  "userdoc": {
    "kind": "user",
    "methods": {},
    "version": 1
  }
}