{
  "contractName": "OfferingRegistry",
  "abi": [
    {
      "anonymous": false,
      "inputs": [
        {
          "indexed": true,
          "internalType": "address",
          "name": "previousOwner",
          "type": "address"
        },
        {
          "indexed": true,
          "internalType": "address",
          "name": "newOwner",
          "type": "address"
        }
      ],
      "name": "OwnershipTransferred",
      "type": "event"
    },
    {
      "anonymous": false,
      "inputs": [
        {
          "indexed": true,
          "internalType": "address",
          "name": "offering",
          "type": "address"
        },
        {
          "indexed": true,
          "internalType": "bytes32",
          "name": "node",
          "type": "bytes32"
        },
        {
          "indexed": true,
          "internalType": "address",
          "name": "owner",
          "type": "address"
        },
        {
          "indexed": false,
          "internalType": "uint256",
          "name": "version",
          "type": "uint256"
        }
      ],
      "name": "onOfferingAdded",
      "type": "event"
    },
    {
      "anonymous": false,
      "inputs": [
        {
          "indexed": true,
          "internalType": "address",
          "name": "offering",
          "type": "address"
        },
        {
          "indexed": false,
          "internalType": "uint256",
          "name": "version",
          "type": "uint256"
        },
        {
          "indexed": true,
          "internalType": "bytes32",
          "name": "eventType",
          "type": "bytes32"
        },
        {
          "indexed": false,
          "internalType": "uint256[]",
          "name": "extraData",
          "type": "uint256[]"
        }
      ],
      "name": "onOfferingChanged",
      "type": "event"
    },
    {
      "inputs": [],
      "name": "emergencyMultisig",
      "outputs": [
        {
          "internalType": "address payable",
          "name": "",
          "type": "address"
        }
      ],
      "stateMutability": "view",
      "type": "function",
      "constant": true
    },
    {
      "inputs": [],
      "name": "isEmergencyPaused",
      "outputs": [
        {
          "internalType": "bool",
          "name": "",
          "type": "bool"
        }
      ],
      "stateMutability": "view",
      "type": "function",
      "constant": true
    },
    {
      "inputs": [
        {
          "internalType": "address",
          "name": "",
          "type": "address"
        }
      ],
      "name": "isFactory",
      "outputs": [
        {
          "internalType": "bool",
          "name": "",
          "type": "bool"
        }
      ],
      "stateMutability": "view",
      "type": "function",
      "constant": true
    },
    {
      "inputs": [
        {
          "internalType": "address",
          "name": "",
          "type": "address"
        }
      ],
      "name": "isOffering",
      "outputs": [
        {
          "internalType": "bool",
          "name": "",
          "type": "bool"
        }
      ],
      "stateMutability": "view",
      "type": "function",
      "constant": true
    },
    {
      "inputs": [],
      "name": "offeringFee",
      "outputs": [
        {
          "internalType": "uint32",
          "name": "",
          "type": "uint32"
        }
      ],
      "stateMutability": "view",
      "type": "function",
      "constant": true
    },
    {
      "inputs": [],
      "name": "owner",
      "outputs": [
        {
          "internalType": "address",
          "name": "",
          "type": "address"
        }
      ],
      "stateMutability": "view",
      "type": "function",
      "constant": true
    },
    {
      "inputs": [],
      "name": "renounceOwnership",
      "outputs": [],
      "stateMutability": "nonpayable",
      "type": "function"
    },
    {
      "inputs": [
        {
          "internalType": "address[]",
          "name": "factories",
          "type": "address[]"
        },
        {
          "internalType": "bool",
          "name": "_isFactory",
          "type": "bool"
        }
      ],
      "name": "setFactories",
      "outputs": [],
      "stateMutability": "nonpayable",
      "type": "function"
    },
    {
      "inputs": [
        {
          "internalType": "address",
          "name": "newOwner",
          "type": "address"
        }
      ],
      "name": "transferOwnership",
      "outputs": [],
      "stateMutability": "nonpayable",
      "type": "function"
    },
    {
      "inputs": [
        {
          "internalType": "address payable",
          "name": "_emergencyMultisig",
          "type": "address"
        }
      ],
      "name": "construct",
      "outputs": [],
      "stateMutability": "nonpayable",
      "type": "function"
    },
    {
      "inputs": [
        {
          "internalType": "address",
          "name": "offering",
          "type": "address"
        },
        {
          "internalType": "bytes32",
          "name": "node",
          "type": "bytes32"
        },
        {
          "internalType": "address",
          "name": "owner",
          "type": "address"
        },
        {
          "internalType": "uint256",
          "name": "version",
          "type": "uint256"
        }
      ],
      "name": "addOffering",
      "outputs": [],
      "stateMutability": "nonpayable",
      "type": "function"
    },
    {
      "inputs": [
        {
          "internalType": "uint256",
          "name": "version",
          "type": "uint256"
        },
        {
          "internalType": "bytes32",
          "name": "eventType",
          "type": "bytes32"
        },
        {
          "internalType": "uint256[]",
          "name": "extraData",
          "type": "uint256[]"
        }
      ],
      "name": "fireOnOfferingChanged",
      "outputs": [],
      "stateMutability": "nonpayable",
      "type": "function"
    },
    {
      "inputs": [],
      "name": "emergencyPause",
      "outputs": [],
      "stateMutability": "nonpayable",
      "type": "function"
    },
    {
      "inputs": [],
      "name": "emergencyRelease",
      "outputs": [],
      "stateMutability": "nonpayable",
      "type": "function"
    },
    {
      "inputs": [
        {
          "internalType": "uint32",
          "name": "fee",
          "type": "uint32"
        }
      ],
      "name": "changeOfferingFee",
      "outputs": [],
      "stateMutability": "nonpayable",
      "type": "function"
    }
  ],
  "bytecode": "0x60806040526000600360146101000a81548160ff0219169083151502179055506000600560006101000a81548163ffffffff021916908363ffffffff1602179055506000600560046101000a81548160ff02191690831515021790555034801561006857600080fd5b50600061007961011c60201b60201c565b9050806000806101000a81548173ffffffffffffffffffffffffffffffffffffffff021916908373ffffffffffffffffffffffffffffffffffffffff1602179055508073ffffffffffffffffffffffffffffffffffffffff16600073ffffffffffffffffffffffffffffffffffffffff167f8be0079c531659141344cd1fd0a4f28419497f9722a3daafe3b4186f6b6457e060405160405180910390a350610124565b600033905090565b611277806101336000396000f3fe608060405234801561001057600080fd5b50600436106100f55760003560e01c8063715018a611610097578063bf8554ff11610066578063bf8554ff14610226578063dc6af75814610242578063f2fde38b14610260578063f812033f1461027c576100f5565b8063715018a6146101b257806388fdc72f146101bc5780638da5cb5b146101d85780639ecb8c3a146101f6576100f5565b80631b393b9a116100d35780631b393b9a14610162578063290d10c41461016c57806351858e271461018a5780636aa4716e14610194576100f5565b806308a8ce1f146100fa5780630f04ba671461011657806312b9781214610146575b600080fd5b610114600480360381019061010f9190610d53565b610298565b005b610130600480360381019061012b9190610c9e565b6103df565b60405161013d9190610f5f565b60405180910390f35b610160600480360381019061015b9190610cf0565b6103ff565b005b61016a610519565b005b610174610590565b6040516101819190610f5f565b60405180910390f35b6101926105a3565b005b61019c61061a565b6040516101a99190611007565b60405180910390f35b6101ba610630565b005b6101d660048036038101906101d19190610e17565b61076a565b005b6101e06107e8565b6040516101ed9190610f29565b60405180910390f35b610210600480360381019061020b9190610c9e565b610811565b60405161021d9190610f5f565b60405180910390f35b610240600480360381019061023b9190610dab565b610831565b005b61024a6108e0565b6040516102579190610f44565b60405180910390f35b61027a60048036038101906102759190610c9e565b610906565b005b61029660048036038101906102919190610cc7565b610aaf565b005b6102a0610b84565b73ffffffffffffffffffffffffffffffffffffffff166102be6107e8565b73ffffffffffffffffffffffffffffffffffffffff1614610314576040517f08c379a000000000000000000000000000000000000000000000000000000000815260040161030b90610f9a565b60405180910390fd5b60005b838390508110156103d9578160016000868685818110610360577f4e487b7100000000000000000000000000000000000000000000000000000000600052603260045260246000fd5b90506020020160208101906103759190610c9e565b73ffffffffffffffffffffffffffffffffffffffff1673ffffffffffffffffffffffffffffffffffffffff16815260200190815260200160002060006101000a81548160ff02191690831515021790555080806103d1906110c7565b915050610317565b50505050565b60016020528060005260406000206000915054906101000a900460ff1681565b600160003373ffffffffffffffffffffffffffffffffffffffff1673ffffffffffffffffffffffffffffffffffffffff16815260200190815260200160002060009054906101000a900460ff1661045557600080fd5b6001600460008673ffffffffffffffffffffffffffffffffffffffff1673ffffffffffffffffffffffffffffffffffffffff16815260200190815260200160002060006101000a81548160ff0219169083151502179055508173ffffffffffffffffffffffffffffffffffffffff16838573ffffffffffffffffffffffffffffffffffffffff167ff46cf44ceba33a68ac33ba55018921e40974f7cb2853fd0d535be3e8199e59c88460405161050b9190610fba565b60405180910390a450505050565b600360009054906101000a900473ffffffffffffffffffffffffffffffffffffffff1673ffffffffffffffffffffffffffffffffffffffff163373ffffffffffffffffffffffffffffffffffffffff161461057357600080fd5b6000600360146101000a81548160ff021916908315150217905550565b600360149054906101000a900460ff1681565b600360009054906101000a900473ffffffffffffffffffffffffffffffffffffffff1673ffffffffffffffffffffffffffffffffffffffff163373ffffffffffffffffffffffffffffffffffffffff16146105fd57600080fd5b6001600360146101000a81548160ff021916908315150217905550565b600560009054906101000a900463ffffffff1681565b610638610b84565b73ffffffffffffffffffffffffffffffffffffffff166106566107e8565b73ffffffffffffffffffffffffffffffffffffffff16146106ac576040517f08c379a00000000000000000000000000000000000000000000000000000000081526004016106a390610f9a565b60405180910390fd5b600073ffffffffffffffffffffffffffffffffffffffff1660008054906101000a900473ffffffffffffffffffffffffffffffffffffffff1673ffffffffffffffffffffffffffffffffffffffff167f8be0079c531659141344cd1fd0a4f28419497f9722a3daafe3b4186f6b6457e060405160405180910390a360008060006101000a81548173ffffffffffffffffffffffffffffffffffffffff021916908373ffffffffffffffffffffffffffffffffffffffff160217905550565b600360009054906101000a900473ffffffffffffffffffffffffffffffffffffffff1673ffffffffffffffffffffffffffffffffffffffff163373ffffffffffffffffffffffffffffffffffffffff16146107c457600080fd5b80600560006101000a81548163ffffffff021916908363ffffffff16021790555050565b60008060009054906101000a900473ffffffffffffffffffffffffffffffffffffffff16905090565b60046020528060005260406000206000915054906101000a900460ff1681565b600460003373ffffffffffffffffffffffffffffffffffffffff1673ffffffffffffffffffffffffffffffffffffffff16815260200190815260200160002060009054906101000a900460ff1661088757600080fd5b823373ffffffffffffffffffffffffffffffffffffffff167f6d863b4157901005d8b24b53f7342652b1243135255dce803255db630d2e7c6f8685856040516108d293929190610fd5565b60405180910390a350505050565b600360009054906101000a900473ffffffffffffffffffffffffffffffffffffffff1681565b61090e610b84565b73ffffffffffffffffffffffffffffffffffffffff1661092c6107e8565b73ffffffffffffffffffffffffffffffffffffffff1614610982576040517f08c379a000000000000000000000000000000000000000000000000000000000815260040161097990610f9a565b60405180910390fd5b600073ffffffffffffffffffffffffffffffffffffffff168173ffffffffffffffffffffffffffffffffffffffff1614156109f2576040517f08c379a00000000000000000000000000000000000000000000000000000000081526004016109e990610f7a565b60405180910390fd5b8073ffffffffffffffffffffffffffffffffffffffff1660008054906101000a900473ffffffffffffffffffffffffffffffffffffffff1673ffffffffffffffffffffffffffffffffffffffff167f8be0079c531659141344cd1fd0a4f28419497f9722a3daafe3b4186f6b6457e060405160405180910390a3806000806101000a81548173ffffffffffffffffffffffffffffffffffffffff021916908373ffffffffffffffffffffffffffffffffffffffff16021790555050565b600560049054906101000a900460ff1615610ac957600080fd5b600073ffffffffffffffffffffffffffffffffffffffff168173ffffffffffffffffffffffffffffffffffffffff161415610b0357600080fd5b80600360006101000a81548173ffffffffffffffffffffffffffffffffffffffff021916908373ffffffffffffffffffffffffffffffffffffffff1602179055506000600560006101000a81548163ffffffff021916908363ffffffff1602179055506001600560046101000a81548160ff02191690831515021790555050565b600033905090565b600081359050610b9b816111b7565b92915050565b600081359050610bb0816111ce565b92915050565b60008083601f840112610bc857600080fd5b8235905067ffffffffffffffff811115610be157600080fd5b602083019150836020820283011115610bf957600080fd5b9250929050565b60008083601f840112610c1257600080fd5b8235905067ffffffffffffffff811115610c2b57600080fd5b602083019150836020820283011115610c4357600080fd5b9250929050565b600081359050610c59816111e5565b92915050565b600081359050610c6e816111fc565b92915050565b600081359050610c8381611213565b92915050565b600081359050610c988161122a565b92915050565b600060208284031215610cb057600080fd5b6000610cbe84828501610b8c565b91505092915050565b600060208284031215610cd957600080fd5b6000610ce784828501610ba1565b91505092915050565b60008060008060808587031215610d0657600080fd5b6000610d1487828801610b8c565b9450506020610d2587828801610c5f565b9350506040610d3687828801610b8c565b9250506060610d4787828801610c74565b91505092959194509250565b600080600060408486031215610d6857600080fd5b600084013567ffffffffffffffff811115610d8257600080fd5b610d8e86828701610bb6565b93509350506020610da186828701610c4a565b9150509250925092565b60008060008060608587031215610dc157600080fd5b6000610dcf87828801610c74565b9450506020610de087828801610c5f565b935050604085013567ffffffffffffffff811115610dfd57600080fd5b610e0987828801610c00565b925092505092959194509250565b600060208284031215610e2957600080fd5b6000610e3784828501610c89565b91505092915050565b610e4981611056565b82525050565b610e5881611044565b82525050565b6000610e6a8385611022565b93507f07ffffffffffffffffffffffffffffffffffffffffffffffffffffffffffffff831115610e9957600080fd5b602083029250610eaa8385846110b8565b82840190509392505050565b610ebf81611068565b82525050565b6000610ed2602683611033565b9150610edd8261113f565b604082019050919050565b6000610ef5602083611033565b9150610f008261118e565b602082019050919050565b610f148161109e565b82525050565b610f23816110a8565b82525050565b6000602082019050610f3e6000830184610e4f565b92915050565b6000602082019050610f596000830184610e40565b92915050565b6000602082019050610f746000830184610eb6565b92915050565b60006020820190508181036000830152610f9381610ec5565b9050919050565b60006020820190508181036000830152610fb381610ee8565b9050919050565b6000602082019050610fcf6000830184610f0b565b92915050565b6000604082019050610fea6000830186610f0b565b8181036020830152610ffd818486610e5e565b9050949350505050565b600060208201905061101c6000830184610f1a565b92915050565b600082825260208201905092915050565b600082825260208201905092915050565b600061104f8261107e565b9050919050565b60006110618261107e565b9050919050565b60008115159050919050565b6000819050919050565b600073ffffffffffffffffffffffffffffffffffffffff82169050919050565b6000819050919050565b600063ffffffff82169050919050565b82818337600083830152505050565b60006110d28261109e565b91507fffffffffffffffffffffffffffffffffffffffffffffffffffffffffffffffff82141561110557611104611110565b5b600182019050919050565b7f4e487b7100000000000000000000000000000000000000000000000000000000600052601160045260246000fd5b7f4f776e61626c653a206e6577206f776e657220697320746865207a65726f206160008201527f6464726573730000000000000000000000000000000000000000000000000000602082015250565b7f4f776e61626c653a2063616c6c6572206973206e6f7420746865206f776e6572600082015250565b6111c081611044565b81146111cb57600080fd5b50565b6111d781611056565b81146111e257600080fd5b50565b6111ee81611068565b81146111f957600080fd5b50565b61120581611074565b811461121057600080fd5b50565b61121c8161109e565b811461122757600080fd5b50565b611233816110a8565b811461123e57600080fd5b5056fea2646970667358221220bb6a891ab1c2ec4ba24b0267524c238af8c83ec0eed9bc002d5b8f11371f2f6c64736f6c63430008040033",
  "immutableReferences": {},
  "source": "// SPDX-License-Identifier: MIT\npragma solidity ^0.8.4;\n\n\nimport \"./UsedByFactories.sol\";\n\n\n/**\n * @title OfferingRegistry\n * @dev Offering registry is responsible to firing event each time offering is created or changed\n * This is mostly for offchain search DB to keep easily in sync\n */\n\ncontract OfferingRegistry is UsedByFactories {\n    // We need to keep the storage layout here compatible with MutableForwarder!\n    // https://mixbytes.io/blog/collisions-solidity-storage-layouts\n    // TODO replace MutableForwarder with a mature Proxy implementation that\n    // hides storage matching concerns, maybe openzeppelin's ERC1967Proxy\n    address private dummyTarget;\n\n    event onOfferingAdded(address indexed offering, bytes32 indexed node, address indexed owner, uint version);\n    event onOfferingChanged(address indexed offering, uint version, bytes32 indexed eventType, uint[] extraData);\n\n    address payable public emergencyMultisig;       // Emergency Multisig wallet of Namebazaar\n    bool public isEmergencyPaused = false;          // Variable to pause buying activity on all offerings\n    mapping (address => bool) public isOffering;    // Stores whether given address of namebazaar offering\n    uint32 public offeringFee = 0;                  // Variable to determine percentage fee on each offering sale\n\n    bool private wasConstructed = false;\n\n    /**\n     * @dev Modifier to make a function callable only by Namebazaar Multisig wallet\n     */\n    modifier onlyEmergencyMultisig() {\n        require(msg.sender == emergencyMultisig);\n        _;\n    }\n\n    /**\n     * @dev Constructor for this contract.\n     * Native constructor is not used, because this contract is only used via MutableForwarder.\n     */\n    function construct(address payable _emergencyMultisig)\n        external\n    {\n        require(!wasConstructed);\n        require(_emergencyMultisig != address(0x0));\n        emergencyMultisig = _emergencyMultisig;\n        offeringFee = 0;\n        wasConstructed = true;\n    }\n\n    /**\n     * @dev Serves as central point for firing event when new offering is created\n     * Only offering factory can run this function\n     * @param offering address Address of newly created offering\n     * @param node bytes32 ENS node associated with new offering\n     * @param owner address Original owner of the ENS name and creator of the offering\n     * @param version uint Version of offering contract\n     */\n    function addOffering(address offering, bytes32 node, address owner, uint version)\n        external\n        onlyFactory\n    {\n        isOffering[offering] = true;\n        emit onOfferingAdded(offering, node, owner, version);\n    }\n\n\n    /**\n     * @dev Serves as central point for firing event when offering state has been changed in any way\n     * Only offering contract can run this function\n     * @param version uint Version of offering contract\n     * @param eventType base32 Short string identifying offering change\n     * @param extraData uint[] Arbitrary data associated with event\n     */\n    function fireOnOfferingChanged(uint version, bytes32 eventType, uint[] calldata extraData) external {\n        require(isOffering[msg.sender]);\n        emit onOfferingChanged(msg.sender, version, eventType, extraData);\n    }\n\n    /**\n     * @dev Function to activate emergency pause. This should stop buying activity on all offerings\n     * Only Emergency Multisig wallet should be able to call this\n     */\n    function emergencyPause() external onlyEmergencyMultisig {\n        isEmergencyPaused = true;\n    }\n\n    /**\n     * @dev Function to deactivate emergency pause. This should allow buying activity on all offerings again\n     * Only Emergency Multisig wallet should be able to call this\n     */\n    function emergencyRelease() external onlyEmergencyMultisig {\n        isEmergencyPaused = false;\n    }\n\n    /**\n     * @dev Function to change fee paid to Emergency Multisig on each offering sale\n     * 10 = 0.001% of offering price, 100 = 0.01% etc.\n     * Only Emergency Multisig wallet should be able to call this\n     */\n    function changeOfferingFee(uint32 fee) external onlyEmergencyMultisig {\n        offeringFee = fee;\n    }\n}",
  "sourcePath": "/Users/kwladyka/district0x/name-bazaar/resources/public/contracts/src/OfferingRegistry.sol",
  "compiler": {
    "name": "solc",
    "version": "0.8.4+commit.c7e474f2.Emscripten.clang"
  },
  "schemaVersion": "3.4.7",
  "updatedAt": "2022-05-19T11:58:22.383Z",
  "networkType": "ethereum",
  "devdoc": {
    "details": "Offering registry is responsible to firing event each time offering is created or changed This is mostly for offchain search DB to keep easily in sync",
    "kind": "dev",
    "methods": {
      "addOffering(address,bytes32,address,uint256)": {
        "details": "Serves as central point for firing event when new offering is created Only offering factory can run this function",
        "params": {
          "node": "bytes32 ENS node associated with new offering",
          "offering": "address Address of newly created offering",
          "owner": "address Original owner of the ENS name and creator of the offering",
          "version": "uint Version of offering contract"
        }
      },
      "changeOfferingFee(uint32)": {
        "details": "Function to change fee paid to Emergency Multisig on each offering sale 10 = 0.001% of offering price, 100 = 0.01% etc. Only Emergency Multisig wallet should be able to call this"
      },
      "construct(address)": {
        "details": "Constructor for this contract. Native constructor is not used, because this contract is only used via MutableForwarder."
      },
      "emergencyPause()": {
        "details": "Function to activate emergency pause. This should stop buying activity on all offerings Only Emergency Multisig wallet should be able to call this"
      },
      "emergencyRelease()": {
        "details": "Function to deactivate emergency pause. This should allow buying activity on all offerings again Only Emergency Multisig wallet should be able to call this"
      },
      "fireOnOfferingChanged(uint256,bytes32,uint256[])": {
        "details": "Serves as central point for firing event when offering state has been changed in any way Only offering contract can run this function",
        "params": {
          "eventType": "base32 Short string identifying offering change",
          "extraData": "uint[] Arbitrary data associated with event",
          "version": "uint Version of offering contract"
        }
      },
      "owner()": {
        "details": "Returns the address of the current owner."
      },
      "renounceOwnership()": {
        "details": "Leaves the contract without owner. It will not be possible to call `onlyOwner` functions anymore. Can only be called by the current owner. NOTE: Renouncing ownership will leave the contract without an owner, thereby removing any functionality that is only available to the owner."
      },
      "transferOwnership(address)": {
        "details": "Transfers ownership of the contract to a new account (`newOwner`). Can only be called by the current owner."
      }
    },
    "title": "OfferingRegistry",
    "version": 1
  },
  "userdoc": {
    "kind": "user",
    "methods": {},
    "version": 1
  }
}