{
  "contractName": "Offering",
  "abi": [
    {
      "inputs": [],
      "name": "emergencyMultisig",
      "outputs": [
        {
          "internalType": "address",
          "name": "",
          "type": "address"
        }
      ],
      "stateMutability": "view",
      "type": "function"
    },
    {
      "inputs": [],
      "name": "ens",
      "outputs": [
        {
          "internalType": "contract ENSRegistry",
          "name": "",
          "type": "address"
        }
      ],
      "stateMutability": "view",
      "type": "function"
    },
    {
      "inputs": [],
      "name": "offering",
      "outputs": [
        {
          "internalType": "bytes32",
          "name": "node",
          "type": "bytes32"
        },
        {
          "internalType": "string",
          "name": "name",
          "type": "string"
        },
        {
          "internalType": "bytes32",
          "name": "labelHash",
          "type": "bytes32"
        },
        {
          "internalType": "address payable",
          "name": "originalOwner",
          "type": "address"
        },
        {
          "internalType": "address",
          "name": "newOwner",
          "type": "address"
        },
        {
          "internalType": "uint256",
          "name": "price",
          "type": "uint256"
        },
        {
          "internalType": "uint128",
          "name": "version",
          "type": "uint128"
        },
        {
          "internalType": "uint64",
          "name": "createdOn",
          "type": "uint64"
        },
        {
          "internalType": "uint64",
          "name": "finalizedOn",
          "type": "uint64"
        }
      ],
      "stateMutability": "view",
      "type": "function"
    },
    {
      "inputs": [],
      "name": "offeringRegistry",
      "outputs": [
        {
          "internalType": "contract OfferingRegistry",
          "name": "",
          "type": "address"
        }
      ],
      "stateMutability": "view",
      "type": "function"
    },
    {
      "inputs": [],
      "name": "rootNode",
      "outputs": [
        {
          "internalType": "bytes32",
          "name": "",
          "type": "bytes32"
        }
      ],
      "stateMutability": "view",
      "type": "function"
    },
    {
      "inputs": [
        {
          "internalType": "bytes32",
          "name": "_node",
          "type": "bytes32"
        },
        {
          "internalType": "string",
          "name": "_name",
          "type": "string"
        },
        {
          "internalType": "bytes32",
          "name": "_labelHash",
          "type": "bytes32"
        },
        {
          "internalType": "address payable",
          "name": "_originalOwner",
          "type": "address"
        },
        {
          "internalType": "uint128",
          "name": "_version",
          "type": "uint128"
        },
        {
          "internalType": "uint256",
          "name": "_price",
          "type": "uint256"
        }
      ],
      "name": "construct",
      "outputs": [],
      "stateMutability": "nonpayable",
      "type": "function"
    },
    {
      "inputs": [],
      "name": "unregister",
      "outputs": [],
      "stateMutability": "nonpayable",
      "type": "function"
    },
    {
      "inputs": [],
      "name": "reclaimOwnership",
      "outputs": [],
      "stateMutability": "nonpayable",
      "type": "function"
    },
    {
      "inputs": [],
      "name": "isContractNodeOwner",
      "outputs": [
        {
          "internalType": "bool",
          "name": "",
          "type": "bool"
        }
      ],
      "stateMutability": "view",
      "type": "function"
    },
    {
      "inputs": [],
      "name": "isNodeTLDOfRegistrar",
      "outputs": [
        {
          "internalType": "bool",
          "name": "",
          "type": "bool"
        }
      ],
      "stateMutability": "view",
      "type": "function"
    },
    {
      "inputs": [],
      "name": "isSenderOriginalOwner",
      "outputs": [
        {
          "internalType": "bool",
          "name": "",
          "type": "bool"
        }
      ],
      "stateMutability": "view",
      "type": "function"
    },
    {
      "inputs": [],
      "name": "isSenderEmergencyMultisig",
      "outputs": [
        {
          "internalType": "bool",
          "name": "",
          "type": "bool"
        }
      ],
      "stateMutability": "view",
      "type": "function"
    },
    {
      "inputs": [],
      "name": "wasEmergencyCancelled",
      "outputs": [
        {
          "internalType": "bool",
          "name": "",
          "type": "bool"
        }
      ],
      "stateMutability": "view",
      "type": "function"
    }
  ],
  "bytecode": "0x608060405234801561001057600080fd5b50611965806100206000396000f3fe608060405234801561001057600080fd5b50600436106100cf5760003560e01c8063b266cb011161008c578063d1dbcd7011610066578063d1dbcd70146101d4578063dc6af758146101f2578063e79a198f14610210578063faff50a81461021a576100cf565b8063b266cb0114610186578063c1c8277f146101ac578063cc0f73b1146101b6576100cf565b806329ae4c70146100d45780633f15457f146100f25780634419cd811461011057806363862fd51461012e5780636741629c1461014c578063a1e4f73d1461016a575b600080fd5b6100dc610238565b6040516100e9919061140d565b60405180910390f35b6100fa610282565b6040516101079190611500565b60405180910390f35b61011861029a565b604051610125919061140d565b60405180910390f35b61013661050e565b604051610143919061140d565b60405180910390f35b610154610568565b604051610161919061140d565b60405180910390f35b610184600480360381019061017f9190611174565b6105c5565b005b61018e61077b565b6040516101a39998979695949392919061146c565b60405180910390f35b6101b46108c3565b005b6101be6109fb565b6040516101cb919061151b565b60405180910390f35b6101dc610a13565b6040516101e9919061140d565b60405180910390f35b6101fa610a71565b60405161020791906113bb565b60405180910390f35b610218610a89565b005b610222610b7d565b60405161022f9190611428565b60405180910390f35b600073deeddeeddeeddeeddeeddeeddeeddeeddeeddeed73ffffffffffffffffffffffffffffffffffffffff163373ffffffffffffffffffffffffffffffffffffffff1614905090565b73314159265dd8dbb310642f98f50c066173c1259b81565b60006102a4610a13565b15610439576000806002015460001c9050600073314159265dd8dbb310642f98f50c066173c1259b73ffffffffffffffffffffffffffffffffffffffff166302571be37f93cdeb708b7545dc668eb9280176169d1c33cfd8ed6f04690a0bcc88a93fc4ae60001b6040518263ffffffff1660e01b81526004016103279190611428565b60206040518083038186803b15801561033f57600080fd5b505afa158015610353573d6000803e3d6000fd5b505050506040513d601f19601f820116820180604052508101906103779190611122565b73ffffffffffffffffffffffffffffffffffffffff16636352211e836040518263ffffffff1660e01b81526004016103af9190611574565b60206040518083038186803b1580156103c757600080fd5b505afa1580156103db573d6000803e3d6000fd5b505050506040513d601f19601f820116820180604052508101906103ff9190611122565b90503073ffffffffffffffffffffffffffffffffffffffff168173ffffffffffffffffffffffffffffffffffffffff16149250505061050b565b3073ffffffffffffffffffffffffffffffffffffffff1673314159265dd8dbb310642f98f50c066173c1259b73ffffffffffffffffffffffffffffffffffffffff166302571be360008001546040518263ffffffff1660e01b81526004016104a19190611428565b60206040518083038186803b1580156104b957600080fd5b505afa1580156104cd573d6000803e3d6000fd5b505050506040513d601f19601f820116820180604052508101906104f19190611122565b73ffffffffffffffffffffffffffffffffffffffff161490505b90565b60008060030160009054906101000a900473ffffffffffffffffffffffffffffffffffffffff1673ffffffffffffffffffffffffffffffffffffffff163373ffffffffffffffffffffffffffffffffffffffff1614905090565b600061dead73ffffffffffffffffffffffffffffffffffffffff16600060040160009054906101000a900473ffffffffffffffffffffffffffffffffffffffff1673ffffffffffffffffffffffffffffffffffffffff1614905090565b73feedfeedfeedfeedfeedfeedfeedfeedfeedfeed73ffffffffffffffffffffffffffffffffffffffff1663290d10c46040518163ffffffff1660e01b815260040160206040518083038186803b15801561061f57600080fd5b505afa158015610633573d6000803e3d6000fd5b505050506040513d601f19601f82011682018060405250810190610657919061114b565b1561066157600080fd5b60008060060160109054906101000a900467ffffffffffffffff1667ffffffffffffffff161461069057600080fd5b85600080018190555084600060010190805190602001906106b2929190610f99565b508360006002018190555082600060030160006101000a81548173ffffffffffffffffffffffffffffffffffffffff021916908373ffffffffffffffffffffffffffffffffffffffff16021790555081600060060160006101000a8154816fffffffffffffffffffffffffffffffff02191690836fffffffffffffffffffffffffffffffff16021790555042600060060160106101000a81548167ffffffffffffffff021916908367ffffffffffffffff16021790555080600060050181905550505050505050565b6000806000015490806001018054610792906117c9565b80601f01602080910402602001604051908101604052809291908181526020018280546107be906117c9565b801561080b5780601f106107e05761010080835404028352916020019161080b565b820191906000526020600020905b8154815290600101906020018083116107ee57829003601f168201915b5050505050908060020154908060030160009054906101000a900473ffffffffffffffffffffffffffffffffffffffff16908060040160009054906101000a900473ffffffffffffffffffffffffffffffffffffffff16908060050154908060060160009054906101000a90046fffffffffffffffffffffffffffffffff16908060060160109054906101000a900467ffffffffffffffff16908060060160189054906101000a900467ffffffffffffffff16905089565b600073ffffffffffffffffffffffffffffffffffffffff16600060040160009054906101000a900473ffffffffffffffffffffffffffffffffffffffff1673ffffffffffffffffffffffffffffffffffffffff161461092157600080fd5b600061092b610238565b9050808061093d575061093c61050e565b5b61094657600080fd5b61094e61029a565b1561098257610981600060030160009054906101000a900473ffffffffffffffffffffffffffffffffffffffff16610ba4565b5b80156109cf5761dead600060040160006101000a81548173ffffffffffffffffffffffffffffffffffffffff021916908373ffffffffffffffffffffffffffffffffffffffff1602179055505b6109f87f7265636c61696d4f776e65727368697000000000000000000000000000000000610e75565b50565b73feedfeedfeedfeedfeedfeedfeedfeedfeedfeed81565b60007f93cdeb708b7545dc668eb9280176169d1c33cfd8ed6f04690a0bcc88a93fc4ae60001b600060020154604051602001610a5092919061138f565b60405160208183030381529060405280519060200120600080015414905090565b73deeddeeddeeddeeddeeddeeddeeddeeddeeddeed81565b610a9161050e565b610a9a57600080fd5b600073ffffffffffffffffffffffffffffffffffffffff16600060040160009054906101000a900473ffffffffffffffffffffffffffffffffffffffff1673ffffffffffffffffffffffffffffffffffffffff1614610af857600080fd5b610b0061029a565b15610b0a57600080fd5b63deaddead600060040160006101000a81548173ffffffffffffffffffffffffffffffffffffffff021916908373ffffffffffffffffffffffffffffffffffffffff160217905550610b7b7f756e726567697374657200000000000000000000000000000000000000000000610e75565b565b7f93cdeb708b7545dc668eb9280176169d1c33cfd8ed6f04690a0bcc88a93fc4ae60001b81565b610bac610a13565b15610dec576000806002015460001c9050600073314159265dd8dbb310642f98f50c066173c1259b73ffffffffffffffffffffffffffffffffffffffff166302571be37f93cdeb708b7545dc668eb9280176169d1c33cfd8ed6f04690a0bcc88a93fc4ae60001b6040518263ffffffff1660e01b8152600401610c2f9190611428565b60206040518083038186803b158015610c4757600080fd5b505afa158015610c5b573d6000803e3d6000fd5b505050506040513d601f19601f82011682018060405250810190610c7f9190611122565b90508073ffffffffffffffffffffffffffffffffffffffff166328ed4f6c83856040518363ffffffff1660e01b8152600401610cbc92919061158f565b600060405180830381600087803b158015610cd657600080fd5b505af1158015610cea573d6000803e3d6000fd5b505050508073ffffffffffffffffffffffffffffffffffffffff166323b872dd8273ffffffffffffffffffffffffffffffffffffffff16636352211e856040518263ffffffff1660e01b8152600401610d439190611574565b60206040518083038186803b158015610d5b57600080fd5b505afa158015610d6f573d6000803e3d6000fd5b505050506040513d601f19601f82011682018060405250810190610d939190611122565b85856040518463ffffffff1660e01b8152600401610db3939291906113d6565b600060405180830381600087803b158015610dcd57600080fd5b505af1158015610de1573d6000803e3d6000fd5b505050505050610e72565b73314159265dd8dbb310642f98f50c066173c1259b73ffffffffffffffffffffffffffffffffffffffff16635b0fc9c36000800154836040518363ffffffff1660e01b8152600401610e3f929190611443565b600060405180830381600087803b158015610e5957600080fd5b505af1158015610e6d573d6000803e3d6000fd5b505050505b50565b610eee81600067ffffffffffffffff811115610eba577f4e487b7100000000000000000000000000000000000000000000000000000000600052604160045260246000fd5b604051908082528060200260200182016040528015610ee85781602001602082028036833780820191505090505b50610ef1565b50565b73feedfeedfeedfeedfeedfeedfeedfeedfeedfeed73ffffffffffffffffffffffffffffffffffffffff1663bf8554ff600060060160009054906101000a90046fffffffffffffffffffffffffffffffff1684846040518463ffffffff1660e01b8152600401610f6393929190611536565b600060405180830381600087803b158015610f7d57600080fd5b505af1158015610f91573d6000803e3d6000fd5b505050505050565b828054610fa5906117c9565b90600052602060002090601f016020900481019282610fc7576000855561100e565b82601f10610fe057805160ff191683800117855561100e565b8280016001018555821561100e579182015b8281111561100d578251825591602001919060010190610ff2565b5b50905061101b919061101f565b5090565b5b80821115611038576000816000905550600101611020565b5090565b600061104f61104a846115dd565b6115b8565b90508281526020810184848401111561106757600080fd5b611072848285611787565b509392505050565b600081519050611089816118a5565b92915050565b60008135905061109e816118bc565b92915050565b6000815190506110b3816118d3565b92915050565b6000813590506110c8816118ea565b92915050565b600082601f8301126110df57600080fd5b81356110ef84826020860161103c565b91505092915050565b60008135905061110781611901565b92915050565b60008135905061111c81611918565b92915050565b60006020828403121561113457600080fd5b60006111428482850161107a565b91505092915050565b60006020828403121561115d57600080fd5b600061116b848285016110a4565b91505092915050565b60008060008060008060c0878903121561118d57600080fd5b600061119b89828a016110b9565b965050602087013567ffffffffffffffff8111156111b857600080fd5b6111c489828a016110ce565b95505060406111d589828a016110b9565b94505060606111e689828a0161108f565b93505060806111f789828a016110f8565b92505060a061120889828a0161110d565b9150509295509295509295565b60006112218383611362565b60208301905092915050565b611236816116f7565b82525050565b61124581611675565b82525050565b61125481611663565b82525050565b60006112658261161e565b61126f8185611641565b935061127a8361160e565b8060005b838110156112ab5781516112928882611215565b975061129d83611634565b92505060018101905061127e565b5085935050505092915050565b6112c181611687565b82525050565b6112d081611693565b82525050565b6112e76112e282611693565b61182c565b82525050565b6112f681611709565b82525050565b6113058161172d565b82525050565b600061131682611629565b6113208185611652565b9350611330818560208601611796565b61133981611894565b840191505092915050565b61134d8161169d565b82525050565b61135c81611751565b82525050565b61136b816116d9565b82525050565b61137a816116d9565b82525050565b611389816116e3565b82525050565b600061139b82856112d6565b6020820191506113ab82846112d6565b6020820191508190509392505050565b60006020820190506113d0600083018461124b565b92915050565b60006060820190506113eb600083018661124b565b6113f8602083018561122d565b6114056040830184611371565b949350505050565b600060208201905061142260008301846112b8565b92915050565b600060208201905061143d60008301846112c7565b92915050565b600060408201905061145860008301856112c7565b611465602083018461122d565b9392505050565b600061012082019050611482600083018c6112c7565b8181036020830152611494818b61130b565b90506114a3604083018a6112c7565b6114b0606083018961123c565b6114bd608083018861124b565b6114ca60a0830187611371565b6114d760c0830186611344565b6114e460e0830185611380565b6114f2610100830184611380565b9a9950505050505050505050565b600060208201905061151560008301846112ed565b92915050565b600060208201905061153060008301846112fc565b92915050565b600060608201905061154b6000830186611353565b61155860208301856112c7565b818103604083015261156a818461125a565b9050949350505050565b60006020820190506115896000830184611371565b92915050565b60006040820190506115a46000830185611371565b6115b1602083018461122d565b9392505050565b60006115c26115d3565b90506115ce82826117fb565b919050565b6000604051905090565b600067ffffffffffffffff8211156115f8576115f7611865565b5b61160182611894565b9050602081019050919050565b6000819050602082019050919050565b600081519050919050565b600081519050919050565b6000602082019050919050565b600082825260208201905092915050565b600082825260208201905092915050565b600061166e826116b9565b9050919050565b6000611680826116b9565b9050919050565b60008115159050919050565b6000819050919050565b60006fffffffffffffffffffffffffffffffff82169050919050565b600073ffffffffffffffffffffffffffffffffffffffff82169050919050565b6000819050919050565b600067ffffffffffffffff82169050919050565b600061170282611763565b9050919050565b60006117148261171b565b9050919050565b6000611726826116b9565b9050919050565b60006117388261173f565b9050919050565b600061174a826116b9565b9050919050565b600061175c8261169d565b9050919050565b600061176e82611775565b9050919050565b6000611780826116b9565b9050919050565b82818337600083830152505050565b60005b838110156117b4578082015181840152602081019050611799565b838111156117c3576000848401525b50505050565b600060028204905060018216806117e157607f821691505b602082108114156117f5576117f4611836565b5b50919050565b61180482611894565b810181811067ffffffffffffffff8211171561182357611822611865565b5b80604052505050565b6000819050919050565b7f4e487b7100000000000000000000000000000000000000000000000000000000600052602260045260246000fd5b7f4e487b7100000000000000000000000000000000000000000000000000000000600052604160045260246000fd5b6000601f19601f8301169050919050565b6118ae81611663565b81146118b957600080fd5b50565b6118c581611675565b81146118d057600080fd5b50565b6118dc81611687565b81146118e757600080fd5b50565b6118f381611693565b81146118fe57600080fd5b50565b61190a8161169d565b811461191557600080fd5b50565b611921816116d9565b811461192c57600080fd5b5056fea264697066735822122010f576168b4a7790584fc3e5e7b2442243105bb6d6a98f219d07c2bd28c7667064736f6c63430008040033",
  "immutableReferences": {},
  "source": "// SPDX-License-Identifier: MIT\npragma solidity ^0.8.4;\n\n/**\n * @title Offering\n * @dev Contains base logic for an offering and is meant to be extended.\n */\n\nimport \"@ensdomains/ens-contracts/contracts/registry/ENSRegistry.sol\";\nimport \"@ensdomains/ens-contracts/contracts/ethregistrar/BaseRegistrar.sol\";\nimport \"./OfferingRegistry.sol\";\n\ncontract Offering {\n\n    struct Offering {\n        // Order here is important for gas optimisations. Must be fitting into uint265 slots.\n        bytes32 node;                       // ENS node\n        // WARNING: The contract DOES NOT perform ENS name normalisation, which is up to responsibility of each offchain UI!\n        string name;                        // full ENS name\n        bytes32 labelHash;                  // hash of ENS label\n        address payable originalOwner;      // owner of ENS name, creator of offering\n        address newOwner;                   // Address of a new owner of ENS name, buyer\n        uint price;                         // Price of the offering, or the highest bid in auction\n        uint128 version;                    // version of offering contract\n        uint64 createdOn;                   // Time when offering was created\n        uint64 finalizedOn;                 // Time when ENS name was transferred to a new owner\n    }\n\n    Offering public offering;\n\n    // Hardcoded ENS address. For development will be replaced after compilation. This way we save gas to users deploying offering contracts.\n    ENSRegistry public constant ens = ENSRegistry(0x314159265dD8dbb310642f98f50C066173C1259b);\n\n    // Hardcoded namehash of \"eth\"\n    bytes32 public constant rootNode = 0x93cdeb708b7545dc668eb9280176169d1c33cfd8ed6f04690a0bcc88a93fc4ae;\n\n    // Placeholder to be replaced after compilation. This way we save gas to users deploying offering contracts.\n    OfferingRegistry public constant offeringRegistry = OfferingRegistry(0xfEEDFEEDfeEDFEedFEEdFEEDFeEdfEEdFeEdFEEd);\n\n    // Placeholder to be replaced after compilation. This way we save gas to users deploying offering contracts.\n    address public constant emergencyMultisig = 0xDeEDdeeDDEeDDEEdDEedDEEdDEeDdEeDDEEDDeed;\n\n    /**\n     * @dev Modifier to make a function callable only for offering creator\n     */\n    modifier onlyOriginalOwner() {\n        require(isSenderOriginalOwner());\n        _;\n    }\n\n    /**\n     * @dev Modifier to make a function callable only for Namebazaar's Emergency Multisig wallet\n     */\n    modifier onlyEmergencyMultisig() {\n        require(isSenderEmergencyMultisig());\n        _;\n    }\n\n    /**\n     * @dev Modifier to make a function callable only is called by Namebazaar's Emergency Multisig wallet\n     */\n    modifier onlyWithoutNewOwner() {\n        require(offering.newOwner == address(0x0));\n        _;\n    }\n\n    /**\n     * @dev Modifier to make a function callable only when offering contract has name ownership\n     */\n    modifier onlyWhenContractIsNodeOwner() {\n        require(isContractNodeOwner());\n        _;\n    }\n\n\n    /**\n     * @dev Modifier to make a function callable only when there's not emergency pause\n     */\n    modifier onlyWhenNotEmergencyPaused() {\n        require(!offeringRegistry.isEmergencyPaused());\n        _;\n    }\n\n    /**\n     * @dev Modifier to make a function callable only when offering contract doesn't have name ownership\n     */\n    modifier onlyWhenContractIsNotNodeOwner() {\n        require(!isContractNodeOwner());\n        _;\n    }\n\n    /**\n     * @dev Constructor of offering\n     * Should be callable just once, by factory\n     */\n    function construct(\n        bytes32 _node,\n        string memory _name,\n        bytes32 _labelHash,\n        address payable _originalOwner,\n        uint128 _version,\n        uint _price\n    )\n        public\n        onlyWhenNotEmergencyPaused\n    {\n        require(offering.createdOn == 0);               // Prevent constructing multiple times\n        offering.node = _node;\n        offering.name = _name;\n        offering.labelHash = _labelHash;\n        offering.originalOwner = _originalOwner;\n        offering.version = _version;\n        offering.createdOn = uint64(block.timestamp);\n        offering.price = _price;\n    }\n\n    /**\n     * @dev Unregisters offering for not displaying it in UI\n     * Cannot be run if contract has ownership or it was already transferred to new owner\n     */\n    function unregister()\n        external\n        onlyOriginalOwner\n        onlyWithoutNewOwner\n        onlyWhenContractIsNotNodeOwner\n    {\n        // New owner is not really this address, but it's the way to recognize if offering\n        // was unregistered without having separate var for it, which is costly\n        offering.newOwner = address(0xdeaddead);\n        fireOnChanged(\"unregister\");\n    }\n\n    /**\n    * @dev Transfers ENS name ownership back to original owner\n    * Can be run only by original owner or emergency multisig\n    * Sets newOwner to special address 0xdead\n    */\n    function reclaimOwnership()\n        virtual\n        public\n        onlyWithoutNewOwner\n    {\n        bool isEmergency = isSenderEmergencyMultisig();\n        require(isEmergency || isSenderOriginalOwner());\n\n        if (isContractNodeOwner()) {\n            doTransferOwnership(offering.originalOwner);\n        }\n        if (isEmergency) {\n            // New owner is not really this address, but it's the way to recognize if\n            // was disabled in emergency without having separate var for it, which is costly\n            offering.newOwner = address(0xdead);\n        }\n        fireOnChanged(\"reclaimOwnership\");\n    }\n\n    /**\n    * @dev Transfers name ownership in context of offering contract\n    * Cannot be run if ownership was already transferred to new owner\n    * @param _newOwner address New owner of ENS name\n    */\n    function transferOwnership(address payable _newOwner)\n        internal\n        onlyWhenNotEmergencyPaused\n        onlyWithoutNewOwner\n    {\n        offering.newOwner = _newOwner;\n        offering.finalizedOn = uint64(block.timestamp);\n        doTransferOwnership(_newOwner);\n        fireOnChanged(\"finalize\");\n    }\n\n    /**\n    * @dev Function to actually do ENS transfer\n    * Top level names should be transferred via registrar, so that registration is transferred too\n    * @param _newOwner address New owner of ENS name\n    */\n    function doTransferOwnership(address payable _newOwner)\n        private\n    {\n        if (isNodeTLDOfRegistrar()) {\n            uint256 tokenId = uint256(offering.labelHash);\n            BaseRegistrar registrar = BaseRegistrar(ens.owner(rootNode));\n            registrar.reclaim(tokenId, _newOwner);\n            registrar.transferFrom(registrar.ownerOf(tokenId), _newOwner, tokenId);\n        } else {\n            ens.setOwner(offering.node, _newOwner);\n        }\n    }\n\n    function doSetSettings(uint _price)\n        internal\n    {\n        offering.price = _price;\n    }\n\n    function fireOnChanged(bytes32 eventType, uint[] memory extraData)\n        internal\n    {\n        offeringRegistry.fireOnOfferingChanged(offering.version, eventType, extraData);\n    }\n\n    function fireOnChanged(bytes32 eventType) internal {\n        fireOnChanged(eventType, new uint[](0));\n    }\n\n    /**\n    * @dev Returns whether offering contract is owner of ENS name\n    * For top level names, offering contract must be also owner of registration\n    * @return bool true if contract is ENS node owner\n    */\n    function isContractNodeOwner() public view returns(bool) {\n        if (isNodeTLDOfRegistrar()) {\n            uint256 tokenId = uint256(offering.labelHash);\n            address registrationOwner = BaseRegistrar(ens.owner(rootNode)).ownerOf(tokenId);\n            return registrationOwner == address(this);\n        } else {\n            return ens.owner(offering.node) == address(this);\n        }\n    }\n\n    /**\n    * @dev Returns whether offering node is top level name of registrar or subname\n    * @return bool true if offering node is top level name of registrar\n    */\n    function isNodeTLDOfRegistrar() public view returns (bool) {\n        return offering.node == keccak256(abi.encodePacked(rootNode, offering.labelHash));\n    }\n\n    /**\n    * @dev Returns whether msg.sender is original owner of ENS name, offering creator\n    * @return bool true if msg.sender is original owner\n    */\n    function isSenderOriginalOwner() public view returns(bool) {\n        return msg.sender == offering.originalOwner;\n    }\n\n    /**\n    * @dev Returns whether msg.sender is emergency multisig address\n    * @return bool true if msg.sender is emergency multisig\n    */\n    function isSenderEmergencyMultisig() public view returns(bool) {\n        return msg.sender == emergencyMultisig;\n    }\n\n    /**\n    * @dev Returns whether offering was cancelled in emergency, by emergency multisig\n    * @return bool true if offering was cancelled in emergency\n    */\n    function wasEmergencyCancelled() public view returns(bool) {\n        return offering.newOwner == address(0xdead);\n    }\n}\n",
  "sourcePath": "/Users/kwladyka/district0x/name-bazaar/resources/public/contracts/src/Offering.sol",
  "compiler": {
    "name": "solc",
    "version": "0.8.4+commit.c7e474f2.Emscripten.clang"
  },
  "schemaVersion": "3.4.7",
  "updatedAt": "2022-05-19T11:58:18.629Z",
  "devdoc": {
    "kind": "dev",
    "methods": {
      "construct(bytes32,string,bytes32,address,uint128,uint256)": {
        "details": "Constructor of offering Should be callable just once, by factory"
      },
      "isContractNodeOwner()": {
        "details": "Returns whether offering contract is owner of ENS name For top level names, offering contract must be also owner of registration",
        "returns": {
          "_0": "bool true if contract is ENS node owner"
        }
      },
      "isNodeTLDOfRegistrar()": {
        "details": "Returns whether offering node is top level name of registrar or subname",
        "returns": {
          "_0": "bool true if offering node is top level name of registrar"
        }
      },
      "isSenderEmergencyMultisig()": {
        "details": "Returns whether msg.sender is emergency multisig address",
        "returns": {
          "_0": "bool true if msg.sender is emergency multisig"
        }
      },
      "isSenderOriginalOwner()": {
        "details": "Returns whether msg.sender is original owner of ENS name, offering creator",
        "returns": {
          "_0": "bool true if msg.sender is original owner"
        }
      },
      "reclaimOwnership()": {
        "details": "Transfers ENS name ownership back to original owner Can be run only by original owner or emergency multisig Sets newOwner to special address 0xdead"
      },
      "unregister()": {
        "details": "Unregisters offering for not displaying it in UI Cannot be run if contract has ownership or it was already transferred to new owner"
      },
      "wasEmergencyCancelled()": {
        "details": "Returns whether offering was cancelled in emergency, by emergency multisig",
        "returns": {
          "_0": "bool true if offering was cancelled in emergency"
        }
      }
    },
    "version": 1
  },
  "userdoc": {
    "kind": "user",
    "methods": {},
    "version": 1
  }
}