{
  "contractName": "UsedByFactories",
  "abi": [
    {
      "anonymous": false,
      "inputs": [
        {
          "indexed": true,
          "internalType": "address",
          "name": "previousOwner",
          "type": "address"
        },
        {
          "indexed": true,
          "internalType": "address",
          "name": "newOwner",
          "type": "address"
        }
      ],
      "name": "OwnershipTransferred",
      "type": "event"
    },
    {
      "inputs": [
        {
          "internalType": "address",
          "name": "",
          "type": "address"
        }
      ],
      "name": "isFactory",
      "outputs": [
        {
          "internalType": "bool",
          "name": "",
          "type": "bool"
        }
      ],
      "stateMutability": "view",
      "type": "function"
    },
    {
      "inputs": [],
      "name": "owner",
      "outputs": [
        {
          "internalType": "address",
          "name": "",
          "type": "address"
        }
      ],
      "stateMutability": "view",
      "type": "function"
    },
    {
      "inputs": [],
      "name": "renounceOwnership",
      "outputs": [],
      "stateMutability": "nonpayable",
      "type": "function"
    },
    {
      "inputs": [
        {
          "internalType": "address",
          "name": "newOwner",
          "type": "address"
        }
      ],
      "name": "transferOwnership",
      "outputs": [],
      "stateMutability": "nonpayable",
      "type": "function"
    },
    {
      "inputs": [
        {
          "internalType": "address[]",
          "name": "factories",
          "type": "address[]"
        },
        {
          "internalType": "bool",
          "name": "_isFactory",
          "type": "bool"
        }
      ],
      "name": "setFactories",
      "outputs": [],
      "stateMutability": "nonpayable",
      "type": "function"
    }
  ],
  "bytecode": "0x608060405234801561001057600080fd5b5060006100216100c460201b60201c565b9050806000806101000a81548173ffffffffffffffffffffffffffffffffffffffff021916908373ffffffffffffffffffffffffffffffffffffffff1602179055508073ffffffffffffffffffffffffffffffffffffffff16600073ffffffffffffffffffffffffffffffffffffffff167f8be0079c531659141344cd1fd0a4f28419497f9722a3daafe3b4186f6b6457e060405160405180910390a3506100cc565b600033905090565b6108e3806100db6000396000f3fe608060405234801561001057600080fd5b50600436106100575760003560e01c806308a8ce1f1461005c5780630f04ba6714610078578063715018a6146100a85780638da5cb5b146100b2578063f2fde38b146100d0575b600080fd5b61007660048036038101906100719190610604565b6100ec565b005b610092600480360381019061008d91906105db565b610233565b60405161009f91906106db565b60405180910390f35b6100b0610253565b005b6100ba61038d565b6040516100c791906106c0565b60405180910390f35b6100ea60048036038101906100e591906105db565b6103b6565b005b6100f461055f565b73ffffffffffffffffffffffffffffffffffffffff1661011261038d565b73ffffffffffffffffffffffffffffffffffffffff1614610168576040517f08c379a000000000000000000000000000000000000000000000000000000000815260040161015f90610716565b60405180910390fd5b60005b8383905081101561022d5781600160008686858181106101b4577f4e487b7100000000000000000000000000000000000000000000000000000000600052603260045260246000fd5b90506020020160208101906101c991906105db565b73ffffffffffffffffffffffffffffffffffffffff1673ffffffffffffffffffffffffffffffffffffffff16815260200190815260200160002060006101000a81548160ff02191690831515021790555080806102259061078f565b91505061016b565b50505050565b60016020528060005260406000206000915054906101000a900460ff1681565b61025b61055f565b73ffffffffffffffffffffffffffffffffffffffff1661027961038d565b73ffffffffffffffffffffffffffffffffffffffff16146102cf576040517f08c379a00000000000000000000000000000000000000000000000000000000081526004016102c690610716565b60405180910390fd5b600073ffffffffffffffffffffffffffffffffffffffff1660008054906101000a900473ffffffffffffffffffffffffffffffffffffffff1673ffffffffffffffffffffffffffffffffffffffff167f8be0079c531659141344cd1fd0a4f28419497f9722a3daafe3b4186f6b6457e060405160405180910390a360008060006101000a81548173ffffffffffffffffffffffffffffffffffffffff021916908373ffffffffffffffffffffffffffffffffffffffff160217905550565b60008060009054906101000a900473ffffffffffffffffffffffffffffffffffffffff16905090565b6103be61055f565b73ffffffffffffffffffffffffffffffffffffffff166103dc61038d565b73ffffffffffffffffffffffffffffffffffffffff1614610432576040517f08c379a000000000000000000000000000000000000000000000000000000000815260040161042990610716565b60405180910390fd5b600073ffffffffffffffffffffffffffffffffffffffff168173ffffffffffffffffffffffffffffffffffffffff1614156104a2576040517f08c379a0000000000000000000000000000000000000000000000000000000008152600401610499906106f6565b60405180910390fd5b8073ffffffffffffffffffffffffffffffffffffffff1660008054906101000a900473ffffffffffffffffffffffffffffffffffffffff1673ffffffffffffffffffffffffffffffffffffffff167f8be0079c531659141344cd1fd0a4f28419497f9722a3daafe3b4186f6b6457e060405160405180910390a3806000806101000a81548173ffffffffffffffffffffffffffffffffffffffff021916908373ffffffffffffffffffffffffffffffffffffffff16021790555050565b600033905090565b6000813590506105768161087f565b92915050565b60008083601f84011261058e57600080fd5b8235905067ffffffffffffffff8111156105a757600080fd5b6020830191508360208202830111156105bf57600080fd5b9250929050565b6000813590506105d581610896565b92915050565b6000602082840312156105ed57600080fd5b60006105fb84828501610567565b91505092915050565b60008060006040848603121561061957600080fd5b600084013567ffffffffffffffff81111561063357600080fd5b61063f8682870161057c565b93509350506020610652868287016105c6565b9150509250925092565b61066581610747565b82525050565b61067481610759565b82525050565b6000610687602683610736565b915061069282610807565b604082019050919050565b60006106aa602083610736565b91506106b582610856565b602082019050919050565b60006020820190506106d5600083018461065c565b92915050565b60006020820190506106f0600083018461066b565b92915050565b6000602082019050818103600083015261070f8161067a565b9050919050565b6000602082019050818103600083015261072f8161069d565b9050919050565b600082825260208201905092915050565b600061075282610765565b9050919050565b60008115159050919050565b600073ffffffffffffffffffffffffffffffffffffffff82169050919050565b6000819050919050565b600061079a82610785565b91507fffffffffffffffffffffffffffffffffffffffffffffffffffffffffffffffff8214156107cd576107cc6107d8565b5b600182019050919050565b7f4e487b7100000000000000000000000000000000000000000000000000000000600052601160045260246000fd5b7f4f776e61626c653a206e6577206f776e657220697320746865207a65726f206160008201527f6464726573730000000000000000000000000000000000000000000000000000602082015250565b7f4f776e61626c653a2063616c6c6572206973206e6f7420746865206f776e6572600082015250565b61088881610747565b811461089357600080fd5b50565b61089f81610759565b81146108aa57600080fd5b5056fea26469706673582212201d66634f2f5453710d1de77d0fd0308ae6cd8fd089ef9f8244364ee7d64fe0d864736f6c63430008040033",
  "immutableReferences": {},
  "source": "// SPDX-License-Identifier: MIT\npragma solidity ^0.8.4;\n\n/**\n * @title UsedByFactories\n * @dev Provides modifiers to allow only offering factory contracts to execute method\n */\n\nimport \"@openzeppelin/contracts/access/Ownable.sol\";\n\ncontract UsedByFactories is Ownable {\n\n    mapping(address => bool) public isFactory;\n\n    modifier onlyFactory() {\n        require(isFactory[msg.sender]);\n        _;\n    }\n\n    function setFactories(address[] calldata factories, bool _isFactory)\n        external\n        onlyOwner\n    {\n        for(uint i = 0; i < factories.length; i++) {\n            isFactory[factories[i]] = _isFactory;\n        }\n    }\n}",
  "sourcePath": "/Users/kwladyka/district0x/name-bazaar/resources/public/contracts/src/UsedByFactories.sol",
  "compiler": {
    "name": "solc",
    "version": "0.8.4+commit.c7e474f2.Emscripten.clang"
  },
  "schemaVersion": "3.4.7",
  "updatedAt": "2022-05-19T11:58:18.642Z",
  "devdoc": {
    "kind": "dev",
    "methods": {
      "owner()": {
        "details": "Returns the address of the current owner."
      },
      "renounceOwnership()": {
        "details": "Leaves the contract without owner. It will not be possible to call `onlyOwner` functions anymore. Can only be called by the current owner. NOTE: Renouncing ownership will leave the contract without an owner, thereby removing any functionality that is only available to the owner."
      },
      "transferOwnership(address)": {
        "details": "Transfers ownership of the contract to a new account (`newOwner`). Can only be called by the current owner."
      }
    },
    "version": 1
  },
  "userdoc": {
    "kind": "user",
    "methods": {},
    "version": 1
  }
}